{
	"data": {
		"bytecode": {
			"linkReferences": {},
			"object": "608060405260015f806101000a81548160ff0219169083151502179055507fffffffffffffffffffffffffffffffffffffffffffffffffffffffffffffff9c5f60016101000a81548160ff02191690835f0b60ff1602179055506040518060400160405280600381526020017f74656e00000000000000000000000000000000000000000000000000000000008152506001908161009d91906103ce565b5073d0c47728dc490a4485709ca76f12d23cf842aa8760025f6101000a81548173ffffffffffffffffffffffffffffffffffffffff021916908373ffffffffffffffffffffffffffffffffffffffff1602179055507f63617400000000000000000000000000000000000000000000000000000000006003556040518060400160405280600281526020016040518060400160405280600481526020017f6e69636b0000000000000000000000000000000000000000000000000000000081525081525060055f820151815f0155602082015181600101908161018091906103ce565b50505034801561018e575f80fd5b5061049d565b5f81519050919050565b7f4e487b71000000000000000000000000000000000000000000000000000000005f52604160045260245ffd5b7f4e487b71000000000000000000000000000000000000000000000000000000005f52602260045260245ffd5b5f600282049050600182168061020f57607f821691505b602082108103610222576102216101cb565b5b50919050565b5f819050815f5260205f209050919050565b5f6020601f8301049050919050565b5f82821b905092915050565b5f600883026102847fffffffffffffffffffffffffffffffffffffffffffffffffffffffffffffffff82610249565b61028e8683610249565b95508019841693508086168417925050509392505050565b5f819050919050565b5f819050919050565b5f6102d26102cd6102c8846102a6565b6102af565b6102a6565b9050919050565b5f819050919050565b6102eb836102b8565b6102ff6102f7826102d9565b848454610255565b825550505050565b5f90565b610313610307565b61031e8184846102e2565b505050565b5b81811015610341576103365f8261030b565b600181019050610324565b5050565b601f8211156103865761035781610228565b6103608461023a565b8101602085101561036f578190505b61038361037b8561023a565b830182610323565b50505b505050565b5f82821c905092915050565b5f6103a65f198460080261038b565b1980831691505092915050565b5f6103be8383610397565b9150826002028217905092915050565b6103d782610194565b67ffffffffffffffff8111156103f0576103ef61019e565b5b6103fa82546101f8565b610405828285610345565b5f60209050601f831160018114610436575f8415610424578287015190505b61042e85826103b3565b865550610495565b601f19841661044486610228565b5f5b8281101561046b57848901518255600182019150602085019450602081019050610446565b868310156104885784890151610484601f891682610397565b8355505b6001600288020188555050505b505050505050565b610946806104aa5f395ff3fe608060405234801561000f575f80fd5b5060043610610055575f3560e01c806367e0badb146100595780636f760f411461007757806392fa9da3146100935780639a67c8b1146100c3578063a4e1ca5a146100df575b5f80fd5b610061610110565b60405161006e91906102ad565b60405180910390f35b610091600480360381019061008c919061043d565b610119565b005b6100ad60048036038101906100a89190610497565b61019d565b6040516100ba91906102ad565b60405180910390f35b6100dd60048036038101906100d891906104de565b6101ca565b005b6100f960048036038101906100f491906104de565b6101e0565b604051610107929190610569565b60405180910390f35b5f600454905090565b6008604051806040016040528083815260200184815250908060018154018082558091505060019003905f5260205f2090600202015f909190919091505f820151815f015560208201518160010190816101739190610791565b50505080600983604051610187919061089a565b9081526020016040518091039020819055505050565b6009818051602081018201805184825260208301602085012081835280955050505050505f915090505481565b6005816101d791906108dd565b60048190555050565b600881815481106101ef575f80fd5b905f5260205f2090600202015f91509050805f015490806001018054610214906105c4565b80601f0160208091040260200160405190810160405280929190818152602001828054610240906105c4565b801561028b5780601f106102625761010080835404028352916020019161028b565b820191905f5260205f20905b81548152906001019060200180831161026e57829003601f168201915b5050505050905082565b5f819050919050565b6102a781610295565b82525050565b5f6020820190506102c05f83018461029e565b92915050565b5f604051905090565b5f80fd5b5f80fd5b5f80fd5b5f80fd5b5f601f19601f8301169050919050565b7f4e487b71000000000000000000000000000000000000000000000000000000005f52604160045260245ffd5b610325826102df565b810181811067ffffffffffffffff82111715610344576103436102ef565b5b80604052505050565b5f6103566102c6565b9050610362828261031c565b919050565b5f67ffffffffffffffff821115610381576103806102ef565b5b61038a826102df565b9050602081019050919050565b828183375f83830152505050565b5f6103b76103b284610367565b61034d565b9050828152602081018484840111156103d3576103d26102db565b5b6103de848285610397565b509392505050565b5f82601f8301126103fa576103f96102d7565b5b813561040a8482602086016103a5565b91505092915050565b61041c81610295565b8114610426575f80fd5b50565b5f8135905061043781610413565b92915050565b5f8060408385031215610453576104526102cf565b5b5f83013567ffffffffffffffff8111156104705761046f6102d3565b5b61047c858286016103e6565b925050602061048d85828601610429565b9150509250929050565b5f602082840312156104ac576104ab6102cf565b5b5f82013567ffffffffffffffff8111156104c9576104c86102d3565b5b6104d5848285016103e6565b91505092915050565b5f602082840312156104f3576104f26102cf565b5b5f61050084828501610429565b91505092915050565b5f81519050919050565b5f82825260208201905092915050565b8281835e5f83830152505050565b5f61053b82610509565b6105458185610513565b9350610555818560208601610523565b61055e816102df565b840191505092915050565b5f60408201905061057c5f83018561029e565b818103602083015261058e8184610531565b90509392505050565b7f4e487b71000000000000000000000000000000000000000000000000000000005f52602260045260245ffd5b5f60028204905060018216806105db57607f821691505b6020821081036105ee576105ed610597565b5b50919050565b5f819050815f5260205f209050919050565b5f6020601f8301049050919050565b5f82821b905092915050565b5f600883026106507fffffffffffffffffffffffffffffffffffffffffffffffffffffffffffffffff82610615565b61065a8683610615565b95508019841693508086168417925050509392505050565b5f819050919050565b5f61069561069061068b84610295565b610672565b610295565b9050919050565b5f819050919050565b6106ae8361067b565b6106c26106ba8261069c565b848454610621565b825550505050565b5f90565b6106d66106ca565b6106e18184846106a5565b505050565b5b81811015610704576106f95f826106ce565b6001810190506106e7565b5050565b601f8211156107495761071a816105f4565b61072384610606565b81016020851015610732578190505b61074661073e85610606565b8301826106e6565b50505b505050565b5f82821c905092915050565b5f6107695f198460080261074e565b1980831691505092915050565b5f610781838361075a565b9150826002028217905092915050565b61079a82610509565b67ffffffffffffffff8111156107b3576107b26102ef565b5b6107bd82546105c4565b6107c8828285610708565b5f60209050601f8311600181146107f9575f84156107e7578287015190505b6107f18582610776565b865550610858565b601f198416610807866105f4565b5f5b8281101561082e57848901518255600182019150602085019450602081019050610809565b8683101561084b5784890151610847601f89168261075a565b8355505b6001600288020188555050505b505050505050565b5f81905092915050565b5f61087482610509565b61087e8185610860565b935061088e818560208601610523565b80840191505092915050565b5f6108a5828461086a565b915081905092915050565b7f4e487b71000000000000000000000000000000000000000000000000000000005f52601160045260245ffd5b5f6108e782610295565b91506108f283610295565b925082820190508082111561090a576109096108b0565b5b9291505056fea26469706673582212203213ce231486e39186f412705fdc74068677cbcd0f01c1193b7d8cbb55eb24a564736f6c634300081a0033",
			"opcodes": "PUSH1 0x80 PUSH1 0x40 MSTORE PUSH1 0x1 PUSH0 DUP1 PUSH2 0x100 EXP DUP2 SLOAD DUP2 PUSH1 0xFF MUL NOT AND SWAP1 DUP4 ISZERO ISZERO MUL OR SWAP1 SSTORE POP PUSH32 0xFFFFFFFFFFFFFFFFFFFFFFFFFFFFFFFFFFFFFFFFFFFFFFFFFFFFFFFFFFFFFF9C PUSH0 PUSH1 0x1 PUSH2 0x100 EXP DUP2 SLOAD DUP2 PUSH1 0xFF MUL NOT AND SWAP1 DUP4 PUSH0 SIGNEXTEND PUSH1 0xFF AND MUL OR SWAP1 SSTORE POP PUSH1 0x40 MLOAD DUP1 PUSH1 0x40 ADD PUSH1 0x40 MSTORE DUP1 PUSH1 0x3 DUP2 MSTORE PUSH1 0x20 ADD PUSH32 0x74656E0000000000000000000000000000000000000000000000000000000000 DUP2 MSTORE POP PUSH1 0x1 SWAP1 DUP2 PUSH2 0x9D SWAP2 SWAP1 PUSH2 0x3CE JUMP JUMPDEST POP PUSH20 0xD0C47728DC490A4485709CA76F12D23CF842AA87 PUSH1 0x2 PUSH0 PUSH2 0x100 EXP DUP2 SLOAD DUP2 PUSH20 0xFFFFFFFFFFFFFFFFFFFFFFFFFFFFFFFFFFFFFFFF MUL NOT AND SWAP1 DUP4 PUSH20 0xFFFFFFFFFFFFFFFFFFFFFFFFFFFFFFFFFFFFFFFF AND MUL OR SWAP1 SSTORE POP PUSH32 0x6361740000000000000000000000000000000000000000000000000000000000 PUSH1 0x3 SSTORE PUSH1 0x40 MLOAD DUP1 PUSH1 0x40 ADD PUSH1 0x40 MSTORE DUP1 PUSH1 0x2 DUP2 MSTORE PUSH1 0x20 ADD PUSH1 0x40 MLOAD DUP1 PUSH1 0x40 ADD PUSH1 0x40 MSTORE DUP1 PUSH1 0x4 DUP2 MSTORE PUSH1 0x20 ADD PUSH32 0x6E69636B00000000000000000000000000000000000000000000000000000000 DUP2 MSTORE POP DUP2 MSTORE POP PUSH1 0x5 PUSH0 DUP3 ADD MLOAD DUP2 PUSH0 ADD SSTORE PUSH1 0x20 DUP3 ADD MLOAD DUP2 PUSH1 0x1 ADD SWAP1 DUP2 PUSH2 0x180 SWAP2 SWAP1 PUSH2 0x3CE JUMP JUMPDEST POP POP POP CALLVALUE DUP1 ISZERO PUSH2 0x18E JUMPI PUSH0 DUP1 REVERT JUMPDEST POP PUSH2 0x49D JUMP JUMPDEST PUSH0 DUP2 MLOAD SWAP1 POP SWAP2 SWAP1 POP JUMP JUMPDEST PUSH32 0x4E487B7100000000000000000000000000000000000000000000000000000000 PUSH0 MSTORE PUSH1 0x41 PUSH1 0x4 MSTORE PUSH1 0x24 PUSH0 REVERT JUMPDEST PUSH32 0x4E487B7100000000000000000000000000000000000000000000000000000000 PUSH0 MSTORE PUSH1 0x22 PUSH1 0x4 MSTORE PUSH1 0x24 PUSH0 REVERT JUMPDEST PUSH0 PUSH1 0x2 DUP3 DIV SWAP1 POP PUSH1 0x1 DUP3 AND DUP1 PUSH2 0x20F JUMPI PUSH1 0x7F DUP3 AND SWAP2 POP JUMPDEST PUSH1 0x20 DUP3 LT DUP2 SUB PUSH2 0x222 JUMPI PUSH2 0x221 PUSH2 0x1CB JUMP JUMPDEST JUMPDEST POP SWAP2 SWAP1 POP JUMP JUMPDEST PUSH0 DUP2 SWAP1 POP DUP2 PUSH0 MSTORE PUSH1 0x20 PUSH0 KECCAK256 SWAP1 POP SWAP2 SWAP1 POP JUMP JUMPDEST PUSH0 PUSH1 0x20 PUSH1 0x1F DUP4 ADD DIV SWAP1 POP SWAP2 SWAP1 POP JUMP JUMPDEST PUSH0 DUP3 DUP3 SHL SWAP1 POP SWAP3 SWAP2 POP POP JUMP JUMPDEST PUSH0 PUSH1 0x8 DUP4 MUL PUSH2 0x284 PUSH32 0xFFFFFFFFFFFFFFFFFFFFFFFFFFFFFFFFFFFFFFFFFFFFFFFFFFFFFFFFFFFFFFFF DUP3 PUSH2 0x249 JUMP JUMPDEST PUSH2 0x28E DUP7 DUP4 PUSH2 0x249 JUMP JUMPDEST SWAP6 POP DUP1 NOT DUP5 AND SWAP4 POP DUP1 DUP7 AND DUP5 OR SWAP3 POP POP POP SWAP4 SWAP3 POP POP POP JUMP JUMPDEST PUSH0 DUP2 SWAP1 POP SWAP2 SWAP1 POP JUMP JUMPDEST PUSH0 DUP2 SWAP1 POP SWAP2 SWAP1 POP JUMP JUMPDEST PUSH0 PUSH2 0x2D2 PUSH2 0x2CD PUSH2 0x2C8 DUP5 PUSH2 0x2A6 JUMP JUMPDEST PUSH2 0x2AF JUMP JUMPDEST PUSH2 0x2A6 JUMP JUMPDEST SWAP1 POP SWAP2 SWAP1 POP JUMP JUMPDEST PUSH0 DUP2 SWAP1 POP SWAP2 SWAP1 POP JUMP JUMPDEST PUSH2 0x2EB DUP4 PUSH2 0x2B8 JUMP JUMPDEST PUSH2 0x2FF PUSH2 0x2F7 DUP3 PUSH2 0x2D9 JUMP JUMPDEST DUP5 DUP5 SLOAD PUSH2 0x255 JUMP JUMPDEST DUP3 SSTORE POP POP POP POP JUMP JUMPDEST PUSH0 SWAP1 JUMP JUMPDEST PUSH2 0x313 PUSH2 0x307 JUMP JUMPDEST PUSH2 0x31E DUP2 DUP5 DUP5 PUSH2 0x2E2 JUMP JUMPDEST POP POP POP JUMP JUMPDEST JUMPDEST DUP2 DUP2 LT ISZERO PUSH2 0x341 JUMPI PUSH2 0x336 PUSH0 DUP3 PUSH2 0x30B JUMP JUMPDEST PUSH1 0x1 DUP2 ADD SWAP1 POP PUSH2 0x324 JUMP JUMPDEST POP POP JUMP JUMPDEST PUSH1 0x1F DUP3 GT ISZERO PUSH2 0x386 JUMPI PUSH2 0x357 DUP2 PUSH2 0x228 JUMP JUMPDEST PUSH2 0x360 DUP5 PUSH2 0x23A JUMP JUMPDEST DUP2 ADD PUSH1 0x20 DUP6 LT ISZERO PUSH2 0x36F JUMPI DUP2 SWAP1 POP JUMPDEST PUSH2 0x383 PUSH2 0x37B DUP6 PUSH2 0x23A JUMP JUMPDEST DUP4 ADD DUP3 PUSH2 0x323 JUMP JUMPDEST POP POP JUMPDEST POP POP POP JUMP JUMPDEST PUSH0 DUP3 DUP3 SHR SWAP1 POP SWAP3 SWAP2 POP POP JUMP JUMPDEST PUSH0 PUSH2 0x3A6 PUSH0 NOT DUP5 PUSH1 0x8 MUL PUSH2 0x38B JUMP JUMPDEST NOT DUP1 DUP4 AND SWAP2 POP POP SWAP3 SWAP2 POP POP JUMP JUMPDEST PUSH0 PUSH2 0x3BE DUP4 DUP4 PUSH2 0x397 JUMP JUMPDEST SWAP2 POP DUP3 PUSH1 0x2 MUL DUP3 OR SWAP1 POP SWAP3 SWAP2 POP POP JUMP JUMPDEST PUSH2 0x3D7 DUP3 PUSH2 0x194 JUMP JUMPDEST PUSH8 0xFFFFFFFFFFFFFFFF DUP2 GT ISZERO PUSH2 0x3F0 JUMPI PUSH2 0x3EF PUSH2 0x19E JUMP JUMPDEST JUMPDEST PUSH2 0x3FA DUP3 SLOAD PUSH2 0x1F8 JUMP JUMPDEST PUSH2 0x405 DUP3 DUP3 DUP6 PUSH2 0x345 JUMP JUMPDEST PUSH0 PUSH1 0x20 SWAP1 POP PUSH1 0x1F DUP4 GT PUSH1 0x1 DUP2 EQ PUSH2 0x436 JUMPI PUSH0 DUP5 ISZERO PUSH2 0x424 JUMPI DUP3 DUP8 ADD MLOAD SWAP1 POP JUMPDEST PUSH2 0x42E DUP6 DUP3 PUSH2 0x3B3 JUMP JUMPDEST DUP7 SSTORE POP PUSH2 0x495 JUMP JUMPDEST PUSH1 0x1F NOT DUP5 AND PUSH2 0x444 DUP7 PUSH2 0x228 JUMP JUMPDEST PUSH0 JUMPDEST DUP3 DUP2 LT ISZERO PUSH2 0x46B JUMPI DUP5 DUP10 ADD MLOAD DUP3 SSTORE PUSH1 0x1 DUP3 ADD SWAP2 POP PUSH1 0x20 DUP6 ADD SWAP5 POP PUSH1 0x20 DUP2 ADD SWAP1 POP PUSH2 0x446 JUMP JUMPDEST DUP7 DUP4 LT ISZERO PUSH2 0x488 JUMPI DUP5 DUP10 ADD MLOAD PUSH2 0x484 PUSH1 0x1F DUP10 AND DUP3 PUSH2 0x397 JUMP JUMPDEST DUP4 SSTORE POP JUMPDEST PUSH1 0x1 PUSH1 0x2 DUP9 MUL ADD DUP9 SSTORE POP POP POP JUMPDEST POP POP POP POP POP POP JUMP JUMPDEST PUSH2 0x946 DUP1 PUSH2 0x4AA PUSH0 CODECOPY PUSH0 RETURN INVALID PUSH1 0x80 PUSH1 0x40 MSTORE CALLVALUE DUP1 ISZERO PUSH2 0xF JUMPI PUSH0 DUP1 REVERT JUMPDEST POP PUSH1 0x4 CALLDATASIZE LT PUSH2 0x55 JUMPI PUSH0 CALLDATALOAD PUSH1 0xE0 SHR DUP1 PUSH4 0x67E0BADB EQ PUSH2 0x59 JUMPI DUP1 PUSH4 0x6F760F41 EQ PUSH2 0x77 JUMPI DUP1 PUSH4 0x92FA9DA3 EQ PUSH2 0x93 JUMPI DUP1 PUSH4 0x9A67C8B1 EQ PUSH2 0xC3 JUMPI DUP1 PUSH4 0xA4E1CA5A EQ PUSH2 0xDF JUMPI JUMPDEST PUSH0 DUP1 REVERT JUMPDEST PUSH2 0x61 PUSH2 0x110 JUMP JUMPDEST PUSH1 0x40 MLOAD PUSH2 0x6E SWAP2 SWAP1 PUSH2 0x2AD JUMP JUMPDEST PUSH1 0x40 MLOAD DUP1 SWAP2 SUB SWAP1 RETURN JUMPDEST PUSH2 0x91 PUSH1 0x4 DUP1 CALLDATASIZE SUB DUP2 ADD SWAP1 PUSH2 0x8C SWAP2 SWAP1 PUSH2 0x43D JUMP JUMPDEST PUSH2 0x119 JUMP JUMPDEST STOP JUMPDEST PUSH2 0xAD PUSH1 0x4 DUP1 CALLDATASIZE SUB DUP2 ADD SWAP1 PUSH2 0xA8 SWAP2 SWAP1 PUSH2 0x497 JUMP JUMPDEST PUSH2 0x19D JUMP JUMPDEST PUSH1 0x40 MLOAD PUSH2 0xBA SWAP2 SWAP1 PUSH2 0x2AD JUMP JUMPDEST PUSH1 0x40 MLOAD DUP1 SWAP2 SUB SWAP1 RETURN JUMPDEST PUSH2 0xDD PUSH1 0x4 DUP1 CALLDATASIZE SUB DUP2 ADD SWAP1 PUSH2 0xD8 SWAP2 SWAP1 PUSH2 0x4DE JUMP JUMPDEST PUSH2 0x1CA JUMP JUMPDEST STOP JUMPDEST PUSH2 0xF9 PUSH1 0x4 DUP1 CALLDATASIZE SUB DUP2 ADD SWAP1 PUSH2 0xF4 SWAP2 SWAP1 PUSH2 0x4DE JUMP JUMPDEST PUSH2 0x1E0 JUMP JUMPDEST PUSH1 0x40 MLOAD PUSH2 0x107 SWAP3 SWAP2 SWAP1 PUSH2 0x569 JUMP JUMPDEST PUSH1 0x40 MLOAD DUP1 SWAP2 SUB SWAP1 RETURN JUMPDEST PUSH0 PUSH1 0x4 SLOAD SWAP1 POP SWAP1 JUMP JUMPDEST PUSH1 0x8 PUSH1 0x40 MLOAD DUP1 PUSH1 0x40 ADD PUSH1 0x40 MSTORE DUP1 DUP4 DUP2 MSTORE PUSH1 0x20 ADD DUP5 DUP2 MSTORE POP SWAP1 DUP1 PUSH1 0x1 DUP2 SLOAD ADD DUP1 DUP3 SSTORE DUP1 SWAP2 POP POP PUSH1 0x1 SWAP1 SUB SWAP1 PUSH0 MSTORE PUSH1 0x20 PUSH0 KECCAK256 SWAP1 PUSH1 0x2 MUL ADD PUSH0 SWAP1 SWAP2 SWAP1 SWAP2 SWAP1 SWAP2 POP PUSH0 DUP3 ADD MLOAD DUP2 PUSH0 ADD SSTORE PUSH1 0x20 DUP3 ADD MLOAD DUP2 PUSH1 0x1 ADD SWAP1 DUP2 PUSH2 0x173 SWAP2 SWAP1 PUSH2 0x791 JUMP JUMPDEST POP POP POP DUP1 PUSH1 0x9 DUP4 PUSH1 0x40 MLOAD PUSH2 0x187 SWAP2 SWAP1 PUSH2 0x89A JUMP JUMPDEST SWAP1 DUP2 MSTORE PUSH1 0x20 ADD PUSH1 0x40 MLOAD DUP1 SWAP2 SUB SWAP1 KECCAK256 DUP2 SWAP1 SSTORE POP POP POP JUMP JUMPDEST PUSH1 0x9 DUP2 DUP1 MLOAD PUSH1 0x20 DUP2 ADD DUP3 ADD DUP1 MLOAD DUP5 DUP3 MSTORE PUSH1 0x20 DUP4 ADD PUSH1 0x20 DUP6 ADD KECCAK256 DUP2 DUP4 MSTORE DUP1 SWAP6 POP POP POP POP POP POP PUSH0 SWAP2 POP SWAP1 POP SLOAD DUP2 JUMP JUMPDEST PUSH1 0x5 DUP2 PUSH2 0x1D7 SWAP2 SWAP1 PUSH2 0x8DD JUMP JUMPDEST PUSH1 0x4 DUP2 SWAP1 SSTORE POP POP JUMP JUMPDEST PUSH1 0x8 DUP2 DUP2 SLOAD DUP2 LT PUSH2 0x1EF JUMPI PUSH0 DUP1 REVERT JUMPDEST SWAP1 PUSH0 MSTORE PUSH1 0x20 PUSH0 KECCAK256 SWAP1 PUSH1 0x2 MUL ADD PUSH0 SWAP2 POP SWAP1 POP DUP1 PUSH0 ADD SLOAD SWAP1 DUP1 PUSH1 0x1 ADD DUP1 SLOAD PUSH2 0x214 SWAP1 PUSH2 0x5C4 JUMP JUMPDEST DUP1 PUSH1 0x1F ADD PUSH1 0x20 DUP1 SWAP2 DIV MUL PUSH1 0x20 ADD PUSH1 0x40 MLOAD SWAP1 DUP2 ADD PUSH1 0x40 MSTORE DUP1 SWAP3 SWAP2 SWAP1 DUP2 DUP2 MSTORE PUSH1 0x20 ADD DUP3 DUP1 SLOAD PUSH2 0x240 SWAP1 PUSH2 0x5C4 JUMP JUMPDEST DUP1 ISZERO PUSH2 0x28B JUMPI DUP1 PUSH1 0x1F LT PUSH2 0x262 JUMPI PUSH2 0x100 DUP1 DUP4 SLOAD DIV MUL DUP4 MSTORE SWAP2 PUSH1 0x20 ADD SWAP2 PUSH2 0x28B JUMP JUMPDEST DUP3 ADD SWAP2 SWAP1 PUSH0 MSTORE PUSH1 0x20 PUSH0 KECCAK256 SWAP1 JUMPDEST DUP2 SLOAD DUP2 MSTORE SWAP1 PUSH1 0x1 ADD SWAP1 PUSH1 0x20 ADD DUP1 DUP4 GT PUSH2 0x26E JUMPI DUP3 SWAP1 SUB PUSH1 0x1F AND DUP3 ADD SWAP2 JUMPDEST POP POP POP POP POP SWAP1 POP DUP3 JUMP JUMPDEST PUSH0 DUP2 SWAP1 POP SWAP2 SWAP1 POP JUMP JUMPDEST PUSH2 0x2A7 DUP2 PUSH2 0x295 JUMP JUMPDEST DUP3 MSTORE POP POP JUMP JUMPDEST PUSH0 PUSH1 0x20 DUP3 ADD SWAP1 POP PUSH2 0x2C0 PUSH0 DUP4 ADD DUP5 PUSH2 0x29E JUMP JUMPDEST SWAP3 SWAP2 POP POP JUMP JUMPDEST PUSH0 PUSH1 0x40 MLOAD SWAP1 POP SWAP1 JUMP JUMPDEST PUSH0 DUP1 REVERT JUMPDEST PUSH0 DUP1 REVERT JUMPDEST PUSH0 DUP1 REVERT JUMPDEST PUSH0 DUP1 REVERT JUMPDEST PUSH0 PUSH1 0x1F NOT PUSH1 0x1F DUP4 ADD AND SWAP1 POP SWAP2 SWAP1 POP JUMP JUMPDEST PUSH32 0x4E487B7100000000000000000000000000000000000000000000000000000000 PUSH0 MSTORE PUSH1 0x41 PUSH1 0x4 MSTORE PUSH1 0x24 PUSH0 REVERT JUMPDEST PUSH2 0x325 DUP3 PUSH2 0x2DF JUMP JUMPDEST DUP2 ADD DUP2 DUP2 LT PUSH8 0xFFFFFFFFFFFFFFFF DUP3 GT OR ISZERO PUSH2 0x344 JUMPI PUSH2 0x343 PUSH2 0x2EF JUMP JUMPDEST JUMPDEST DUP1 PUSH1 0x40 MSTORE POP POP POP JUMP JUMPDEST PUSH0 PUSH2 0x356 PUSH2 0x2C6 JUMP JUMPDEST SWAP1 POP PUSH2 0x362 DUP3 DUP3 PUSH2 0x31C JUMP JUMPDEST SWAP2 SWAP1 POP JUMP JUMPDEST PUSH0 PUSH8 0xFFFFFFFFFFFFFFFF DUP3 GT ISZERO PUSH2 0x381 JUMPI PUSH2 0x380 PUSH2 0x2EF JUMP JUMPDEST JUMPDEST PUSH2 0x38A DUP3 PUSH2 0x2DF JUMP JUMPDEST SWAP1 POP PUSH1 0x20 DUP2 ADD SWAP1 POP SWAP2 SWAP1 POP JUMP JUMPDEST DUP3 DUP2 DUP4 CALLDATACOPY PUSH0 DUP4 DUP4 ADD MSTORE POP POP POP JUMP JUMPDEST PUSH0 PUSH2 0x3B7 PUSH2 0x3B2 DUP5 PUSH2 0x367 JUMP JUMPDEST PUSH2 0x34D JUMP JUMPDEST SWAP1 POP DUP3 DUP2 MSTORE PUSH1 0x20 DUP2 ADD DUP5 DUP5 DUP5 ADD GT ISZERO PUSH2 0x3D3 JUMPI PUSH2 0x3D2 PUSH2 0x2DB JUMP JUMPDEST JUMPDEST PUSH2 0x3DE DUP5 DUP3 DUP6 PUSH2 0x397 JUMP JUMPDEST POP SWAP4 SWAP3 POP POP POP JUMP JUMPDEST PUSH0 DUP3 PUSH1 0x1F DUP4 ADD SLT PUSH2 0x3FA JUMPI PUSH2 0x3F9 PUSH2 0x2D7 JUMP JUMPDEST JUMPDEST DUP2 CALLDATALOAD PUSH2 0x40A DUP5 DUP3 PUSH1 0x20 DUP7 ADD PUSH2 0x3A5 JUMP JUMPDEST SWAP2 POP POP SWAP3 SWAP2 POP POP JUMP JUMPDEST PUSH2 0x41C DUP2 PUSH2 0x295 JUMP JUMPDEST DUP2 EQ PUSH2 0x426 JUMPI PUSH0 DUP1 REVERT JUMPDEST POP JUMP JUMPDEST PUSH0 DUP2 CALLDATALOAD SWAP1 POP PUSH2 0x437 DUP2 PUSH2 0x413 JUMP JUMPDEST SWAP3 SWAP2 POP POP JUMP JUMPDEST PUSH0 DUP1 PUSH1 0x40 DUP4 DUP6 SUB SLT ISZERO PUSH2 0x453 JUMPI PUSH2 0x452 PUSH2 0x2CF JUMP JUMPDEST JUMPDEST PUSH0 DUP4 ADD CALLDATALOAD PUSH8 0xFFFFFFFFFFFFFFFF DUP2 GT ISZERO PUSH2 0x470 JUMPI PUSH2 0x46F PUSH2 0x2D3 JUMP JUMPDEST JUMPDEST PUSH2 0x47C DUP6 DUP3 DUP7 ADD PUSH2 0x3E6 JUMP JUMPDEST SWAP3 POP POP PUSH1 0x20 PUSH2 0x48D DUP6 DUP3 DUP7 ADD PUSH2 0x429 JUMP JUMPDEST SWAP2 POP POP SWAP3 POP SWAP3 SWAP1 POP JUMP JUMPDEST PUSH0 PUSH1 0x20 DUP3 DUP5 SUB SLT ISZERO PUSH2 0x4AC JUMPI PUSH2 0x4AB PUSH2 0x2CF JUMP JUMPDEST JUMPDEST PUSH0 DUP3 ADD CALLDATALOAD PUSH8 0xFFFFFFFFFFFFFFFF DUP2 GT ISZERO PUSH2 0x4C9 JUMPI PUSH2 0x4C8 PUSH2 0x2D3 JUMP JUMPDEST JUMPDEST PUSH2 0x4D5 DUP5 DUP3 DUP6 ADD PUSH2 0x3E6 JUMP JUMPDEST SWAP2 POP POP SWAP3 SWAP2 POP POP JUMP JUMPDEST PUSH0 PUSH1 0x20 DUP3 DUP5 SUB SLT ISZERO PUSH2 0x4F3 JUMPI PUSH2 0x4F2 PUSH2 0x2CF JUMP JUMPDEST JUMPDEST PUSH0 PUSH2 0x500 DUP5 DUP3 DUP6 ADD PUSH2 0x429 JUMP JUMPDEST SWAP2 POP POP SWAP3 SWAP2 POP POP JUMP JUMPDEST PUSH0 DUP2 MLOAD SWAP1 POP SWAP2 SWAP1 POP JUMP JUMPDEST PUSH0 DUP3 DUP3 MSTORE PUSH1 0x20 DUP3 ADD SWAP1 POP SWAP3 SWAP2 POP POP JUMP JUMPDEST DUP3 DUP2 DUP4 MCOPY PUSH0 DUP4 DUP4 ADD MSTORE POP POP POP JUMP JUMPDEST PUSH0 PUSH2 0x53B DUP3 PUSH2 0x509 JUMP JUMPDEST PUSH2 0x545 DUP2 DUP6 PUSH2 0x513 JUMP JUMPDEST SWAP4 POP PUSH2 0x555 DUP2 DUP6 PUSH1 0x20 DUP7 ADD PUSH2 0x523 JUMP JUMPDEST PUSH2 0x55E DUP2 PUSH2 0x2DF JUMP JUMPDEST DUP5 ADD SWAP2 POP POP SWAP3 SWAP2 POP POP JUMP JUMPDEST PUSH0 PUSH1 0x40 DUP3 ADD SWAP1 POP PUSH2 0x57C PUSH0 DUP4 ADD DUP6 PUSH2 0x29E JUMP JUMPDEST DUP2 DUP2 SUB PUSH1 0x20 DUP4 ADD MSTORE PUSH2 0x58E DUP2 DUP5 PUSH2 0x531 JUMP JUMPDEST SWAP1 POP SWAP4 SWAP3 POP POP POP JUMP JUMPDEST PUSH32 0x4E487B7100000000000000000000000000000000000000000000000000000000 PUSH0 MSTORE PUSH1 0x22 PUSH1 0x4 MSTORE PUSH1 0x24 PUSH0 REVERT JUMPDEST PUSH0 PUSH1 0x2 DUP3 DIV SWAP1 POP PUSH1 0x1 DUP3 AND DUP1 PUSH2 0x5DB JUMPI PUSH1 0x7F DUP3 AND SWAP2 POP JUMPDEST PUSH1 0x20 DUP3 LT DUP2 SUB PUSH2 0x5EE JUMPI PUSH2 0x5ED PUSH2 0x597 JUMP JUMPDEST JUMPDEST POP SWAP2 SWAP1 POP JUMP JUMPDEST PUSH0 DUP2 SWAP1 POP DUP2 PUSH0 MSTORE PUSH1 0x20 PUSH0 KECCAK256 SWAP1 POP SWAP2 SWAP1 POP JUMP JUMPDEST PUSH0 PUSH1 0x20 PUSH1 0x1F DUP4 ADD DIV SWAP1 POP SWAP2 SWAP1 POP JUMP JUMPDEST PUSH0 DUP3 DUP3 SHL SWAP1 POP SWAP3 SWAP2 POP POP JUMP JUMPDEST PUSH0 PUSH1 0x8 DUP4 MUL PUSH2 0x650 PUSH32 0xFFFFFFFFFFFFFFFFFFFFFFFFFFFFFFFFFFFFFFFFFFFFFFFFFFFFFFFFFFFFFFFF DUP3 PUSH2 0x615 JUMP JUMPDEST PUSH2 0x65A DUP7 DUP4 PUSH2 0x615 JUMP JUMPDEST SWAP6 POP DUP1 NOT DUP5 AND SWAP4 POP DUP1 DUP7 AND DUP5 OR SWAP3 POP POP POP SWAP4 SWAP3 POP POP POP JUMP JUMPDEST PUSH0 DUP2 SWAP1 POP SWAP2 SWAP1 POP JUMP JUMPDEST PUSH0 PUSH2 0x695 PUSH2 0x690 PUSH2 0x68B DUP5 PUSH2 0x295 JUMP JUMPDEST PUSH2 0x672 JUMP JUMPDEST PUSH2 0x295 JUMP JUMPDEST SWAP1 POP SWAP2 SWAP1 POP JUMP JUMPDEST PUSH0 DUP2 SWAP1 POP SWAP2 SWAP1 POP JUMP JUMPDEST PUSH2 0x6AE DUP4 PUSH2 0x67B JUMP JUMPDEST PUSH2 0x6C2 PUSH2 0x6BA DUP3 PUSH2 0x69C JUMP JUMPDEST DUP5 DUP5 SLOAD PUSH2 0x621 JUMP JUMPDEST DUP3 SSTORE POP POP POP POP JUMP JUMPDEST PUSH0 SWAP1 JUMP JUMPDEST PUSH2 0x6D6 PUSH2 0x6CA JUMP JUMPDEST PUSH2 0x6E1 DUP2 DUP5 DUP5 PUSH2 0x6A5 JUMP JUMPDEST POP POP POP JUMP JUMPDEST JUMPDEST DUP2 DUP2 LT ISZERO PUSH2 0x704 JUMPI PUSH2 0x6F9 PUSH0 DUP3 PUSH2 0x6CE JUMP JUMPDEST PUSH1 0x1 DUP2 ADD SWAP1 POP PUSH2 0x6E7 JUMP JUMPDEST POP POP JUMP JUMPDEST PUSH1 0x1F DUP3 GT ISZERO PUSH2 0x749 JUMPI PUSH2 0x71A DUP2 PUSH2 0x5F4 JUMP JUMPDEST PUSH2 0x723 DUP5 PUSH2 0x606 JUMP JUMPDEST DUP2 ADD PUSH1 0x20 DUP6 LT ISZERO PUSH2 0x732 JUMPI DUP2 SWAP1 POP JUMPDEST PUSH2 0x746 PUSH2 0x73E DUP6 PUSH2 0x606 JUMP JUMPDEST DUP4 ADD DUP3 PUSH2 0x6E6 JUMP JUMPDEST POP POP JUMPDEST POP POP POP JUMP JUMPDEST PUSH0 DUP3 DUP3 SHR SWAP1 POP SWAP3 SWAP2 POP POP JUMP JUMPDEST PUSH0 PUSH2 0x769 PUSH0 NOT DUP5 PUSH1 0x8 MUL PUSH2 0x74E JUMP JUMPDEST NOT DUP1 DUP4 AND SWAP2 POP POP SWAP3 SWAP2 POP POP JUMP JUMPDEST PUSH0 PUSH2 0x781 DUP4 DUP4 PUSH2 0x75A JUMP JUMPDEST SWAP2 POP DUP3 PUSH1 0x2 MUL DUP3 OR SWAP1 POP SWAP3 SWAP2 POP POP JUMP JUMPDEST PUSH2 0x79A DUP3 PUSH2 0x509 JUMP JUMPDEST PUSH8 0xFFFFFFFFFFFFFFFF DUP2 GT ISZERO PUSH2 0x7B3 JUMPI PUSH2 0x7B2 PUSH2 0x2EF JUMP JUMPDEST JUMPDEST PUSH2 0x7BD DUP3 SLOAD PUSH2 0x5C4 JUMP JUMPDEST PUSH2 0x7C8 DUP3 DUP3 DUP6 PUSH2 0x708 JUMP JUMPDEST PUSH0 PUSH1 0x20 SWAP1 POP PUSH1 0x1F DUP4 GT PUSH1 0x1 DUP2 EQ PUSH2 0x7F9 JUMPI PUSH0 DUP5 ISZERO PUSH2 0x7E7 JUMPI DUP3 DUP8 ADD MLOAD SWAP1 POP JUMPDEST PUSH2 0x7F1 DUP6 DUP3 PUSH2 0x776 JUMP JUMPDEST DUP7 SSTORE POP PUSH2 0x858 JUMP JUMPDEST PUSH1 0x1F NOT DUP5 AND PUSH2 0x807 DUP7 PUSH2 0x5F4 JUMP JUMPDEST PUSH0 JUMPDEST DUP3 DUP2 LT ISZERO PUSH2 0x82E JUMPI DUP5 DUP10 ADD MLOAD DUP3 SSTORE PUSH1 0x1 DUP3 ADD SWAP2 POP PUSH1 0x20 DUP6 ADD SWAP5 POP PUSH1 0x20 DUP2 ADD SWAP1 POP PUSH2 0x809 JUMP JUMPDEST DUP7 DUP4 LT ISZERO PUSH2 0x84B JUMPI DUP5 DUP10 ADD MLOAD PUSH2 0x847 PUSH1 0x1F DUP10 AND DUP3 PUSH2 0x75A JUMP JUMPDEST DUP4 SSTORE POP JUMPDEST PUSH1 0x1 PUSH1 0x2 DUP9 MUL ADD DUP9 SSTORE POP POP POP JUMPDEST POP POP POP POP POP POP JUMP JUMPDEST PUSH0 DUP2 SWAP1 POP SWAP3 SWAP2 POP POP JUMP JUMPDEST PUSH0 PUSH2 0x874 DUP3 PUSH2 0x509 JUMP JUMPDEST PUSH2 0x87E DUP2 DUP6 PUSH2 0x860 JUMP JUMPDEST SWAP4 POP PUSH2 0x88E DUP2 DUP6 PUSH1 0x20 DUP7 ADD PUSH2 0x523 JUMP JUMPDEST DUP1 DUP5 ADD SWAP2 POP POP SWAP3 SWAP2 POP POP JUMP JUMPDEST PUSH0 PUSH2 0x8A5 DUP3 DUP5 PUSH2 0x86A JUMP JUMPDEST SWAP2 POP DUP2 SWAP1 POP SWAP3 SWAP2 POP POP JUMP JUMPDEST PUSH32 0x4E487B7100000000000000000000000000000000000000000000000000000000 PUSH0 MSTORE PUSH1 0x11 PUSH1 0x4 MSTORE PUSH1 0x24 PUSH0 REVERT JUMPDEST PUSH0 PUSH2 0x8E7 DUP3 PUSH2 0x295 JUMP JUMPDEST SWAP2 POP PUSH2 0x8F2 DUP4 PUSH2 0x295 JUMP JUMPDEST SWAP3 POP DUP3 DUP3 ADD SWAP1 POP DUP1 DUP3 GT ISZERO PUSH2 0x90A JUMPI PUSH2 0x909 PUSH2 0x8B0 JUMP JUMPDEST JUMPDEST SWAP3 SWAP2 POP POP JUMP INVALID LOG2 PUSH5 0x6970667358 0x22 SLT KECCAK256 ORIGIN SGT 0xCE 0x23 EQ DUP7 0xE3 SWAP2 DUP7 DELEGATECALL SLT PUSH17 0x5FDC74068677CBCD0F01C1193B7D8CBB55 0xEB 0x24 0xA5 PUSH5 0x736F6C6343 STOP ADDMOD BYTE STOP CALLER "
		},
		"gasEstimates": {
			"creation": {
				"codeDepositCost": "474800",
				"executionCost": "infinite",
				"totalCost": "infinite"
			},
			"external": {
				"addPerson(string,uint256)": "infinite",
				"getNum()": "2410",
				"nameToNum(string)": "infinite",
				"peopleArray(uint256)": "infinite",
				"storeNum(uint256)": "infinite"
			}
		},
		"methodIdentifiers": {
			"addPerson(string,uint256)": "6f760f41",
			"getNum()": "67e0badb",
			"nameToNum(string)": "92fa9da3",
			"peopleArray(uint256)": "a4e1ca5a",
			"storeNum(uint256)": "9a67c8b1"
		}
	},
	"abi": [
		{
			"inputs": [
				{
					"internalType": "string",
					"name": "_name",
					"type": "string"
				},
				{
					"internalType": "uint256",
					"name": "_favouriteNumber",
					"type": "uint256"
				}
			],
			"name": "addPerson",
			"outputs": [],
			"stateMutability": "nonpayable",
			"type": "function"
		},
		{
			"inputs": [],
			"name": "getNum",
			"outputs": [
				{
					"internalType": "uint256",
					"name": "",
					"type": "uint256"
				}
			],
			"stateMutability": "view",
			"type": "function"
		},
		{
			"inputs": [
				{
					"internalType": "string",
					"name": "",
					"type": "string"
				}
			],
			"name": "nameToNum",
			"outputs": [
				{
					"internalType": "uint256",
					"name": "",
					"type": "uint256"
				}
			],
			"stateMutability": "view",
			"type": "function"
		},
		{
			"inputs": [
				{
					"internalType": "uint256",
					"name": "",
					"type": "uint256"
				}
			],
			"name": "peopleArray",
			"outputs": [
				{
					"internalType": "uint256",
					"name": "favouriteNumber",
					"type": "uint256"
				},
				{
					"internalType": "string",
					"name": "name",
					"type": "string"
				}
			],
			"stateMutability": "view",
			"type": "function"
		},
		{
			"inputs": [
				{
					"internalType": "uint256",
					"name": "_favouriteNumber",
					"type": "uint256"
				}
			],
			"name": "storeNum",
			"outputs": [],
			"stateMutability": "nonpayable",
			"type": "function"
		}
	]
}