{
	"MyWorkspace/StorageFactory.sol": {
		"StorageFactory": {
			"abi": [
				{
					"inputs": [
						{
							"internalType": "uint256",
							"name": "",
							"type": "uint256"
						}
					],
					"name": "addressArray",
					"outputs": [
						{
							"internalType": "address",
							"name": "",
							"type": "address"
						}
					],
					"stateMutability": "view",
					"type": "function"
				},
				{
					"inputs": [],
					"name": "createSimpleStorageContract",
					"outputs": [],
					"stateMutability": "nonpayable",
					"type": "function"
				},
				{
					"inputs": [
						{
							"internalType": "uint256",
							"name": "_index",
							"type": "uint256"
						}
					],
					"name": "getNumByIndex",
					"outputs": [
						{
							"internalType": "uint256",
							"name": "",
							"type": "uint256"
						}
					],
					"stateMutability": "view",
					"type": "function"
				},
				{
					"inputs": [
						{
							"internalType": "uint256",
							"name": "",
							"type": "uint256"
						}
					],
					"name": "storageArray",
					"outputs": [
						{
							"internalType": "contract SimpleStorage",
							"name": "",
							"type": "address"
						}
					],
					"stateMutability": "view",
					"type": "function"
				},
				{
					"inputs": [
						{
							"internalType": "uint256",
							"name": "_index",
							"type": "uint256"
						},
						{
							"internalType": "uint256",
							"name": "_num",
							"type": "uint256"
						}
					],
					"name": "storeNumByIndex",
					"outputs": [],
					"stateMutability": "nonpayable",
					"type": "function"
				}
			],
			"devdoc": {
				"kind": "dev",
				"methods": {},
				"version": 1
			},
			"evm": {
				"assembly": "    /* \"MyWorkspace/StorageFactory.sol\":95:942  contract StorageFactory{... */\n  mstore(0x40, 0x80)\n  callvalue\n  dup1\n  iszero\n  tag_1\n  jumpi\n  0x00\n  dup1\n  revert\ntag_1:\n  pop\n  dataSize(sub_0)\n  dup1\n  dataOffset(sub_0)\n  0x00\n  codecopy\n  0x00\n  return\nstop\n\nsub_0: assembly {\n        /* \"MyWorkspace/StorageFactory.sol\":95:942  contract StorageFactory{... */\n      mstore(0x40, 0x80)\n      callvalue\n      dup1\n      iszero\n      tag_1\n      jumpi\n      0x00\n      dup1\n      revert\n    tag_1:\n      pop\n      jumpi(tag_2, lt(calldatasize, 0x04))\n      shr(0xe0, calldataload(0x00))\n      dup1\n      0x0e031ab1\n      eq\n      tag_3\n      jumpi\n      dup1\n      0x0f96cf34\n      eq\n      tag_4\n      jumpi\n      dup1\n      0x1dda6541\n      eq\n      tag_5\n      jumpi\n      dup1\n      0x6efafab3\n      eq\n      tag_6\n      jumpi\n      dup1\n      0xec2b45ae\n      eq\n      tag_7\n      jumpi\n    tag_2:\n      0x00\n      dup1\n      revert\n        /* \"MyWorkspace/StorageFactory.sol\":127:162  SimpleStorage[] public storageArray */\n    tag_3:\n      tag_8\n      0x04\n      dup1\n      calldatasize\n      sub\n      dup2\n      add\n      swap1\n      tag_9\n      swap2\n      swap1\n      tag_10\n      jump\t// in\n    tag_9:\n      tag_11\n      jump\t// in\n    tag_8:\n      mload(0x40)\n      tag_12\n      swap2\n      swap1\n      tag_13\n      jump\t// in\n    tag_12:\n      mload(0x40)\n      dup1\n      swap2\n      sub\n      swap1\n      return\n        /* \"MyWorkspace/StorageFactory.sol\":169:198  address[] public addressArray */\n    tag_4:\n      tag_14\n      0x04\n      dup1\n      calldatasize\n      sub\n      dup2\n      add\n      swap1\n      tag_15\n      swap2\n      swap1\n      tag_10\n      jump\t// in\n    tag_15:\n      tag_16\n      jump\t// in\n    tag_14:\n      mload(0x40)\n      tag_17\n      swap2\n      swap1\n      tag_18\n      jump\t// in\n    tag_17:\n      mload(0x40)\n      dup1\n      swap2\n      sub\n      swap1\n      return\n        /* \"MyWorkspace/StorageFactory.sol\":207:407  function createSimpleStorageContract() public {... */\n    tag_5:\n      tag_19\n      tag_20\n      jump\t// in\n    tag_19:\n      stop\n        /* \"MyWorkspace/StorageFactory.sol\":486:699  function storeNumByIndex(uint256 _index, uint _num) public {... */\n    tag_6:\n      tag_21\n      0x04\n      dup1\n      calldatasize\n      sub\n      dup2\n      add\n      swap1\n      tag_22\n      swap2\n      swap1\n      tag_23\n      jump\t// in\n    tag_22:\n      tag_24\n      jump\t// in\n    tag_21:\n      stop\n        /* \"MyWorkspace/StorageFactory.sol\":707:937  function getNumByIndex(uint256 _index) public view returns(uint256) {... */\n    tag_7:\n      tag_25\n      0x04\n      dup1\n      calldatasize\n      sub\n      dup2\n      add\n      swap1\n      tag_26\n      swap2\n      swap1\n      tag_10\n      jump\t// in\n    tag_26:\n      tag_27\n      jump\t// in\n    tag_25:\n      mload(0x40)\n      tag_28\n      swap2\n      swap1\n      tag_29\n      jump\t// in\n    tag_28:\n      mload(0x40)\n      dup1\n      swap2\n      sub\n      swap1\n      return\n        /* \"MyWorkspace/StorageFactory.sol\":127:162  SimpleStorage[] public storageArray */\n    tag_11:\n      0x00\n      dup2\n      dup2\n      sload\n      dup2\n      lt\n      tag_30\n      jumpi\n      0x00\n      dup1\n      revert\n    tag_30:\n      swap1\n      0x00\n      mstore\n      keccak256(0x00, 0x20)\n      add\n      0x00\n      swap2\n      pop\n      sload\n      swap1\n      0x0100\n      exp\n      swap1\n      div\n      0xffffffffffffffffffffffffffffffffffffffff\n      and\n      dup2\n      jump\t// out\n        /* \"MyWorkspace/StorageFactory.sol\":169:198  address[] public addressArray */\n    tag_16:\n      0x01\n      dup2\n      dup2\n      sload\n      dup2\n      lt\n      tag_32\n      jumpi\n      0x00\n      dup1\n      revert\n    tag_32:\n      swap1\n      0x00\n      mstore\n      keccak256(0x00, 0x20)\n      add\n      0x00\n      swap2\n      pop\n      sload\n      swap1\n      0x0100\n      exp\n      swap1\n      div\n      0xffffffffffffffffffffffffffffffffffffffff\n      and\n      dup2\n      jump\t// out\n        /* \"MyWorkspace/StorageFactory.sol\":207:407  function createSimpleStorageContract() public {... */\n    tag_20:\n        /* \"MyWorkspace/StorageFactory.sol\":264:288  SimpleStorage newStorage */\n      0x00\n        /* \"MyWorkspace/StorageFactory.sol\":291:310  new SimpleStorage() */\n      mload(0x40)\n      tag_35\n      swap1\n      tag_36\n      jump\t// in\n    tag_35:\n      mload(0x40)\n      dup1\n      swap2\n      sub\n      swap1\n      0x00\n      create\n      dup1\n      iszero\n      dup1\n      iszero\n      tag_37\n      jumpi\n      returndatasize\n      0x00\n      dup1\n      returndatacopy\n      revert(0x00, returndatasize)\n    tag_37:\n      pop\n        /* \"MyWorkspace/StorageFactory.sol\":264:310  SimpleStorage newStorage = new SimpleStorage() */\n      swap1\n      pop\n        /* \"MyWorkspace/StorageFactory.sol\":321:333  storageArray */\n      0x00\n        /* \"MyWorkspace/StorageFactory.sol\":339:349  newStorage */\n      dup2\n        /* \"MyWorkspace/StorageFactory.sol\":321:350  storageArray.push(newStorage) */\n      swap1\n      dup1\n      0x01\n      dup2\n      sload\n      add\n      dup1\n      dup3\n      sstore\n      dup1\n      swap2\n      pop\n      pop\n      0x01\n      swap1\n      sub\n      swap1\n      0x00\n      mstore\n      keccak256(0x00, 0x20)\n      add\n      0x00\n      swap1\n      swap2\n      swap1\n      swap2\n      swap1\n      swap2\n      0x0100\n      exp\n      dup2\n      sload\n      dup2\n      0xffffffffffffffffffffffffffffffffffffffff\n      mul\n      not\n      and\n      swap1\n      dup4\n      0xffffffffffffffffffffffffffffffffffffffff\n      and\n      mul\n      or\n      swap1\n      sstore\n      pop\n        /* \"MyWorkspace/StorageFactory.sol\":361:373  addressArray */\n      0x01\n        /* \"MyWorkspace/StorageFactory.sol\":387:397  newStorage */\n      dup2\n        /* \"MyWorkspace/StorageFactory.sol\":361:399  addressArray.push(address(newStorage)) */\n      swap1\n      dup1\n      0x01\n      dup2\n      sload\n      add\n      dup1\n      dup3\n      sstore\n      dup1\n      swap2\n      pop\n      pop\n      0x01\n      swap1\n      sub\n      swap1\n      0x00\n      mstore\n      keccak256(0x00, 0x20)\n      add\n      0x00\n      swap1\n      swap2\n      swap1\n      swap2\n      swap1\n      swap2\n      0x0100\n      exp\n      dup2\n      sload\n      dup2\n      0xffffffffffffffffffffffffffffffffffffffff\n      mul\n      not\n      and\n      swap1\n      dup4\n      0xffffffffffffffffffffffffffffffffffffffff\n      and\n      mul\n      or\n      swap1\n      sstore\n      pop\n        /* \"MyWorkspace/StorageFactory.sol\":253:407  {... */\n      pop\n        /* \"MyWorkspace/StorageFactory.sol\":207:407  function createSimpleStorageContract() public {... */\n      jump\t// out\n        /* \"MyWorkspace/StorageFactory.sol\":486:699  function storeNumByIndex(uint256 _index, uint _num) public {... */\n    tag_24:\n        /* \"MyWorkspace/StorageFactory.sol\":602:629  SimpleStorage simpleStorage */\n      0x00\n        /* \"MyWorkspace/StorageFactory.sol\":632:644  storageArray */\n      dup1\n        /* \"MyWorkspace/StorageFactory.sol\":645:651  _index */\n      dup4\n        /* \"MyWorkspace/StorageFactory.sol\":632:652  storageArray[_index] */\n      dup2\n      sload\n      dup2\n      lt\n      tag_41\n      jumpi\n      tag_42\n      tag_43\n      jump\t// in\n    tag_42:\n    tag_41:\n      swap1\n      0x00\n      mstore\n      keccak256(0x00, 0x20)\n      add\n      0x00\n      swap1\n      sload\n      swap1\n      0x0100\n      exp\n      swap1\n      div\n      0xffffffffffffffffffffffffffffffffffffffff\n      and\n        /* \"MyWorkspace/StorageFactory.sol\":602:652  SimpleStorage simpleStorage = storageArray[_index] */\n      swap1\n      pop\n        /* \"MyWorkspace/StorageFactory.sol\":663:676  simpleStorage */\n      dup1\n        /* \"MyWorkspace/StorageFactory.sol\":663:685  simpleStorage.storeNum */\n      0xffffffffffffffffffffffffffffffffffffffff\n      and\n      0x9a67c8b1\n        /* \"MyWorkspace/StorageFactory.sol\":686:690  _num */\n      dup4\n        /* \"MyWorkspace/StorageFactory.sol\":663:691  simpleStorage.storeNum(_num) */\n      mload(0x40)\n      dup3\n      0xffffffff\n      and\n      0xe0\n      shl\n      dup2\n      mstore\n      0x04\n      add\n      tag_45\n      swap2\n      swap1\n      tag_29\n      jump\t// in\n    tag_45:\n      0x00\n      mload(0x40)\n      dup1\n      dup4\n      sub\n      dup2\n      0x00\n      dup8\n      dup1\n      extcodesize\n      iszero\n      dup1\n      iszero\n      tag_46\n      jumpi\n      0x00\n      dup1\n      revert\n    tag_46:\n      pop\n      gas\n      call\n      iszero\n      dup1\n      iszero\n      tag_48\n      jumpi\n      returndatasize\n      0x00\n      dup1\n      returndatacopy\n      revert(0x00, returndatasize)\n    tag_48:\n      pop\n      pop\n      pop\n      pop\n        /* \"MyWorkspace/StorageFactory.sol\":545:699  {... */\n      pop\n        /* \"MyWorkspace/StorageFactory.sol\":486:699  function storeNumByIndex(uint256 _index, uint _num) public {... */\n      pop\n      pop\n      jump\t// out\n        /* \"MyWorkspace/StorageFactory.sol\":707:937  function getNumByIndex(uint256 _index) public view returns(uint256) {... */\n    tag_27:\n        /* \"MyWorkspace/StorageFactory.sol\":766:773  uint256 */\n      0x00\n        /* \"MyWorkspace/StorageFactory.sol\":900:912  storageArray */\n      dup1\n        /* \"MyWorkspace/StorageFactory.sol\":913:919  _index */\n      dup3\n        /* \"MyWorkspace/StorageFactory.sol\":900:920  storageArray[_index] */\n      dup2\n      sload\n      dup2\n      lt\n      tag_50\n      jumpi\n      tag_51\n      tag_43\n      jump\t// in\n    tag_51:\n    tag_50:\n      swap1\n      0x00\n      mstore\n      keccak256(0x00, 0x20)\n      add\n      0x00\n      swap1\n      sload\n      swap1\n      0x0100\n      exp\n      swap1\n      div\n      0xffffffffffffffffffffffffffffffffffffffff\n      and\n        /* \"MyWorkspace/StorageFactory.sol\":900:927  storageArray[_index].getNum */\n      0xffffffffffffffffffffffffffffffffffffffff\n      and\n      0x67e0badb\n        /* \"MyWorkspace/StorageFactory.sol\":900:929  storageArray[_index].getNum() */\n      mload(0x40)\n      dup2\n      0xffffffff\n      and\n      0xe0\n      shl\n      dup2\n      mstore\n      0x04\n      add\n      0x20\n      mload(0x40)\n      dup1\n      dup4\n      sub\n      dup2\n      dup7\n      gas\n      staticcall\n      iszero\n      dup1\n      iszero\n      tag_54\n      jumpi\n      returndatasize\n      0x00\n      dup1\n      returndatacopy\n      revert(0x00, returndatasize)\n    tag_54:\n      pop\n      pop\n      pop\n      pop\n      mload(0x40)\n      returndatasize\n      not(0x1f)\n      0x1f\n      dup3\n      add\n      and\n      dup3\n      add\n      dup1\n      0x40\n      mstore\n      pop\n      dup2\n      add\n      swap1\n      tag_55\n      swap2\n      swap1\n      tag_56\n      jump\t// in\n    tag_55:\n        /* \"MyWorkspace/StorageFactory.sol\":893:929  return storageArray[_index].getNum() */\n      swap1\n      pop\n        /* \"MyWorkspace/StorageFactory.sol\":707:937  function getNumByIndex(uint256 _index) public view returns(uint256) {... */\n      swap2\n      swap1\n      pop\n      jump\t// out\n    tag_36:\n      dataSize(sub_0)\n      dup1\n      dataOffset(sub_0)\n      dup4\n      codecopy\n      add\n      swap1\n      jump\t// out\n        /* \"#utility.yul\":88:205   */\n    tag_58:\n        /* \"#utility.yul\":197:198   */\n      0x00\n        /* \"#utility.yul\":194:195   */\n      dup1\n        /* \"#utility.yul\":187:199   */\n      revert\n        /* \"#utility.yul\":334:411   */\n    tag_60:\n        /* \"#utility.yul\":371:378   */\n      0x00\n        /* \"#utility.yul\":400:405   */\n      dup2\n        /* \"#utility.yul\":389:405   */\n      swap1\n      pop\n        /* \"#utility.yul\":334:411   */\n      swap2\n      swap1\n      pop\n      jump\t// out\n        /* \"#utility.yul\":417:539   */\n    tag_61:\n        /* \"#utility.yul\":490:514   */\n      tag_79\n        /* \"#utility.yul\":508:513   */\n      dup2\n        /* \"#utility.yul\":490:514   */\n      tag_60\n      jump\t// in\n    tag_79:\n        /* \"#utility.yul\":483:488   */\n      dup2\n        /* \"#utility.yul\":480:515   */\n      eq\n        /* \"#utility.yul\":470:533   */\n      tag_80\n      jumpi\n        /* \"#utility.yul\":529:530   */\n      0x00\n        /* \"#utility.yul\":526:527   */\n      dup1\n        /* \"#utility.yul\":519:531   */\n      revert\n        /* \"#utility.yul\":470:533   */\n    tag_80:\n        /* \"#utility.yul\":417:539   */\n      pop\n      jump\t// out\n        /* \"#utility.yul\":545:684   */\n    tag_62:\n        /* \"#utility.yul\":591:596   */\n      0x00\n        /* \"#utility.yul\":629:635   */\n      dup2\n        /* \"#utility.yul\":616:636   */\n      calldataload\n        /* \"#utility.yul\":607:636   */\n      swap1\n      pop\n        /* \"#utility.yul\":645:678   */\n      tag_82\n        /* \"#utility.yul\":672:677   */\n      dup2\n        /* \"#utility.yul\":645:678   */\n      tag_61\n      jump\t// in\n    tag_82:\n        /* \"#utility.yul\":545:684   */\n      swap3\n      swap2\n      pop\n      pop\n      jump\t// out\n        /* \"#utility.yul\":690:1019   */\n    tag_10:\n        /* \"#utility.yul\":749:755   */\n      0x00\n        /* \"#utility.yul\":798:800   */\n      0x20\n        /* \"#utility.yul\":786:795   */\n      dup3\n        /* \"#utility.yul\":777:784   */\n      dup5\n        /* \"#utility.yul\":773:796   */\n      sub\n        /* \"#utility.yul\":769:801   */\n      slt\n        /* \"#utility.yul\":766:885   */\n      iszero\n      tag_84\n      jumpi\n        /* \"#utility.yul\":804:883   */\n      tag_85\n      tag_58\n      jump\t// in\n    tag_85:\n        /* \"#utility.yul\":766:885   */\n    tag_84:\n        /* \"#utility.yul\":924:925   */\n      0x00\n        /* \"#utility.yul\":949:1002   */\n      tag_86\n        /* \"#utility.yul\":994:1001   */\n      dup5\n        /* \"#utility.yul\":985:991   */\n      dup3\n        /* \"#utility.yul\":974:983   */\n      dup6\n        /* \"#utility.yul\":970:992   */\n      add\n        /* \"#utility.yul\":949:1002   */\n      tag_62\n      jump\t// in\n    tag_86:\n        /* \"#utility.yul\":939:1002   */\n      swap2\n      pop\n        /* \"#utility.yul\":895:1012   */\n      pop\n        /* \"#utility.yul\":690:1019   */\n      swap3\n      swap2\n      pop\n      pop\n      jump\t// out\n        /* \"#utility.yul\":1025:1151   */\n    tag_63:\n        /* \"#utility.yul\":1062:1069   */\n      0x00\n        /* \"#utility.yul\":1102:1144   */\n      0xffffffffffffffffffffffffffffffffffffffff\n        /* \"#utility.yul\":1095:1100   */\n      dup3\n        /* \"#utility.yul\":1091:1145   */\n      and\n        /* \"#utility.yul\":1080:1145   */\n      swap1\n      pop\n        /* \"#utility.yul\":1025:1151   */\n      swap2\n      swap1\n      pop\n      jump\t// out\n        /* \"#utility.yul\":1157:1217   */\n    tag_64:\n        /* \"#utility.yul\":1185:1188   */\n      0x00\n        /* \"#utility.yul\":1206:1211   */\n      dup2\n        /* \"#utility.yul\":1199:1211   */\n      swap1\n      pop\n        /* \"#utility.yul\":1157:1217   */\n      swap2\n      swap1\n      pop\n      jump\t// out\n        /* \"#utility.yul\":1223:1365   */\n    tag_65:\n        /* \"#utility.yul\":1273:1282   */\n      0x00\n        /* \"#utility.yul\":1306:1359   */\n      tag_90\n        /* \"#utility.yul\":1324:1358   */\n      tag_91\n        /* \"#utility.yul\":1333:1357   */\n      tag_92\n        /* \"#utility.yul\":1351:1356   */\n      dup5\n        /* \"#utility.yul\":1333:1357   */\n      tag_63\n      jump\t// in\n    tag_92:\n        /* \"#utility.yul\":1324:1358   */\n      tag_64\n      jump\t// in\n    tag_91:\n        /* \"#utility.yul\":1306:1359   */\n      tag_63\n      jump\t// in\n    tag_90:\n        /* \"#utility.yul\":1293:1359   */\n      swap1\n      pop\n        /* \"#utility.yul\":1223:1365   */\n      swap2\n      swap1\n      pop\n      jump\t// out\n        /* \"#utility.yul\":1371:1497   */\n    tag_66:\n        /* \"#utility.yul\":1421:1430   */\n      0x00\n        /* \"#utility.yul\":1454:1491   */\n      tag_94\n        /* \"#utility.yul\":1485:1490   */\n      dup3\n        /* \"#utility.yul\":1454:1491   */\n      tag_65\n      jump\t// in\n    tag_94:\n        /* \"#utility.yul\":1441:1491   */\n      swap1\n      pop\n        /* \"#utility.yul\":1371:1497   */\n      swap2\n      swap1\n      pop\n      jump\t// out\n        /* \"#utility.yul\":1503:1649   */\n    tag_67:\n        /* \"#utility.yul\":1573:1582   */\n      0x00\n        /* \"#utility.yul\":1606:1643   */\n      tag_96\n        /* \"#utility.yul\":1637:1642   */\n      dup3\n        /* \"#utility.yul\":1606:1643   */\n      tag_66\n      jump\t// in\n    tag_96:\n        /* \"#utility.yul\":1593:1643   */\n      swap1\n      pop\n        /* \"#utility.yul\":1503:1649   */\n      swap2\n      swap1\n      pop\n      jump\t// out\n        /* \"#utility.yul\":1655:1826   */\n    tag_68:\n        /* \"#utility.yul\":1762:1819   */\n      tag_98\n        /* \"#utility.yul\":1813:1818   */\n      dup2\n        /* \"#utility.yul\":1762:1819   */\n      tag_67\n      jump\t// in\n    tag_98:\n        /* \"#utility.yul\":1757:1760   */\n      dup3\n        /* \"#utility.yul\":1750:1820   */\n      mstore\n        /* \"#utility.yul\":1655:1826   */\n      pop\n      pop\n      jump\t// out\n        /* \"#utility.yul\":1832:2094   */\n    tag_13:\n        /* \"#utility.yul\":1945:1949   */\n      0x00\n        /* \"#utility.yul\":1983:1985   */\n      0x20\n        /* \"#utility.yul\":1972:1981   */\n      dup3\n        /* \"#utility.yul\":1968:1986   */\n      add\n        /* \"#utility.yul\":1960:1986   */\n      swap1\n      pop\n        /* \"#utility.yul\":1996:2087   */\n      tag_100\n        /* \"#utility.yul\":2084:2085   */\n      0x00\n        /* \"#utility.yul\":2073:2082   */\n      dup4\n        /* \"#utility.yul\":2069:2086   */\n      add\n        /* \"#utility.yul\":2060:2066   */\n      dup5\n        /* \"#utility.yul\":1996:2087   */\n      tag_68\n      jump\t// in\n    tag_100:\n        /* \"#utility.yul\":1832:2094   */\n      swap3\n      swap2\n      pop\n      pop\n      jump\t// out\n        /* \"#utility.yul\":2100:2196   */\n    tag_69:\n        /* \"#utility.yul\":2137:2144   */\n      0x00\n        /* \"#utility.yul\":2166:2190   */\n      tag_102\n        /* \"#utility.yul\":2184:2189   */\n      dup3\n        /* \"#utility.yul\":2166:2190   */\n      tag_63\n      jump\t// in\n    tag_102:\n        /* \"#utility.yul\":2155:2190   */\n      swap1\n      pop\n        /* \"#utility.yul\":2100:2196   */\n      swap2\n      swap1\n      pop\n      jump\t// out\n        /* \"#utility.yul\":2202:2320   */\n    tag_70:\n        /* \"#utility.yul\":2289:2313   */\n      tag_104\n        /* \"#utility.yul\":2307:2312   */\n      dup2\n        /* \"#utility.yul\":2289:2313   */\n      tag_69\n      jump\t// in\n    tag_104:\n        /* \"#utility.yul\":2284:2287   */\n      dup3\n        /* \"#utility.yul\":2277:2314   */\n      mstore\n        /* \"#utility.yul\":2202:2320   */\n      pop\n      pop\n      jump\t// out\n        /* \"#utility.yul\":2326:2548   */\n    tag_18:\n        /* \"#utility.yul\":2419:2423   */\n      0x00\n        /* \"#utility.yul\":2457:2459   */\n      0x20\n        /* \"#utility.yul\":2446:2455   */\n      dup3\n        /* \"#utility.yul\":2442:2460   */\n      add\n        /* \"#utility.yul\":2434:2460   */\n      swap1\n      pop\n        /* \"#utility.yul\":2470:2541   */\n      tag_106\n        /* \"#utility.yul\":2538:2539   */\n      0x00\n        /* \"#utility.yul\":2527:2536   */\n      dup4\n        /* \"#utility.yul\":2523:2540   */\n      add\n        /* \"#utility.yul\":2514:2520   */\n      dup5\n        /* \"#utility.yul\":2470:2541   */\n      tag_70\n      jump\t// in\n    tag_106:\n        /* \"#utility.yul\":2326:2548   */\n      swap3\n      swap2\n      pop\n      pop\n      jump\t// out\n        /* \"#utility.yul\":2554:3028   */\n    tag_23:\n        /* \"#utility.yul\":2622:2628   */\n      0x00\n        /* \"#utility.yul\":2630:2636   */\n      dup1\n        /* \"#utility.yul\":2679:2681   */\n      0x40\n        /* \"#utility.yul\":2667:2676   */\n      dup4\n        /* \"#utility.yul\":2658:2665   */\n      dup6\n        /* \"#utility.yul\":2654:2677   */\n      sub\n        /* \"#utility.yul\":2650:2682   */\n      slt\n        /* \"#utility.yul\":2647:2766   */\n      iszero\n      tag_108\n      jumpi\n        /* \"#utility.yul\":2685:2764   */\n      tag_109\n      tag_58\n      jump\t// in\n    tag_109:\n        /* \"#utility.yul\":2647:2766   */\n    tag_108:\n        /* \"#utility.yul\":2805:2806   */\n      0x00\n        /* \"#utility.yul\":2830:2883   */\n      tag_110\n        /* \"#utility.yul\":2875:2882   */\n      dup6\n        /* \"#utility.yul\":2866:2872   */\n      dup3\n        /* \"#utility.yul\":2855:2864   */\n      dup7\n        /* \"#utility.yul\":2851:2873   */\n      add\n        /* \"#utility.yul\":2830:2883   */\n      tag_62\n      jump\t// in\n    tag_110:\n        /* \"#utility.yul\":2820:2883   */\n      swap3\n      pop\n        /* \"#utility.yul\":2776:2893   */\n      pop\n        /* \"#utility.yul\":2932:2934   */\n      0x20\n        /* \"#utility.yul\":2958:3011   */\n      tag_111\n        /* \"#utility.yul\":3003:3010   */\n      dup6\n        /* \"#utility.yul\":2994:3000   */\n      dup3\n        /* \"#utility.yul\":2983:2992   */\n      dup7\n        /* \"#utility.yul\":2979:3001   */\n      add\n        /* \"#utility.yul\":2958:3011   */\n      tag_62\n      jump\t// in\n    tag_111:\n        /* \"#utility.yul\":2948:3011   */\n      swap2\n      pop\n        /* \"#utility.yul\":2903:3021   */\n      pop\n        /* \"#utility.yul\":2554:3028   */\n      swap3\n      pop\n      swap3\n      swap1\n      pop\n      jump\t// out\n        /* \"#utility.yul\":3034:3152   */\n    tag_71:\n        /* \"#utility.yul\":3121:3145   */\n      tag_113\n        /* \"#utility.yul\":3139:3144   */\n      dup2\n        /* \"#utility.yul\":3121:3145   */\n      tag_60\n      jump\t// in\n    tag_113:\n        /* \"#utility.yul\":3116:3119   */\n      dup3\n        /* \"#utility.yul\":3109:3146   */\n      mstore\n        /* \"#utility.yul\":3034:3152   */\n      pop\n      pop\n      jump\t// out\n        /* \"#utility.yul\":3158:3380   */\n    tag_29:\n        /* \"#utility.yul\":3251:3255   */\n      0x00\n        /* \"#utility.yul\":3289:3291   */\n      0x20\n        /* \"#utility.yul\":3278:3287   */\n      dup3\n        /* \"#utility.yul\":3274:3292   */\n      add\n        /* \"#utility.yul\":3266:3292   */\n      swap1\n      pop\n        /* \"#utility.yul\":3302:3373   */\n      tag_115\n        /* \"#utility.yul\":3370:3371   */\n      0x00\n        /* \"#utility.yul\":3359:3368   */\n      dup4\n        /* \"#utility.yul\":3355:3372   */\n      add\n        /* \"#utility.yul\":3346:3352   */\n      dup5\n        /* \"#utility.yul\":3302:3373   */\n      tag_71\n      jump\t// in\n    tag_115:\n        /* \"#utility.yul\":3158:3380   */\n      swap3\n      swap2\n      pop\n      pop\n      jump\t// out\n        /* \"#utility.yul\":3386:3566   */\n    tag_43:\n        /* \"#utility.yul\":3434:3511   */\n      0x4e487b7100000000000000000000000000000000000000000000000000000000\n        /* \"#utility.yul\":3431:3432   */\n      0x00\n        /* \"#utility.yul\":3424:3512   */\n      mstore\n        /* \"#utility.yul\":3531:3535   */\n      0x32\n        /* \"#utility.yul\":3528:3529   */\n      0x04\n        /* \"#utility.yul\":3521:3536   */\n      mstore\n        /* \"#utility.yul\":3555:3559   */\n      0x24\n        /* \"#utility.yul\":3552:3553   */\n      0x00\n        /* \"#utility.yul\":3545:3560   */\n      revert\n        /* \"#utility.yul\":3572:3715   */\n    tag_72:\n        /* \"#utility.yul\":3629:3634   */\n      0x00\n        /* \"#utility.yul\":3660:3666   */\n      dup2\n        /* \"#utility.yul\":3654:3667   */\n      mload\n        /* \"#utility.yul\":3645:3667   */\n      swap1\n      pop\n        /* \"#utility.yul\":3676:3709   */\n      tag_118\n        /* \"#utility.yul\":3703:3708   */\n      dup2\n        /* \"#utility.yul\":3676:3709   */\n      tag_61\n      jump\t// in\n    tag_118:\n        /* \"#utility.yul\":3572:3715   */\n      swap3\n      swap2\n      pop\n      pop\n      jump\t// out\n        /* \"#utility.yul\":3721:4072   */\n    tag_56:\n        /* \"#utility.yul\":3791:3797   */\n      0x00\n        /* \"#utility.yul\":3840:3842   */\n      0x20\n        /* \"#utility.yul\":3828:3837   */\n      dup3\n        /* \"#utility.yul\":3819:3826   */\n      dup5\n        /* \"#utility.yul\":3815:3838   */\n      sub\n        /* \"#utility.yul\":3811:3843   */\n      slt\n        /* \"#utility.yul\":3808:3927   */\n      iszero\n      tag_120\n      jumpi\n        /* \"#utility.yul\":3846:3925   */\n      tag_121\n      tag_58\n      jump\t// in\n    tag_121:\n        /* \"#utility.yul\":3808:3927   */\n    tag_120:\n        /* \"#utility.yul\":3966:3967   */\n      0x00\n        /* \"#utility.yul\":3991:4055   */\n      tag_122\n        /* \"#utility.yul\":4047:4054   */\n      dup5\n        /* \"#utility.yul\":4038:4044   */\n      dup3\n        /* \"#utility.yul\":4027:4036   */\n      dup6\n        /* \"#utility.yul\":4023:4045   */\n      add\n        /* \"#utility.yul\":3991:4055   */\n      tag_72\n      jump\t// in\n    tag_122:\n        /* \"#utility.yul\":3981:4055   */\n      swap2\n      pop\n        /* \"#utility.yul\":3937:4065   */\n      pop\n        /* \"#utility.yul\":3721:4072   */\n      swap3\n      swap2\n      pop\n      pop\n      jump\t// out\n    stop\n\n    sub_0: assembly {\n            /* \"MyWorkspace/SimpleStorage.sol\":318:2601  contract SimpleStorage{... */\n          mstore(0x40, 0x80)\n            /* \"MyWorkspace/SimpleStorage.sol\":496:500  true */\n          0x01\n            /* \"MyWorkspace/SimpleStorage.sol\":471:500  bool hasFavouriteNumer = true */\n          0x00\n          dup1\n          0x0100\n          exp\n          dup2\n          sload\n          dup2\n          0xff\n          mul\n          not\n          and\n          swap1\n          dup4\n          iszero\n          iszero\n          mul\n          or\n          swap1\n          sstore\n          pop\n            /* \"MyWorkspace/SimpleStorage.sol\":531:535  -100 */\n          0xffffffffffffffffffffffffffffffffffffffffffffffffffffffffffffff9c\n            /* \"MyWorkspace/SimpleStorage.sol\":507:535  int8 favouriteNumber2 = -100 */\n          0x00\n          exp(0x0100, 0x01)\n          dup2\n          sload\n          dup2\n          0xff\n          mul\n          not\n          and\n          swap1\n          dup4\n          0x00\n          signextend\n          0xff\n          and\n          mul\n          or\n          swap1\n          sstore\n          pop\n            /* \"MyWorkspace/SimpleStorage.sol\":559:595  string favouriteNumberInText = \"ten\" */\n          mload(0x40)\n          dup1\n          0x40\n          add\n          0x40\n          mstore\n          dup1\n          0x03\n          dup2\n          mstore\n          0x20\n          add\n          0x74656e0000000000000000000000000000000000000000000000000000000000\n          dup2\n          mstore\n          pop\n          0x01\n          swap1\n          dup2\n          tag_1\n          swap2\n          swap1\n          tag_2\n          jump\t// in\n        tag_1:\n          pop\n            /* \"MyWorkspace/SimpleStorage.sol\":622:664  0xD0c47728Dc490a4485709CA76F12d23cf842AA87 */\n          0xd0c47728dc490a4485709ca76f12d23cf842aa87\n            /* \"MyWorkspace/SimpleStorage.sol\":602:664  address myAddress = 0xD0c47728Dc490a4485709CA76F12d23cf842AA87 */\n          0x02\n          exp(0x0100, 0x00)\n          dup2\n          sload\n          dup2\n          0xffffffffffffffffffffffffffffffffffffffff\n          mul\n          not\n          and\n          swap1\n          dup4\n          0xffffffffffffffffffffffffffffffffffffffff\n          and\n          mul\n          or\n          swap1\n          sstore\n          pop\n            /* \"MyWorkspace/SimpleStorage.sol\":671:694  bytes32 myBytes = \"cat\" */\n          sstore(0x03, 0x6361740000000000000000000000000000000000000000000000000000000000)\n            /* \"MyWorkspace/SimpleStorage.sol\":875:891  People(2,\"nick\") */\n          mload(0x40)\n          dup1\n          0x40\n          add\n          0x40\n          mstore\n          dup1\n            /* \"MyWorkspace/SimpleStorage.sol\":882:883  2 */\n          0x02\n            /* \"MyWorkspace/SimpleStorage.sol\":875:891  People(2,\"nick\") */\n          dup2\n          mstore\n          0x20\n          add\n          mload(0x40)\n          dup1\n          0x40\n          add\n          0x40\n          mstore\n          dup1\n          0x04\n          dup2\n          mstore\n          0x20\n          add\n          0x6e69636b00000000000000000000000000000000000000000000000000000000\n          dup2\n          mstore\n          pop\n          dup2\n          mstore\n          pop\n            /* \"MyWorkspace/SimpleStorage.sol\":859:891  People person = People(2,\"nick\") */\n          0x05\n          0x00\n          dup3\n          add\n          mload\n          dup2\n          0x00\n          add\n          sstore\n          0x20\n          dup3\n          add\n          mload\n          dup2\n          0x01\n          add\n          swap1\n          dup2\n          tag_3\n          swap2\n          swap1\n          tag_2\n          jump\t// in\n        tag_3:\n          pop\n          pop\n          pop\n            /* \"MyWorkspace/SimpleStorage.sol\":318:2601  contract SimpleStorage{... */\n          callvalue\n          dup1\n          iszero\n          tag_4\n          jumpi\n          0x00\n          dup1\n          revert\n        tag_4:\n          pop\n          jump(tag_5)\n            /* \"#utility.yul\":7:106   */\n        tag_6:\n            /* \"#utility.yul\":59:65   */\n          0x00\n            /* \"#utility.yul\":93:98   */\n          dup2\n            /* \"#utility.yul\":87:99   */\n          mload\n            /* \"#utility.yul\":77:99   */\n          swap1\n          pop\n            /* \"#utility.yul\":7:106   */\n          swap2\n          swap1\n          pop\n          jump\t// out\n            /* \"#utility.yul\":112:292   */\n        tag_7:\n            /* \"#utility.yul\":160:237   */\n          0x4e487b7100000000000000000000000000000000000000000000000000000000\n            /* \"#utility.yul\":157:158   */\n          0x00\n            /* \"#utility.yul\":150:238   */\n          mstore\n            /* \"#utility.yul\":257:261   */\n          0x41\n            /* \"#utility.yul\":254:255   */\n          0x04\n            /* \"#utility.yul\":247:262   */\n          mstore\n            /* \"#utility.yul\":281:285   */\n          0x24\n            /* \"#utility.yul\":278:279   */\n          0x00\n            /* \"#utility.yul\":271:286   */\n          revert\n            /* \"#utility.yul\":298:478   */\n        tag_8:\n            /* \"#utility.yul\":346:423   */\n          0x4e487b7100000000000000000000000000000000000000000000000000000000\n            /* \"#utility.yul\":343:344   */\n          0x00\n            /* \"#utility.yul\":336:424   */\n          mstore\n            /* \"#utility.yul\":443:447   */\n          0x22\n            /* \"#utility.yul\":440:441   */\n          0x04\n            /* \"#utility.yul\":433:448   */\n          mstore\n            /* \"#utility.yul\":467:471   */\n          0x24\n            /* \"#utility.yul\":464:465   */\n          0x00\n            /* \"#utility.yul\":457:472   */\n          revert\n            /* \"#utility.yul\":484:804   */\n        tag_9:\n            /* \"#utility.yul\":528:534   */\n          0x00\n            /* \"#utility.yul\":565:566   */\n          0x02\n            /* \"#utility.yul\":559:563   */\n          dup3\n            /* \"#utility.yul\":555:567   */\n          div\n            /* \"#utility.yul\":545:567   */\n          swap1\n          pop\n            /* \"#utility.yul\":612:613   */\n          0x01\n            /* \"#utility.yul\":606:610   */\n          dup3\n            /* \"#utility.yul\":602:614   */\n          and\n            /* \"#utility.yul\":633:651   */\n          dup1\n            /* \"#utility.yul\":623:704   */\n          tag_31\n          jumpi\n            /* \"#utility.yul\":689:693   */\n          0x7f\n            /* \"#utility.yul\":681:687   */\n          dup3\n            /* \"#utility.yul\":677:694   */\n          and\n            /* \"#utility.yul\":667:694   */\n          swap2\n          pop\n            /* \"#utility.yul\":623:704   */\n        tag_31:\n            /* \"#utility.yul\":751:753   */\n          0x20\n            /* \"#utility.yul\":743:749   */\n          dup3\n            /* \"#utility.yul\":740:754   */\n          lt\n            /* \"#utility.yul\":720:738   */\n          dup2\n            /* \"#utility.yul\":717:755   */\n          sub\n            /* \"#utility.yul\":714:798   */\n          tag_32\n          jumpi\n            /* \"#utility.yul\":770:788   */\n          tag_33\n          tag_8\n          jump\t// in\n        tag_33:\n            /* \"#utility.yul\":714:798   */\n        tag_32:\n            /* \"#utility.yul\":535:804   */\n          pop\n            /* \"#utility.yul\":484:804   */\n          swap2\n          swap1\n          pop\n          jump\t// out\n            /* \"#utility.yul\":810:951   */\n        tag_10:\n            /* \"#utility.yul\":859:863   */\n          0x00\n            /* \"#utility.yul\":882:885   */\n          dup2\n            /* \"#utility.yul\":874:885   */\n          swap1\n          pop\n            /* \"#utility.yul\":905:908   */\n          dup2\n            /* \"#utility.yul\":902:903   */\n          0x00\n            /* \"#utility.yul\":895:909   */\n          mstore\n            /* \"#utility.yul\":939:943   */\n          0x20\n            /* \"#utility.yul\":936:937   */\n          0x00\n            /* \"#utility.yul\":926:944   */\n          keccak256\n            /* \"#utility.yul\":918:944   */\n          swap1\n          pop\n            /* \"#utility.yul\":810:951   */\n          swap2\n          swap1\n          pop\n          jump\t// out\n            /* \"#utility.yul\":957:1050   */\n        tag_11:\n            /* \"#utility.yul\":994:1000   */\n          0x00\n            /* \"#utility.yul\":1041:1043   */\n          0x20\n            /* \"#utility.yul\":1036:1038   */\n          0x1f\n            /* \"#utility.yul\":1029:1034   */\n          dup4\n            /* \"#utility.yul\":1025:1039   */\n          add\n            /* \"#utility.yul\":1021:1044   */\n          div\n            /* \"#utility.yul\":1011:1044   */\n          swap1\n          pop\n            /* \"#utility.yul\":957:1050   */\n          swap2\n          swap1\n          pop\n          jump\t// out\n            /* \"#utility.yul\":1056:1163   */\n        tag_12:\n            /* \"#utility.yul\":1100:1108   */\n          0x00\n            /* \"#utility.yul\":1150:1155   */\n          dup3\n            /* \"#utility.yul\":1144:1148   */\n          dup3\n            /* \"#utility.yul\":1140:1156   */\n          shl\n            /* \"#utility.yul\":1119:1156   */\n          swap1\n          pop\n            /* \"#utility.yul\":1056:1163   */\n          swap3\n          swap2\n          pop\n          pop\n          jump\t// out\n            /* \"#utility.yul\":1169:1562   */\n        tag_13:\n            /* \"#utility.yul\":1238:1244   */\n          0x00\n            /* \"#utility.yul\":1288:1289   */\n          0x08\n            /* \"#utility.yul\":1276:1286   */\n          dup4\n            /* \"#utility.yul\":1272:1290   */\n          mul\n            /* \"#utility.yul\":1311:1408   */\n          tag_38\n            /* \"#utility.yul\":1341:1407   */\n          0xffffffffffffffffffffffffffffffffffffffffffffffffffffffffffffffff\n            /* \"#utility.yul\":1330:1339   */\n          dup3\n            /* \"#utility.yul\":1311:1408   */\n          tag_12\n          jump\t// in\n        tag_38:\n            /* \"#utility.yul\":1429:1468   */\n          tag_39\n            /* \"#utility.yul\":1459:1467   */\n          dup7\n            /* \"#utility.yul\":1448:1457   */\n          dup4\n            /* \"#utility.yul\":1429:1468   */\n          tag_12\n          jump\t// in\n        tag_39:\n            /* \"#utility.yul\":1417:1468   */\n          swap6\n          pop\n            /* \"#utility.yul\":1501:1505   */\n          dup1\n            /* \"#utility.yul\":1497:1506   */\n          not\n            /* \"#utility.yul\":1490:1495   */\n          dup5\n            /* \"#utility.yul\":1486:1507   */\n          and\n            /* \"#utility.yul\":1477:1507   */\n          swap4\n          pop\n            /* \"#utility.yul\":1550:1554   */\n          dup1\n            /* \"#utility.yul\":1540:1548   */\n          dup7\n            /* \"#utility.yul\":1536:1555   */\n          and\n            /* \"#utility.yul\":1529:1534   */\n          dup5\n            /* \"#utility.yul\":1526:1556   */\n          or\n            /* \"#utility.yul\":1516:1556   */\n          swap3\n          pop\n            /* \"#utility.yul\":1245:1562   */\n          pop\n          pop\n            /* \"#utility.yul\":1169:1562   */\n          swap4\n          swap3\n          pop\n          pop\n          pop\n          jump\t// out\n            /* \"#utility.yul\":1568:1645   */\n        tag_14:\n            /* \"#utility.yul\":1605:1612   */\n          0x00\n            /* \"#utility.yul\":1634:1639   */\n          dup2\n            /* \"#utility.yul\":1623:1639   */\n          swap1\n          pop\n            /* \"#utility.yul\":1568:1645   */\n          swap2\n          swap1\n          pop\n          jump\t// out\n            /* \"#utility.yul\":1651:1711   */\n        tag_15:\n            /* \"#utility.yul\":1679:1682   */\n          0x00\n            /* \"#utility.yul\":1700:1705   */\n          dup2\n            /* \"#utility.yul\":1693:1705   */\n          swap1\n          pop\n            /* \"#utility.yul\":1651:1711   */\n          swap2\n          swap1\n          pop\n          jump\t// out\n            /* \"#utility.yul\":1717:1859   */\n        tag_16:\n            /* \"#utility.yul\":1767:1776   */\n          0x00\n            /* \"#utility.yul\":1800:1853   */\n          tag_43\n            /* \"#utility.yul\":1818:1852   */\n          tag_44\n            /* \"#utility.yul\":1827:1851   */\n          tag_45\n            /* \"#utility.yul\":1845:1850   */\n          dup5\n            /* \"#utility.yul\":1827:1851   */\n          tag_14\n          jump\t// in\n        tag_45:\n            /* \"#utility.yul\":1818:1852   */\n          tag_15\n          jump\t// in\n        tag_44:\n            /* \"#utility.yul\":1800:1853   */\n          tag_14\n          jump\t// in\n        tag_43:\n            /* \"#utility.yul\":1787:1853   */\n          swap1\n          pop\n            /* \"#utility.yul\":1717:1859   */\n          swap2\n          swap1\n          pop\n          jump\t// out\n            /* \"#utility.yul\":1865:1940   */\n        tag_17:\n            /* \"#utility.yul\":1908:1911   */\n          0x00\n            /* \"#utility.yul\":1929:1934   */\n          dup2\n            /* \"#utility.yul\":1922:1934   */\n          swap1\n          pop\n            /* \"#utility.yul\":1865:1940   */\n          swap2\n          swap1\n          pop\n          jump\t// out\n            /* \"#utility.yul\":1946:2215   */\n        tag_18:\n            /* \"#utility.yul\":2056:2095   */\n          tag_48\n            /* \"#utility.yul\":2087:2094   */\n          dup4\n            /* \"#utility.yul\":2056:2095   */\n          tag_16\n          jump\t// in\n        tag_48:\n            /* \"#utility.yul\":2117:2208   */\n          tag_49\n            /* \"#utility.yul\":2166:2207   */\n          tag_50\n            /* \"#utility.yul\":2190:2206   */\n          dup3\n            /* \"#utility.yul\":2166:2207   */\n          tag_17\n          jump\t// in\n        tag_50:\n            /* \"#utility.yul\":2158:2164   */\n          dup5\n            /* \"#utility.yul\":2151:2155   */\n          dup5\n            /* \"#utility.yul\":2145:2156   */\n          sload\n            /* \"#utility.yul\":2117:2208   */\n          tag_13\n          jump\t// in\n        tag_49:\n            /* \"#utility.yul\":2111:2115   */\n          dup3\n            /* \"#utility.yul\":2104:2209   */\n          sstore\n            /* \"#utility.yul\":2022:2215   */\n          pop\n            /* \"#utility.yul\":1946:2215   */\n          pop\n          pop\n          pop\n          jump\t// out\n            /* \"#utility.yul\":2221:2294   */\n        tag_19:\n            /* \"#utility.yul\":2266:2269   */\n          0x00\n            /* \"#utility.yul\":2221:2294   */\n          swap1\n          jump\t// out\n            /* \"#utility.yul\":2300:2489   */\n        tag_20:\n            /* \"#utility.yul\":2377:2409   */\n          tag_53\n          tag_19\n          jump\t// in\n        tag_53:\n            /* \"#utility.yul\":2418:2483   */\n          tag_54\n            /* \"#utility.yul\":2476:2482   */\n          dup2\n            /* \"#utility.yul\":2468:2474   */\n          dup5\n            /* \"#utility.yul\":2462:2466   */\n          dup5\n            /* \"#utility.yul\":2418:2483   */\n          tag_18\n          jump\t// in\n        tag_54:\n            /* \"#utility.yul\":2353:2489   */\n          pop\n            /* \"#utility.yul\":2300:2489   */\n          pop\n          pop\n          jump\t// out\n            /* \"#utility.yul\":2495:2681   */\n        tag_21:\n            /* \"#utility.yul\":2555:2675   */\n        tag_56:\n            /* \"#utility.yul\":2572:2575   */\n          dup2\n            /* \"#utility.yul\":2565:2570   */\n          dup2\n            /* \"#utility.yul\":2562:2576   */\n          lt\n            /* \"#utility.yul\":2555:2675   */\n          iszero\n          tag_58\n          jumpi\n            /* \"#utility.yul\":2626:2665   */\n          tag_59\n            /* \"#utility.yul\":2663:2664   */\n          0x00\n            /* \"#utility.yul\":2656:2661   */\n          dup3\n            /* \"#utility.yul\":2626:2665   */\n          tag_20\n          jump\t// in\n        tag_59:\n            /* \"#utility.yul\":2599:2600   */\n          0x01\n            /* \"#utility.yul\":2592:2597   */\n          dup2\n            /* \"#utility.yul\":2588:2601   */\n          add\n            /* \"#utility.yul\":2579:2601   */\n          swap1\n          pop\n            /* \"#utility.yul\":2555:2675   */\n          jump(tag_56)\n        tag_58:\n            /* \"#utility.yul\":2495:2681   */\n          pop\n          pop\n          jump\t// out\n            /* \"#utility.yul\":2687:3230   */\n        tag_22:\n            /* \"#utility.yul\":2788:2790   */\n          0x1f\n            /* \"#utility.yul\":2783:2786   */\n          dup3\n            /* \"#utility.yul\":2780:2791   */\n          gt\n            /* \"#utility.yul\":2777:3223   */\n          iszero\n          tag_61\n          jumpi\n            /* \"#utility.yul\":2822:2860   */\n          tag_62\n            /* \"#utility.yul\":2854:2859   */\n          dup2\n            /* \"#utility.yul\":2822:2860   */\n          tag_10\n          jump\t// in\n        tag_62:\n            /* \"#utility.yul\":2906:2935   */\n          tag_63\n            /* \"#utility.yul\":2924:2934   */\n          dup5\n            /* \"#utility.yul\":2906:2935   */\n          tag_11\n          jump\t// in\n        tag_63:\n            /* \"#utility.yul\":2896:2904   */\n          dup2\n            /* \"#utility.yul\":2892:2936   */\n          add\n            /* \"#utility.yul\":3089:3091   */\n          0x20\n            /* \"#utility.yul\":3077:3087   */\n          dup6\n            /* \"#utility.yul\":3074:3092   */\n          lt\n            /* \"#utility.yul\":3071:3120   */\n          iszero\n          tag_64\n          jumpi\n            /* \"#utility.yul\":3110:3118   */\n          dup2\n            /* \"#utility.yul\":3095:3118   */\n          swap1\n          pop\n            /* \"#utility.yul\":3071:3120   */\n        tag_64:\n            /* \"#utility.yul\":3133:3213   */\n          tag_65\n            /* \"#utility.yul\":3189:3211   */\n          tag_66\n            /* \"#utility.yul\":3207:3210   */\n          dup6\n            /* \"#utility.yul\":3189:3211   */\n          tag_11\n          jump\t// in\n        tag_66:\n            /* \"#utility.yul\":3179:3187   */\n          dup4\n            /* \"#utility.yul\":3175:3212   */\n          add\n            /* \"#utility.yul\":3162:3173   */\n          dup3\n            /* \"#utility.yul\":3133:3213   */\n          tag_21\n          jump\t// in\n        tag_65:\n            /* \"#utility.yul\":2792:3223   */\n          pop\n          pop\n            /* \"#utility.yul\":2777:3223   */\n        tag_61:\n            /* \"#utility.yul\":2687:3230   */\n          pop\n          pop\n          pop\n          jump\t// out\n            /* \"#utility.yul\":3236:3353   */\n        tag_23:\n            /* \"#utility.yul\":3290:3298   */\n          0x00\n            /* \"#utility.yul\":3340:3345   */\n          dup3\n            /* \"#utility.yul\":3334:3338   */\n          dup3\n            /* \"#utility.yul\":3330:3346   */\n          shr\n            /* \"#utility.yul\":3309:3346   */\n          swap1\n          pop\n            /* \"#utility.yul\":3236:3353   */\n          swap3\n          swap2\n          pop\n          pop\n          jump\t// out\n            /* \"#utility.yul\":3359:3528   */\n        tag_24:\n            /* \"#utility.yul\":3403:3409   */\n          0x00\n            /* \"#utility.yul\":3436:3487   */\n          tag_69\n            /* \"#utility.yul\":3484:3485   */\n          0x00\n            /* \"#utility.yul\":3480:3486   */\n          not\n            /* \"#utility.yul\":3472:3477   */\n          dup5\n            /* \"#utility.yul\":3469:3470   */\n          0x08\n            /* \"#utility.yul\":3465:3478   */\n          mul\n            /* \"#utility.yul\":3436:3487   */\n          tag_23\n          jump\t// in\n        tag_69:\n            /* \"#utility.yul\":3432:3488   */\n          not\n            /* \"#utility.yul\":3517:3521   */\n          dup1\n            /* \"#utility.yul\":3511:3515   */\n          dup4\n            /* \"#utility.yul\":3507:3522   */\n          and\n            /* \"#utility.yul\":3497:3522   */\n          swap2\n          pop\n            /* \"#utility.yul\":3410:3528   */\n          pop\n            /* \"#utility.yul\":3359:3528   */\n          swap3\n          swap2\n          pop\n          pop\n          jump\t// out\n            /* \"#utility.yul\":3533:3828   */\n        tag_25:\n            /* \"#utility.yul\":3609:3613   */\n          0x00\n            /* \"#utility.yul\":3755:3784   */\n          tag_71\n            /* \"#utility.yul\":3780:3783   */\n          dup4\n            /* \"#utility.yul\":3774:3778   */\n          dup4\n            /* \"#utility.yul\":3755:3784   */\n          tag_24\n          jump\t// in\n        tag_71:\n            /* \"#utility.yul\":3747:3784   */\n          swap2\n          pop\n            /* \"#utility.yul\":3817:3820   */\n          dup3\n            /* \"#utility.yul\":3814:3815   */\n          0x02\n            /* \"#utility.yul\":3810:3821   */\n          mul\n            /* \"#utility.yul\":3804:3808   */\n          dup3\n            /* \"#utility.yul\":3801:3822   */\n          or\n            /* \"#utility.yul\":3793:3822   */\n          swap1\n          pop\n            /* \"#utility.yul\":3533:3828   */\n          swap3\n          swap2\n          pop\n          pop\n          jump\t// out\n            /* \"#utility.yul\":3833:5228   */\n        tag_2:\n            /* \"#utility.yul\":3950:3987   */\n          tag_73\n            /* \"#utility.yul\":3983:3986   */\n          dup3\n            /* \"#utility.yul\":3950:3987   */\n          tag_6\n          jump\t// in\n        tag_73:\n            /* \"#utility.yul\":4052:4070   */\n          0xffffffffffffffff\n            /* \"#utility.yul\":4044:4050   */\n          dup2\n            /* \"#utility.yul\":4041:4071   */\n          gt\n            /* \"#utility.yul\":4038:4094   */\n          iszero\n          tag_74\n          jumpi\n            /* \"#utility.yul\":4074:4092   */\n          tag_75\n          tag_7\n          jump\t// in\n        tag_75:\n            /* \"#utility.yul\":4038:4094   */\n        tag_74:\n            /* \"#utility.yul\":4118:4156   */\n          tag_76\n            /* \"#utility.yul\":4150:4154   */\n          dup3\n            /* \"#utility.yul\":4144:4155   */\n          sload\n            /* \"#utility.yul\":4118:4156   */\n          tag_9\n          jump\t// in\n        tag_76:\n            /* \"#utility.yul\":4203:4270   */\n          tag_77\n            /* \"#utility.yul\":4263:4269   */\n          dup3\n            /* \"#utility.yul\":4255:4261   */\n          dup3\n            /* \"#utility.yul\":4249:4253   */\n          dup6\n            /* \"#utility.yul\":4203:4270   */\n          tag_22\n          jump\t// in\n        tag_77:\n            /* \"#utility.yul\":4297:4298   */\n          0x00\n            /* \"#utility.yul\":4321:4325   */\n          0x20\n            /* \"#utility.yul\":4308:4325   */\n          swap1\n          pop\n            /* \"#utility.yul\":4353:4355   */\n          0x1f\n            /* \"#utility.yul\":4345:4351   */\n          dup4\n            /* \"#utility.yul\":4342:4356   */\n          gt\n            /* \"#utility.yul\":4370:4371   */\n          0x01\n            /* \"#utility.yul\":4365:4983   */\n          dup2\n          eq\n          tag_79\n          jumpi\n            /* \"#utility.yul\":5027:5028   */\n          0x00\n            /* \"#utility.yul\":5044:5050   */\n          dup5\n            /* \"#utility.yul\":5041:5118   */\n          iszero\n          tag_80\n          jumpi\n            /* \"#utility.yul\":5093:5102   */\n          dup3\n            /* \"#utility.yul\":5088:5091   */\n          dup8\n            /* \"#utility.yul\":5084:5103   */\n          add\n            /* \"#utility.yul\":5078:5104   */\n          mload\n            /* \"#utility.yul\":5069:5104   */\n          swap1\n          pop\n            /* \"#utility.yul\":5041:5118   */\n        tag_80:\n            /* \"#utility.yul\":5144:5211   */\n          tag_81\n            /* \"#utility.yul\":5204:5210   */\n          dup6\n            /* \"#utility.yul\":5197:5202   */\n          dup3\n            /* \"#utility.yul\":5144:5211   */\n          tag_25\n          jump\t// in\n        tag_81:\n            /* \"#utility.yul\":5138:5142   */\n          dup7\n            /* \"#utility.yul\":5131:5212   */\n          sstore\n            /* \"#utility.yul\":5000:5222   */\n          pop\n            /* \"#utility.yul\":4335:5222   */\n          jump(tag_78)\n            /* \"#utility.yul\":4365:4983   */\n        tag_79:\n            /* \"#utility.yul\":4417:4421   */\n          0x1f\n            /* \"#utility.yul\":4413:4422   */\n          not\n            /* \"#utility.yul\":4405:4411   */\n          dup5\n            /* \"#utility.yul\":4401:4423   */\n          and\n            /* \"#utility.yul\":4451:4488   */\n          tag_82\n            /* \"#utility.yul\":4483:4487   */\n          dup7\n            /* \"#utility.yul\":4451:4488   */\n          tag_10\n          jump\t// in\n        tag_82:\n            /* \"#utility.yul\":4510:4511   */\n          0x00\n            /* \"#utility.yul\":4524:4732   */\n        tag_83:\n            /* \"#utility.yul\":4538:4545   */\n          dup3\n            /* \"#utility.yul\":4535:4536   */\n          dup2\n            /* \"#utility.yul\":4532:4546   */\n          lt\n            /* \"#utility.yul\":4524:4732   */\n          iszero\n          tag_85\n          jumpi\n            /* \"#utility.yul\":4617:4626   */\n          dup5\n            /* \"#utility.yul\":4612:4615   */\n          dup10\n            /* \"#utility.yul\":4608:4627   */\n          add\n            /* \"#utility.yul\":4602:4628   */\n          mload\n            /* \"#utility.yul\":4594:4600   */\n          dup3\n            /* \"#utility.yul\":4587:4629   */\n          sstore\n            /* \"#utility.yul\":4668:4669   */\n          0x01\n            /* \"#utility.yul\":4660:4666   */\n          dup3\n            /* \"#utility.yul\":4656:4670   */\n          add\n            /* \"#utility.yul\":4646:4670   */\n          swap2\n          pop\n            /* \"#utility.yul\":4715:4717   */\n          0x20\n            /* \"#utility.yul\":4704:4713   */\n          dup6\n            /* \"#utility.yul\":4700:4718   */\n          add\n            /* \"#utility.yul\":4687:4718   */\n          swap5\n          pop\n            /* \"#utility.yul\":4561:4565   */\n          0x20\n            /* \"#utility.yul\":4558:4559   */\n          dup2\n            /* \"#utility.yul\":4554:4566   */\n          add\n            /* \"#utility.yul\":4549:4566   */\n          swap1\n          pop\n            /* \"#utility.yul\":4524:4732   */\n          jump(tag_83)\n        tag_85:\n            /* \"#utility.yul\":4760:4766   */\n          dup7\n            /* \"#utility.yul\":4751:4758   */\n          dup4\n            /* \"#utility.yul\":4748:4767   */\n          lt\n            /* \"#utility.yul\":4745:4924   */\n          iszero\n          tag_86\n          jumpi\n            /* \"#utility.yul\":4818:4827   */\n          dup5\n            /* \"#utility.yul\":4813:4816   */\n          dup10\n            /* \"#utility.yul\":4809:4828   */\n          add\n            /* \"#utility.yul\":4803:4829   */\n          mload\n            /* \"#utility.yul\":4861:4909   */\n          tag_87\n            /* \"#utility.yul\":4903:4907   */\n          0x1f\n            /* \"#utility.yul\":4895:4901   */\n          dup10\n            /* \"#utility.yul\":4891:4908   */\n          and\n            /* \"#utility.yul\":4880:4889   */\n          dup3\n            /* \"#utility.yul\":4861:4909   */\n          tag_24\n          jump\t// in\n        tag_87:\n            /* \"#utility.yul\":4853:4859   */\n          dup4\n            /* \"#utility.yul\":4846:4910   */\n          sstore\n            /* \"#utility.yul\":4768:4924   */\n          pop\n            /* \"#utility.yul\":4745:4924   */\n        tag_86:\n            /* \"#utility.yul\":4970:4971   */\n          0x01\n            /* \"#utility.yul\":4966:4967   */\n          0x02\n            /* \"#utility.yul\":4958:4964   */\n          dup9\n            /* \"#utility.yul\":4954:4968   */\n          mul\n            /* \"#utility.yul\":4950:4972   */\n          add\n            /* \"#utility.yul\":4944:4948   */\n          dup9\n            /* \"#utility.yul\":4937:4973   */\n          sstore\n            /* \"#utility.yul\":4372:4983   */\n          pop\n          pop\n          pop\n            /* \"#utility.yul\":4335:5222   */\n        tag_78:\n          pop\n            /* \"#utility.yul\":3925:5228   */\n          pop\n          pop\n          pop\n            /* \"#utility.yul\":3833:5228   */\n          pop\n          pop\n          jump\t// out\n            /* \"MyWorkspace/SimpleStorage.sol\":318:2601  contract SimpleStorage{... */\n        tag_5:\n          dataSize(sub_0)\n          dup1\n          dataOffset(sub_0)\n          0x00\n          codecopy\n          0x00\n          return\n        stop\n\n        sub_0: assembly {\n                /* \"MyWorkspace/SimpleStorage.sol\":318:2601  contract SimpleStorage{... */\n              mstore(0x40, 0x80)\n              callvalue\n              dup1\n              iszero\n              tag_1\n              jumpi\n              0x00\n              dup1\n              revert\n            tag_1:\n              pop\n              jumpi(tag_2, lt(calldatasize, 0x04))\n              shr(0xe0, calldataload(0x00))\n              dup1\n              0x67e0badb\n              eq\n              tag_3\n              jumpi\n              dup1\n              0x6f760f41\n              eq\n              tag_4\n              jumpi\n              dup1\n              0x92fa9da3\n              eq\n              tag_5\n              jumpi\n              dup1\n              0x9a67c8b1\n              eq\n              tag_6\n              jumpi\n              dup1\n              0xa4e1ca5a\n              eq\n              tag_7\n              jumpi\n            tag_2:\n              0x00\n              dup1\n              revert\n                /* \"MyWorkspace/SimpleStorage.sol\":2382:2470  function getNum() public view returns (uint256){... */\n            tag_3:\n              tag_8\n              tag_9\n              jump\t// in\n            tag_8:\n              mload(0x40)\n              tag_10\n              swap2\n              swap1\n              tag_11\n              jump\t// in\n            tag_10:\n              mload(0x40)\n              dup1\n              swap2\n              sub\n              swap1\n              return\n                /* \"MyWorkspace/SimpleStorage.sol\":1653:2071  function addPerson(string memory _name, uint _favouriteNumber) public {... */\n            tag_4:\n              tag_12\n              0x04\n              dup1\n              calldatasize\n              sub\n              dup2\n              add\n              swap1\n              tag_13\n              swap2\n              swap1\n              tag_14\n              jump\t// in\n            tag_13:\n              tag_15\n              jump\t// in\n            tag_12:\n              stop\n                /* \"MyWorkspace/SimpleStorage.sol\":1037:1080  mapping(string => uint256) public nameToNum */\n            tag_5:\n              tag_16\n              0x04\n              dup1\n              calldatasize\n              sub\n              dup2\n              add\n              swap1\n              tag_17\n              swap2\n              swap1\n              tag_18\n              jump\t// in\n            tag_17:\n              tag_19\n              jump\t// in\n            tag_16:\n              mload(0x40)\n              tag_20\n              swap2\n              swap1\n              tag_11\n              jump\t// in\n            tag_20:\n              mload(0x40)\n              dup1\n              swap2\n              sub\n              swap1\n              return\n                /* \"MyWorkspace/SimpleStorage.sol\":2099:2231  function storeNum(uint256 _favouriteNumber) public {... */\n            tag_6:\n              tag_21\n              0x04\n              dup1\n              calldatasize\n              sub\n              dup2\n              add\n              swap1\n              tag_22\n              swap2\n              swap1\n              tag_23\n              jump\t// in\n            tag_22:\n              tag_24\n              jump\t// in\n            tag_21:\n              stop\n                /* \"MyWorkspace/SimpleStorage.sol\":959:986  People[] public peopleArray */\n            tag_7:\n              tag_25\n              0x04\n              dup1\n              calldatasize\n              sub\n              dup2\n              add\n              swap1\n              tag_26\n              swap2\n              swap1\n              tag_23\n              jump\t// in\n            tag_26:\n              tag_27\n              jump\t// in\n            tag_25:\n              mload(0x40)\n              tag_28\n              swap3\n              swap2\n              swap1\n              tag_29\n              jump\t// in\n            tag_28:\n              mload(0x40)\n              dup1\n              swap2\n              sub\n              swap1\n              return\n                /* \"MyWorkspace/SimpleStorage.sol\":2382:2470  function getNum() public view returns (uint256){... */\n            tag_9:\n                /* \"MyWorkspace/SimpleStorage.sol\":2421:2428  uint256 */\n              0x00\n                /* \"MyWorkspace/SimpleStorage.sol\":2447:2462  favouriteNumber */\n              sload(0x04)\n                /* \"MyWorkspace/SimpleStorage.sol\":2440:2462  return favouriteNumber */\n              swap1\n              pop\n                /* \"MyWorkspace/SimpleStorage.sol\":2382:2470  function getNum() public view returns (uint256){... */\n              swap1\n              jump\t// out\n                /* \"MyWorkspace/SimpleStorage.sol\":1653:2071  function addPerson(string memory _name, uint _favouriteNumber) public {... */\n            tag_15:\n                /* \"MyWorkspace/SimpleStorage.sol\":1944:1955  peopleArray */\n              0x08\n                /* \"MyWorkspace/SimpleStorage.sol\":1961:1991  People(_favouriteNumber,_name) */\n              mload(0x40)\n              dup1\n              0x40\n              add\n              0x40\n              mstore\n              dup1\n                /* \"MyWorkspace/SimpleStorage.sol\":1968:1984  _favouriteNumber */\n              dup4\n                /* \"MyWorkspace/SimpleStorage.sol\":1961:1991  People(_favouriteNumber,_name) */\n              dup2\n              mstore\n              0x20\n              add\n                /* \"MyWorkspace/SimpleStorage.sol\":1985:1990  _name */\n              dup5\n                /* \"MyWorkspace/SimpleStorage.sol\":1961:1991  People(_favouriteNumber,_name) */\n              dup2\n              mstore\n              pop\n                /* \"MyWorkspace/SimpleStorage.sol\":1944:1992  peopleArray.push(People(_favouriteNumber,_name)) */\n              swap1\n              dup1\n              0x01\n              dup2\n              sload\n              add\n              dup1\n              dup3\n              sstore\n              dup1\n              swap2\n              pop\n              pop\n              0x01\n              swap1\n              sub\n              swap1\n              0x00\n              mstore\n              keccak256(0x00, 0x20)\n              swap1\n              0x02\n              mul\n              add\n              0x00\n              swap1\n              swap2\n              swap1\n              swap2\n              swap1\n              swap2\n              pop\n              0x00\n              dup3\n              add\n              mload\n              dup2\n              0x00\n              add\n              sstore\n              0x20\n              dup3\n              add\n              mload\n              dup2\n              0x01\n              add\n              swap1\n              dup2\n              tag_33\n              swap2\n              swap1\n              tag_34\n              jump\t// in\n            tag_33:\n              pop\n              pop\n              pop\n                /* \"MyWorkspace/SimpleStorage.sol\":2047:2063  _favouriteNumber */\n              dup1\n                /* \"MyWorkspace/SimpleStorage.sol\":2028:2037  nameToNum */\n              0x09\n                /* \"MyWorkspace/SimpleStorage.sol\":2038:2043  _name */\n              dup4\n                /* \"MyWorkspace/SimpleStorage.sol\":2028:2044  nameToNum[_name] */\n              mload(0x40)\n              tag_35\n              swap2\n              swap1\n              tag_36\n              jump\t// in\n            tag_35:\n              swap1\n              dup2\n              mstore\n              0x20\n              add\n              mload(0x40)\n              dup1\n              swap2\n              sub\n              swap1\n              keccak256\n                /* \"MyWorkspace/SimpleStorage.sol\":2028:2063  nameToNum[_name] = _favouriteNumber */\n              dup2\n              swap1\n              sstore\n              pop\n                /* \"MyWorkspace/SimpleStorage.sol\":1653:2071  function addPerson(string memory _name, uint _favouriteNumber) public {... */\n              pop\n              pop\n              jump\t// out\n                /* \"MyWorkspace/SimpleStorage.sol\":1037:1080  mapping(string => uint256) public nameToNum */\n            tag_19:\n              0x09\n              dup2\n              dup1\n              mload\n              0x20\n              dup2\n              add\n              dup3\n              add\n              dup1\n              mload\n              dup5\n              dup3\n              mstore\n              0x20\n              dup4\n              add\n              0x20\n              dup6\n              add\n              keccak256\n              dup2\n              dup4\n              mstore\n              dup1\n              swap6\n              pop\n              pop\n              pop\n              pop\n              pop\n              pop\n              0x00\n              swap2\n              pop\n              swap1\n              pop\n              sload\n              dup2\n              jump\t// out\n                /* \"MyWorkspace/SimpleStorage.sol\":2099:2231  function storeNum(uint256 _favouriteNumber) public {... */\n            tag_24:\n                /* \"MyWorkspace/SimpleStorage.sol\":2179:2195  _favouriteNumber */\n              dup1\n                /* \"MyWorkspace/SimpleStorage.sol\":2161:2176  favouriteNumber */\n              0x04\n                /* \"MyWorkspace/SimpleStorage.sol\":2161:2195  favouriteNumber = _favouriteNumber */\n              dup2\n              swap1\n              sstore\n              pop\n                /* \"MyWorkspace/SimpleStorage.sol\":2206:2221  favouriteNumber */\n              0x04\n              0x00\n                /* \"MyWorkspace/SimpleStorage.sol\":2206:2223  favouriteNumber++ */\n              dup2\n              sload\n              dup1\n              swap3\n              swap2\n              swap1\n              tag_38\n              swap1\n              tag_39\n              jump\t// in\n            tag_38:\n              swap2\n              swap1\n              pop\n              sstore\n              pop\n                /* \"MyWorkspace/SimpleStorage.sol\":2099:2231  function storeNum(uint256 _favouriteNumber) public {... */\n              pop\n              jump\t// out\n                /* \"MyWorkspace/SimpleStorage.sol\":959:986  People[] public peopleArray */\n            tag_27:\n              0x08\n              dup2\n              dup2\n              sload\n              dup2\n              lt\n              tag_40\n              jumpi\n              0x00\n              dup1\n              revert\n            tag_40:\n              swap1\n              0x00\n              mstore\n              keccak256(0x00, 0x20)\n              swap1\n              0x02\n              mul\n              add\n              0x00\n              swap2\n              pop\n              swap1\n              pop\n              dup1\n              0x00\n              add\n              sload\n              swap1\n              dup1\n              0x01\n              add\n              dup1\n              sload\n              tag_42\n              swap1\n              tag_43\n              jump\t// in\n            tag_42:\n              dup1\n              0x1f\n              add\n              0x20\n              dup1\n              swap2\n              div\n              mul\n              0x20\n              add\n              mload(0x40)\n              swap1\n              dup2\n              add\n              0x40\n              mstore\n              dup1\n              swap3\n              swap2\n              swap1\n              dup2\n              dup2\n              mstore\n              0x20\n              add\n              dup3\n              dup1\n              sload\n              tag_44\n              swap1\n              tag_43\n              jump\t// in\n            tag_44:\n              dup1\n              iszero\n              tag_45\n              jumpi\n              dup1\n              0x1f\n              lt\n              tag_46\n              jumpi\n              0x0100\n              dup1\n              dup4\n              sload\n              div\n              mul\n              dup4\n              mstore\n              swap2\n              0x20\n              add\n              swap2\n              jump(tag_45)\n            tag_46:\n              dup3\n              add\n              swap2\n              swap1\n              0x00\n              mstore\n              keccak256(0x00, 0x20)\n              swap1\n            tag_47:\n              dup2\n              sload\n              dup2\n              mstore\n              swap1\n              0x01\n              add\n              swap1\n              0x20\n              add\n              dup1\n              dup4\n              gt\n              tag_47\n              jumpi\n              dup3\n              swap1\n              sub\n              0x1f\n              and\n              dup3\n              add\n              swap2\n            tag_45:\n              pop\n              pop\n              pop\n              pop\n              pop\n              swap1\n              pop\n              dup3\n              jump\t// out\n                /* \"#utility.yul\":7:84   */\n            tag_48:\n                /* \"#utility.yul\":44:51   */\n              0x00\n                /* \"#utility.yul\":73:78   */\n              dup2\n                /* \"#utility.yul\":62:78   */\n              swap1\n              pop\n                /* \"#utility.yul\":7:84   */\n              swap2\n              swap1\n              pop\n              jump\t// out\n                /* \"#utility.yul\":90:208   */\n            tag_49:\n                /* \"#utility.yul\":177:201   */\n              tag_91\n                /* \"#utility.yul\":195:200   */\n              dup2\n                /* \"#utility.yul\":177:201   */\n              tag_48\n              jump\t// in\n            tag_91:\n                /* \"#utility.yul\":172:175   */\n              dup3\n                /* \"#utility.yul\":165:202   */\n              mstore\n                /* \"#utility.yul\":90:208   */\n              pop\n              pop\n              jump\t// out\n                /* \"#utility.yul\":214:436   */\n            tag_11:\n                /* \"#utility.yul\":307:311   */\n              0x00\n                /* \"#utility.yul\":345:347   */\n              0x20\n                /* \"#utility.yul\":334:343   */\n              dup3\n                /* \"#utility.yul\":330:348   */\n              add\n                /* \"#utility.yul\":322:348   */\n              swap1\n              pop\n                /* \"#utility.yul\":358:429   */\n              tag_93\n                /* \"#utility.yul\":426:427   */\n              0x00\n                /* \"#utility.yul\":415:424   */\n              dup4\n                /* \"#utility.yul\":411:428   */\n              add\n                /* \"#utility.yul\":402:408   */\n              dup5\n                /* \"#utility.yul\":358:429   */\n              tag_49\n              jump\t// in\n            tag_93:\n                /* \"#utility.yul\":214:436   */\n              swap3\n              swap2\n              pop\n              pop\n              jump\t// out\n                /* \"#utility.yul\":442:517   */\n            tag_50:\n                /* \"#utility.yul\":475:481   */\n              0x00\n                /* \"#utility.yul\":508:510   */\n              0x40\n                /* \"#utility.yul\":502:511   */\n              mload\n                /* \"#utility.yul\":492:511   */\n              swap1\n              pop\n                /* \"#utility.yul\":442:517   */\n              swap1\n              jump\t// out\n                /* \"#utility.yul\":523:640   */\n            tag_51:\n                /* \"#utility.yul\":632:633   */\n              0x00\n                /* \"#utility.yul\":629:630   */\n              dup1\n                /* \"#utility.yul\":622:634   */\n              revert\n                /* \"#utility.yul\":646:763   */\n            tag_52:\n                /* \"#utility.yul\":755:756   */\n              0x00\n                /* \"#utility.yul\":752:753   */\n              dup1\n                /* \"#utility.yul\":745:757   */\n              revert\n                /* \"#utility.yul\":769:886   */\n            tag_53:\n                /* \"#utility.yul\":878:879   */\n              0x00\n                /* \"#utility.yul\":875:876   */\n              dup1\n                /* \"#utility.yul\":868:880   */\n              revert\n                /* \"#utility.yul\":892:1009   */\n            tag_54:\n                /* \"#utility.yul\":1001:1002   */\n              0x00\n                /* \"#utility.yul\":998:999   */\n              dup1\n                /* \"#utility.yul\":991:1003   */\n              revert\n                /* \"#utility.yul\":1015:1117   */\n            tag_55:\n                /* \"#utility.yul\":1056:1062   */\n              0x00\n                /* \"#utility.yul\":1107:1109   */\n              0x1f\n                /* \"#utility.yul\":1103:1110   */\n              not\n                /* \"#utility.yul\":1098:1100   */\n              0x1f\n                /* \"#utility.yul\":1091:1096   */\n              dup4\n                /* \"#utility.yul\":1087:1101   */\n              add\n                /* \"#utility.yul\":1083:1111   */\n              and\n                /* \"#utility.yul\":1073:1111   */\n              swap1\n              pop\n                /* \"#utility.yul\":1015:1117   */\n              swap2\n              swap1\n              pop\n              jump\t// out\n                /* \"#utility.yul\":1123:1303   */\n            tag_56:\n                /* \"#utility.yul\":1171:1248   */\n              0x4e487b7100000000000000000000000000000000000000000000000000000000\n                /* \"#utility.yul\":1168:1169   */\n              0x00\n                /* \"#utility.yul\":1161:1249   */\n              mstore\n                /* \"#utility.yul\":1268:1272   */\n              0x41\n                /* \"#utility.yul\":1265:1266   */\n              0x04\n                /* \"#utility.yul\":1258:1273   */\n              mstore\n                /* \"#utility.yul\":1292:1296   */\n              0x24\n                /* \"#utility.yul\":1289:1290   */\n              0x00\n                /* \"#utility.yul\":1282:1297   */\n              revert\n                /* \"#utility.yul\":1309:1590   */\n            tag_57:\n                /* \"#utility.yul\":1392:1419   */\n              tag_102\n                /* \"#utility.yul\":1414:1418   */\n              dup3\n                /* \"#utility.yul\":1392:1419   */\n              tag_55\n              jump\t// in\n            tag_102:\n                /* \"#utility.yul\":1384:1390   */\n              dup2\n                /* \"#utility.yul\":1380:1420   */\n              add\n                /* \"#utility.yul\":1522:1528   */\n              dup2\n                /* \"#utility.yul\":1510:1520   */\n              dup2\n                /* \"#utility.yul\":1507:1529   */\n              lt\n                /* \"#utility.yul\":1486:1504   */\n              0xffffffffffffffff\n                /* \"#utility.yul\":1474:1484   */\n              dup3\n                /* \"#utility.yul\":1471:1505   */\n              gt\n                /* \"#utility.yul\":1468:1530   */\n              or\n                /* \"#utility.yul\":1465:1553   */\n              iszero\n              tag_103\n              jumpi\n                /* \"#utility.yul\":1533:1551   */\n              tag_104\n              tag_56\n              jump\t// in\n            tag_104:\n                /* \"#utility.yul\":1465:1553   */\n            tag_103:\n                /* \"#utility.yul\":1573:1583   */\n              dup1\n                /* \"#utility.yul\":1569:1571   */\n              0x40\n                /* \"#utility.yul\":1562:1584   */\n              mstore\n                /* \"#utility.yul\":1352:1590   */\n              pop\n                /* \"#utility.yul\":1309:1590   */\n              pop\n              pop\n              jump\t// out\n                /* \"#utility.yul\":1596:1725   */\n            tag_58:\n                /* \"#utility.yul\":1630:1636   */\n              0x00\n                /* \"#utility.yul\":1657:1677   */\n              tag_106\n              tag_50\n              jump\t// in\n            tag_106:\n                /* \"#utility.yul\":1647:1677   */\n              swap1\n              pop\n                /* \"#utility.yul\":1686:1719   */\n              tag_107\n                /* \"#utility.yul\":1714:1718   */\n              dup3\n                /* \"#utility.yul\":1706:1712   */\n              dup3\n                /* \"#utility.yul\":1686:1719   */\n              tag_57\n              jump\t// in\n            tag_107:\n                /* \"#utility.yul\":1596:1725   */\n              swap2\n              swap1\n              pop\n              jump\t// out\n                /* \"#utility.yul\":1731:2039   */\n            tag_59:\n                /* \"#utility.yul\":1793:1797   */\n              0x00\n                /* \"#utility.yul\":1883:1901   */\n              0xffffffffffffffff\n                /* \"#utility.yul\":1875:1881   */\n              dup3\n                /* \"#utility.yul\":1872:1902   */\n              gt\n                /* \"#utility.yul\":1869:1925   */\n              iszero\n              tag_109\n              jumpi\n                /* \"#utility.yul\":1905:1923   */\n              tag_110\n              tag_56\n              jump\t// in\n            tag_110:\n                /* \"#utility.yul\":1869:1925   */\n            tag_109:\n                /* \"#utility.yul\":1943:1972   */\n              tag_111\n                /* \"#utility.yul\":1965:1971   */\n              dup3\n                /* \"#utility.yul\":1943:1972   */\n              tag_55\n              jump\t// in\n            tag_111:\n                /* \"#utility.yul\":1935:1972   */\n              swap1\n              pop\n                /* \"#utility.yul\":2027:2031   */\n              0x20\n                /* \"#utility.yul\":2021:2025   */\n              dup2\n                /* \"#utility.yul\":2017:2032   */\n              add\n                /* \"#utility.yul\":2009:2032   */\n              swap1\n              pop\n                /* \"#utility.yul\":1731:2039   */\n              swap2\n              swap1\n              pop\n              jump\t// out\n                /* \"#utility.yul\":2045:2193   */\n            tag_60:\n                /* \"#utility.yul\":2143:2149   */\n              dup3\n                /* \"#utility.yul\":2138:2141   */\n              dup2\n                /* \"#utility.yul\":2133:2136   */\n              dup4\n                /* \"#utility.yul\":2120:2150   */\n              calldatacopy\n                /* \"#utility.yul\":2184:2185   */\n              0x00\n                /* \"#utility.yul\":2175:2181   */\n              dup4\n                /* \"#utility.yul\":2170:2173   */\n              dup4\n                /* \"#utility.yul\":2166:2182   */\n              add\n                /* \"#utility.yul\":2159:2186   */\n              mstore\n                /* \"#utility.yul\":2045:2193   */\n              pop\n              pop\n              pop\n              jump\t// out\n                /* \"#utility.yul\":2199:2624   */\n            tag_61:\n                /* \"#utility.yul\":2277:2282   */\n              0x00\n                /* \"#utility.yul\":2302:2368   */\n              tag_114\n                /* \"#utility.yul\":2318:2367   */\n              tag_115\n                /* \"#utility.yul\":2360:2366   */\n              dup5\n                /* \"#utility.yul\":2318:2367   */\n              tag_59\n              jump\t// in\n            tag_115:\n                /* \"#utility.yul\":2302:2368   */\n              tag_58\n              jump\t// in\n            tag_114:\n                /* \"#utility.yul\":2293:2368   */\n              swap1\n              pop\n                /* \"#utility.yul\":2391:2397   */\n              dup3\n                /* \"#utility.yul\":2384:2389   */\n              dup2\n                /* \"#utility.yul\":2377:2398   */\n              mstore\n                /* \"#utility.yul\":2429:2433   */\n              0x20\n                /* \"#utility.yul\":2422:2427   */\n              dup2\n                /* \"#utility.yul\":2418:2434   */\n              add\n                /* \"#utility.yul\":2467:2470   */\n              dup5\n                /* \"#utility.yul\":2458:2464   */\n              dup5\n                /* \"#utility.yul\":2453:2456   */\n              dup5\n                /* \"#utility.yul\":2449:2465   */\n              add\n                /* \"#utility.yul\":2446:2471   */\n              gt\n                /* \"#utility.yul\":2443:2555   */\n              iszero\n              tag_116\n              jumpi\n                /* \"#utility.yul\":2474:2553   */\n              tag_117\n              tag_54\n              jump\t// in\n            tag_117:\n                /* \"#utility.yul\":2443:2555   */\n            tag_116:\n                /* \"#utility.yul\":2564:2618   */\n              tag_118\n                /* \"#utility.yul\":2611:2617   */\n              dup5\n                /* \"#utility.yul\":2606:2609   */\n              dup3\n                /* \"#utility.yul\":2601:2604   */\n              dup6\n                /* \"#utility.yul\":2564:2618   */\n              tag_60\n              jump\t// in\n            tag_118:\n                /* \"#utility.yul\":2283:2624   */\n              pop\n                /* \"#utility.yul\":2199:2624   */\n              swap4\n              swap3\n              pop\n              pop\n              pop\n              jump\t// out\n                /* \"#utility.yul\":2644:2984   */\n            tag_62:\n                /* \"#utility.yul\":2700:2705   */\n              0x00\n                /* \"#utility.yul\":2749:2752   */\n              dup3\n                /* \"#utility.yul\":2742:2746   */\n              0x1f\n                /* \"#utility.yul\":2734:2740   */\n              dup4\n                /* \"#utility.yul\":2730:2747   */\n              add\n                /* \"#utility.yul\":2726:2753   */\n              slt\n                /* \"#utility.yul\":2716:2838   */\n              tag_120\n              jumpi\n                /* \"#utility.yul\":2757:2836   */\n              tag_121\n              tag_53\n              jump\t// in\n            tag_121:\n                /* \"#utility.yul\":2716:2838   */\n            tag_120:\n                /* \"#utility.yul\":2874:2880   */\n              dup2\n                /* \"#utility.yul\":2861:2881   */\n              calldataload\n                /* \"#utility.yul\":2899:2978   */\n              tag_122\n                /* \"#utility.yul\":2974:2977   */\n              dup5\n                /* \"#utility.yul\":2966:2972   */\n              dup3\n                /* \"#utility.yul\":2959:2963   */\n              0x20\n                /* \"#utility.yul\":2951:2957   */\n              dup7\n                /* \"#utility.yul\":2947:2964   */\n              add\n                /* \"#utility.yul\":2899:2978   */\n              tag_61\n              jump\t// in\n            tag_122:\n                /* \"#utility.yul\":2890:2978   */\n              swap2\n              pop\n                /* \"#utility.yul\":2706:2984   */\n              pop\n                /* \"#utility.yul\":2644:2984   */\n              swap3\n              swap2\n              pop\n              pop\n              jump\t// out\n                /* \"#utility.yul\":2990:3112   */\n            tag_63:\n                /* \"#utility.yul\":3063:3087   */\n              tag_124\n                /* \"#utility.yul\":3081:3086   */\n              dup2\n                /* \"#utility.yul\":3063:3087   */\n              tag_48\n              jump\t// in\n            tag_124:\n                /* \"#utility.yul\":3056:3061   */\n              dup2\n                /* \"#utility.yul\":3053:3088   */\n              eq\n                /* \"#utility.yul\":3043:3106   */\n              tag_125\n              jumpi\n                /* \"#utility.yul\":3102:3103   */\n              0x00\n                /* \"#utility.yul\":3099:3100   */\n              dup1\n                /* \"#utility.yul\":3092:3104   */\n              revert\n                /* \"#utility.yul\":3043:3106   */\n            tag_125:\n                /* \"#utility.yul\":2990:3112   */\n              pop\n              jump\t// out\n                /* \"#utility.yul\":3118:3257   */\n            tag_64:\n                /* \"#utility.yul\":3164:3169   */\n              0x00\n                /* \"#utility.yul\":3202:3208   */\n              dup2\n                /* \"#utility.yul\":3189:3209   */\n              calldataload\n                /* \"#utility.yul\":3180:3209   */\n              swap1\n              pop\n                /* \"#utility.yul\":3218:3251   */\n              tag_127\n                /* \"#utility.yul\":3245:3250   */\n              dup2\n                /* \"#utility.yul\":3218:3251   */\n              tag_63\n              jump\t// in\n            tag_127:\n                /* \"#utility.yul\":3118:3257   */\n              swap3\n              swap2\n              pop\n              pop\n              jump\t// out\n                /* \"#utility.yul\":3263:3917   */\n            tag_14:\n                /* \"#utility.yul\":3341:3347   */\n              0x00\n                /* \"#utility.yul\":3349:3355   */\n              dup1\n                /* \"#utility.yul\":3398:3400   */\n              0x40\n                /* \"#utility.yul\":3386:3395   */\n              dup4\n                /* \"#utility.yul\":3377:3384   */\n              dup6\n                /* \"#utility.yul\":3373:3396   */\n              sub\n                /* \"#utility.yul\":3369:3401   */\n              slt\n                /* \"#utility.yul\":3366:3485   */\n              iszero\n              tag_129\n              jumpi\n                /* \"#utility.yul\":3404:3483   */\n              tag_130\n              tag_51\n              jump\t// in\n            tag_130:\n                /* \"#utility.yul\":3366:3485   */\n            tag_129:\n                /* \"#utility.yul\":3552:3553   */\n              0x00\n                /* \"#utility.yul\":3541:3550   */\n              dup4\n                /* \"#utility.yul\":3537:3554   */\n              add\n                /* \"#utility.yul\":3524:3555   */\n              calldataload\n                /* \"#utility.yul\":3582:3600   */\n              0xffffffffffffffff\n                /* \"#utility.yul\":3574:3580   */\n              dup2\n                /* \"#utility.yul\":3571:3601   */\n              gt\n                /* \"#utility.yul\":3568:3685   */\n              iszero\n              tag_131\n              jumpi\n                /* \"#utility.yul\":3604:3683   */\n              tag_132\n              tag_52\n              jump\t// in\n            tag_132:\n                /* \"#utility.yul\":3568:3685   */\n            tag_131:\n                /* \"#utility.yul\":3709:3772   */\n              tag_133\n                /* \"#utility.yul\":3764:3771   */\n              dup6\n                /* \"#utility.yul\":3755:3761   */\n              dup3\n                /* \"#utility.yul\":3744:3753   */\n              dup7\n                /* \"#utility.yul\":3740:3762   */\n              add\n                /* \"#utility.yul\":3709:3772   */\n              tag_62\n              jump\t// in\n            tag_133:\n                /* \"#utility.yul\":3699:3772   */\n              swap3\n              pop\n                /* \"#utility.yul\":3495:3782   */\n              pop\n                /* \"#utility.yul\":3821:3823   */\n              0x20\n                /* \"#utility.yul\":3847:3900   */\n              tag_134\n                /* \"#utility.yul\":3892:3899   */\n              dup6\n                /* \"#utility.yul\":3883:3889   */\n              dup3\n                /* \"#utility.yul\":3872:3881   */\n              dup7\n                /* \"#utility.yul\":3868:3890   */\n              add\n                /* \"#utility.yul\":3847:3900   */\n              tag_64\n              jump\t// in\n            tag_134:\n                /* \"#utility.yul\":3837:3900   */\n              swap2\n              pop\n                /* \"#utility.yul\":3792:3910   */\n              pop\n                /* \"#utility.yul\":3263:3917   */\n              swap3\n              pop\n              swap3\n              swap1\n              pop\n              jump\t// out\n                /* \"#utility.yul\":3923:4432   */\n            tag_18:\n                /* \"#utility.yul\":3992:3998   */\n              0x00\n                /* \"#utility.yul\":4041:4043   */\n              0x20\n                /* \"#utility.yul\":4029:4038   */\n              dup3\n                /* \"#utility.yul\":4020:4027   */\n              dup5\n                /* \"#utility.yul\":4016:4039   */\n              sub\n                /* \"#utility.yul\":4012:4044   */\n              slt\n                /* \"#utility.yul\":4009:4128   */\n              iszero\n              tag_136\n              jumpi\n                /* \"#utility.yul\":4047:4126   */\n              tag_137\n              tag_51\n              jump\t// in\n            tag_137:\n                /* \"#utility.yul\":4009:4128   */\n            tag_136:\n                /* \"#utility.yul\":4195:4196   */\n              0x00\n                /* \"#utility.yul\":4184:4193   */\n              dup3\n                /* \"#utility.yul\":4180:4197   */\n              add\n                /* \"#utility.yul\":4167:4198   */\n              calldataload\n                /* \"#utility.yul\":4225:4243   */\n              0xffffffffffffffff\n                /* \"#utility.yul\":4217:4223   */\n              dup2\n                /* \"#utility.yul\":4214:4244   */\n              gt\n                /* \"#utility.yul\":4211:4328   */\n              iszero\n              tag_138\n              jumpi\n                /* \"#utility.yul\":4247:4326   */\n              tag_139\n              tag_52\n              jump\t// in\n            tag_139:\n                /* \"#utility.yul\":4211:4328   */\n            tag_138:\n                /* \"#utility.yul\":4352:4415   */\n              tag_140\n                /* \"#utility.yul\":4407:4414   */\n              dup5\n                /* \"#utility.yul\":4398:4404   */\n              dup3\n                /* \"#utility.yul\":4387:4396   */\n              dup6\n                /* \"#utility.yul\":4383:4405   */\n              add\n                /* \"#utility.yul\":4352:4415   */\n              tag_62\n              jump\t// in\n            tag_140:\n                /* \"#utility.yul\":4342:4415   */\n              swap2\n              pop\n                /* \"#utility.yul\":4138:4425   */\n              pop\n                /* \"#utility.yul\":3923:4432   */\n              swap3\n              swap2\n              pop\n              pop\n              jump\t// out\n                /* \"#utility.yul\":4438:4767   */\n            tag_23:\n                /* \"#utility.yul\":4497:4503   */\n              0x00\n                /* \"#utility.yul\":4546:4548   */\n              0x20\n                /* \"#utility.yul\":4534:4543   */\n              dup3\n                /* \"#utility.yul\":4525:4532   */\n              dup5\n                /* \"#utility.yul\":4521:4544   */\n              sub\n                /* \"#utility.yul\":4517:4549   */\n              slt\n                /* \"#utility.yul\":4514:4633   */\n              iszero\n              tag_142\n              jumpi\n                /* \"#utility.yul\":4552:4631   */\n              tag_143\n              tag_51\n              jump\t// in\n            tag_143:\n                /* \"#utility.yul\":4514:4633   */\n            tag_142:\n                /* \"#utility.yul\":4672:4673   */\n              0x00\n                /* \"#utility.yul\":4697:4750   */\n              tag_144\n                /* \"#utility.yul\":4742:4749   */\n              dup5\n                /* \"#utility.yul\":4733:4739   */\n              dup3\n                /* \"#utility.yul\":4722:4731   */\n              dup6\n                /* \"#utility.yul\":4718:4740   */\n              add\n                /* \"#utility.yul\":4697:4750   */\n              tag_64\n              jump\t// in\n            tag_144:\n                /* \"#utility.yul\":4687:4750   */\n              swap2\n              pop\n                /* \"#utility.yul\":4643:4760   */\n              pop\n                /* \"#utility.yul\":4438:4767   */\n              swap3\n              swap2\n              pop\n              pop\n              jump\t// out\n                /* \"#utility.yul\":4773:4872   */\n            tag_65:\n                /* \"#utility.yul\":4825:4831   */\n              0x00\n                /* \"#utility.yul\":4859:4864   */\n              dup2\n                /* \"#utility.yul\":4853:4865   */\n              mload\n                /* \"#utility.yul\":4843:4865   */\n              swap1\n              pop\n                /* \"#utility.yul\":4773:4872   */\n              swap2\n              swap1\n              pop\n              jump\t// out\n                /* \"#utility.yul\":4878:5047   */\n            tag_66:\n                /* \"#utility.yul\":4962:4973   */\n              0x00\n                /* \"#utility.yul\":4996:5002   */\n              dup3\n                /* \"#utility.yul\":4991:4994   */\n              dup3\n                /* \"#utility.yul\":4984:5003   */\n              mstore\n                /* \"#utility.yul\":5036:5040   */\n              0x20\n                /* \"#utility.yul\":5031:5034   */\n              dup3\n                /* \"#utility.yul\":5027:5041   */\n              add\n                /* \"#utility.yul\":5012:5041   */\n              swap1\n              pop\n                /* \"#utility.yul\":4878:5047   */\n              swap3\n              swap2\n              pop\n              pop\n              jump\t// out\n                /* \"#utility.yul\":5053:5192   */\n            tag_67:\n                /* \"#utility.yul\":5142:5148   */\n              dup3\n                /* \"#utility.yul\":5137:5140   */\n              dup2\n                /* \"#utility.yul\":5132:5135   */\n              dup4\n                /* \"#utility.yul\":5126:5149   */\n              mcopy\n                /* \"#utility.yul\":5183:5184   */\n              0x00\n                /* \"#utility.yul\":5174:5180   */\n              dup4\n                /* \"#utility.yul\":5169:5172   */\n              dup4\n                /* \"#utility.yul\":5165:5181   */\n              add\n                /* \"#utility.yul\":5158:5185   */\n              mstore\n                /* \"#utility.yul\":5053:5192   */\n              pop\n              pop\n              pop\n              jump\t// out\n                /* \"#utility.yul\":5198:5575   */\n            tag_68:\n                /* \"#utility.yul\":5286:5289   */\n              0x00\n                /* \"#utility.yul\":5314:5353   */\n              tag_149\n                /* \"#utility.yul\":5347:5352   */\n              dup3\n                /* \"#utility.yul\":5314:5353   */\n              tag_65\n              jump\t// in\n            tag_149:\n                /* \"#utility.yul\":5369:5440   */\n              tag_150\n                /* \"#utility.yul\":5433:5439   */\n              dup2\n                /* \"#utility.yul\":5428:5431   */\n              dup6\n                /* \"#utility.yul\":5369:5440   */\n              tag_66\n              jump\t// in\n            tag_150:\n                /* \"#utility.yul\":5362:5440   */\n              swap4\n              pop\n                /* \"#utility.yul\":5449:5514   */\n              tag_151\n                /* \"#utility.yul\":5507:5513   */\n              dup2\n                /* \"#utility.yul\":5502:5505   */\n              dup6\n                /* \"#utility.yul\":5495:5499   */\n              0x20\n                /* \"#utility.yul\":5488:5493   */\n              dup7\n                /* \"#utility.yul\":5484:5500   */\n              add\n                /* \"#utility.yul\":5449:5514   */\n              tag_67\n              jump\t// in\n            tag_151:\n                /* \"#utility.yul\":5539:5568   */\n              tag_152\n                /* \"#utility.yul\":5561:5567   */\n              dup2\n                /* \"#utility.yul\":5539:5568   */\n              tag_55\n              jump\t// in\n            tag_152:\n                /* \"#utility.yul\":5534:5537   */\n              dup5\n                /* \"#utility.yul\":5530:5569   */\n              add\n                /* \"#utility.yul\":5523:5569   */\n              swap2\n              pop\n                /* \"#utility.yul\":5290:5575   */\n              pop\n                /* \"#utility.yul\":5198:5575   */\n              swap3\n              swap2\n              pop\n              pop\n              jump\t// out\n                /* \"#utility.yul\":5581:6004   */\n            tag_29:\n                /* \"#utility.yul\":5722:5726   */\n              0x00\n                /* \"#utility.yul\":5760:5762   */\n              0x40\n                /* \"#utility.yul\":5749:5758   */\n              dup3\n                /* \"#utility.yul\":5745:5763   */\n              add\n                /* \"#utility.yul\":5737:5763   */\n              swap1\n              pop\n                /* \"#utility.yul\":5773:5844   */\n              tag_154\n                /* \"#utility.yul\":5841:5842   */\n              0x00\n                /* \"#utility.yul\":5830:5839   */\n              dup4\n                /* \"#utility.yul\":5826:5843   */\n              add\n                /* \"#utility.yul\":5817:5823   */\n              dup6\n                /* \"#utility.yul\":5773:5844   */\n              tag_49\n              jump\t// in\n            tag_154:\n                /* \"#utility.yul\":5891:5900   */\n              dup2\n                /* \"#utility.yul\":5885:5889   */\n              dup2\n                /* \"#utility.yul\":5881:5901   */\n              sub\n                /* \"#utility.yul\":5876:5878   */\n              0x20\n                /* \"#utility.yul\":5865:5874   */\n              dup4\n                /* \"#utility.yul\":5861:5879   */\n              add\n                /* \"#utility.yul\":5854:5902   */\n              mstore\n                /* \"#utility.yul\":5919:5997   */\n              tag_155\n                /* \"#utility.yul\":5992:5996   */\n              dup2\n                /* \"#utility.yul\":5983:5989   */\n              dup5\n                /* \"#utility.yul\":5919:5997   */\n              tag_68\n              jump\t// in\n            tag_155:\n                /* \"#utility.yul\":5911:5997   */\n              swap1\n              pop\n                /* \"#utility.yul\":5581:6004   */\n              swap4\n              swap3\n              pop\n              pop\n              pop\n              jump\t// out\n                /* \"#utility.yul\":6010:6190   */\n            tag_69:\n                /* \"#utility.yul\":6058:6135   */\n              0x4e487b7100000000000000000000000000000000000000000000000000000000\n                /* \"#utility.yul\":6055:6056   */\n              0x00\n                /* \"#utility.yul\":6048:6136   */\n              mstore\n                /* \"#utility.yul\":6155:6159   */\n              0x22\n                /* \"#utility.yul\":6152:6153   */\n              0x04\n                /* \"#utility.yul\":6145:6160   */\n              mstore\n                /* \"#utility.yul\":6179:6183   */\n              0x24\n                /* \"#utility.yul\":6176:6177   */\n              0x00\n                /* \"#utility.yul\":6169:6184   */\n              revert\n                /* \"#utility.yul\":6196:6516   */\n            tag_43:\n                /* \"#utility.yul\":6240:6246   */\n              0x00\n                /* \"#utility.yul\":6277:6278   */\n              0x02\n                /* \"#utility.yul\":6271:6275   */\n              dup3\n                /* \"#utility.yul\":6267:6279   */\n              div\n                /* \"#utility.yul\":6257:6279   */\n              swap1\n              pop\n                /* \"#utility.yul\":6324:6325   */\n              0x01\n                /* \"#utility.yul\":6318:6322   */\n              dup3\n                /* \"#utility.yul\":6314:6326   */\n              and\n                /* \"#utility.yul\":6345:6363   */\n              dup1\n                /* \"#utility.yul\":6335:6416   */\n              tag_158\n              jumpi\n                /* \"#utility.yul\":6401:6405   */\n              0x7f\n                /* \"#utility.yul\":6393:6399   */\n              dup3\n                /* \"#utility.yul\":6389:6406   */\n              and\n                /* \"#utility.yul\":6379:6406   */\n              swap2\n              pop\n                /* \"#utility.yul\":6335:6416   */\n            tag_158:\n                /* \"#utility.yul\":6463:6465   */\n              0x20\n                /* \"#utility.yul\":6455:6461   */\n              dup3\n                /* \"#utility.yul\":6452:6466   */\n              lt\n                /* \"#utility.yul\":6432:6450   */\n              dup2\n                /* \"#utility.yul\":6429:6467   */\n              sub\n                /* \"#utility.yul\":6426:6510   */\n              tag_159\n              jumpi\n                /* \"#utility.yul\":6482:6500   */\n              tag_160\n              tag_69\n              jump\t// in\n            tag_160:\n                /* \"#utility.yul\":6426:6510   */\n            tag_159:\n                /* \"#utility.yul\":6247:6516   */\n              pop\n                /* \"#utility.yul\":6196:6516   */\n              swap2\n              swap1\n              pop\n              jump\t// out\n                /* \"#utility.yul\":6522:6663   */\n            tag_70:\n                /* \"#utility.yul\":6571:6575   */\n              0x00\n                /* \"#utility.yul\":6594:6597   */\n              dup2\n                /* \"#utility.yul\":6586:6597   */\n              swap1\n              pop\n                /* \"#utility.yul\":6617:6620   */\n              dup2\n                /* \"#utility.yul\":6614:6615   */\n              0x00\n                /* \"#utility.yul\":6607:6621   */\n              mstore\n                /* \"#utility.yul\":6651:6655   */\n              0x20\n                /* \"#utility.yul\":6648:6649   */\n              0x00\n                /* \"#utility.yul\":6638:6656   */\n              keccak256\n                /* \"#utility.yul\":6630:6656   */\n              swap1\n              pop\n                /* \"#utility.yul\":6522:6663   */\n              swap2\n              swap1\n              pop\n              jump\t// out\n                /* \"#utility.yul\":6669:6762   */\n            tag_71:\n                /* \"#utility.yul\":6706:6712   */\n              0x00\n                /* \"#utility.yul\":6753:6755   */\n              0x20\n                /* \"#utility.yul\":6748:6750   */\n              0x1f\n                /* \"#utility.yul\":6741:6746   */\n              dup4\n                /* \"#utility.yul\":6737:6751   */\n              add\n                /* \"#utility.yul\":6733:6756   */\n              div\n                /* \"#utility.yul\":6723:6756   */\n              swap1\n              pop\n                /* \"#utility.yul\":6669:6762   */\n              swap2\n              swap1\n              pop\n              jump\t// out\n                /* \"#utility.yul\":6768:6875   */\n            tag_72:\n                /* \"#utility.yul\":6812:6820   */\n              0x00\n                /* \"#utility.yul\":6862:6867   */\n              dup3\n                /* \"#utility.yul\":6856:6860   */\n              dup3\n                /* \"#utility.yul\":6852:6868   */\n              shl\n                /* \"#utility.yul\":6831:6868   */\n              swap1\n              pop\n                /* \"#utility.yul\":6768:6875   */\n              swap3\n              swap2\n              pop\n              pop\n              jump\t// out\n                /* \"#utility.yul\":6881:7274   */\n            tag_73:\n                /* \"#utility.yul\":6950:6956   */\n              0x00\n                /* \"#utility.yul\":7000:7001   */\n              0x08\n                /* \"#utility.yul\":6988:6998   */\n              dup4\n                /* \"#utility.yul\":6984:7002   */\n              mul\n                /* \"#utility.yul\":7023:7120   */\n              tag_165\n                /* \"#utility.yul\":7053:7119   */\n              0xffffffffffffffffffffffffffffffffffffffffffffffffffffffffffffffff\n                /* \"#utility.yul\":7042:7051   */\n              dup3\n                /* \"#utility.yul\":7023:7120   */\n              tag_72\n              jump\t// in\n            tag_165:\n                /* \"#utility.yul\":7141:7180   */\n              tag_166\n                /* \"#utility.yul\":7171:7179   */\n              dup7\n                /* \"#utility.yul\":7160:7169   */\n              dup4\n                /* \"#utility.yul\":7141:7180   */\n              tag_72\n              jump\t// in\n            tag_166:\n                /* \"#utility.yul\":7129:7180   */\n              swap6\n              pop\n                /* \"#utility.yul\":7213:7217   */\n              dup1\n                /* \"#utility.yul\":7209:7218   */\n              not\n                /* \"#utility.yul\":7202:7207   */\n              dup5\n                /* \"#utility.yul\":7198:7219   */\n              and\n                /* \"#utility.yul\":7189:7219   */\n              swap4\n              pop\n                /* \"#utility.yul\":7262:7266   */\n              dup1\n                /* \"#utility.yul\":7252:7260   */\n              dup7\n                /* \"#utility.yul\":7248:7267   */\n              and\n                /* \"#utility.yul\":7241:7246   */\n              dup5\n                /* \"#utility.yul\":7238:7268   */\n              or\n                /* \"#utility.yul\":7228:7268   */\n              swap3\n              pop\n                /* \"#utility.yul\":6957:7274   */\n              pop\n              pop\n                /* \"#utility.yul\":6881:7274   */\n              swap4\n              swap3\n              pop\n              pop\n              pop\n              jump\t// out\n                /* \"#utility.yul\":7280:7340   */\n            tag_74:\n                /* \"#utility.yul\":7308:7311   */\n              0x00\n                /* \"#utility.yul\":7329:7334   */\n              dup2\n                /* \"#utility.yul\":7322:7334   */\n              swap1\n              pop\n                /* \"#utility.yul\":7280:7340   */\n              swap2\n              swap1\n              pop\n              jump\t// out\n                /* \"#utility.yul\":7346:7488   */\n            tag_75:\n                /* \"#utility.yul\":7396:7405   */\n              0x00\n                /* \"#utility.yul\":7429:7482   */\n              tag_169\n                /* \"#utility.yul\":7447:7481   */\n              tag_170\n                /* \"#utility.yul\":7456:7480   */\n              tag_171\n                /* \"#utility.yul\":7474:7479   */\n              dup5\n                /* \"#utility.yul\":7456:7480   */\n              tag_48\n              jump\t// in\n            tag_171:\n                /* \"#utility.yul\":7447:7481   */\n              tag_74\n              jump\t// in\n            tag_170:\n                /* \"#utility.yul\":7429:7482   */\n              tag_48\n              jump\t// in\n            tag_169:\n                /* \"#utility.yul\":7416:7482   */\n              swap1\n              pop\n                /* \"#utility.yul\":7346:7488   */\n              swap2\n              swap1\n              pop\n              jump\t// out\n                /* \"#utility.yul\":7494:7569   */\n            tag_76:\n                /* \"#utility.yul\":7537:7540   */\n              0x00\n                /* \"#utility.yul\":7558:7563   */\n              dup2\n                /* \"#utility.yul\":7551:7563   */\n              swap1\n              pop\n                /* \"#utility.yul\":7494:7569   */\n              swap2\n              swap1\n              pop\n              jump\t// out\n                /* \"#utility.yul\":7575:7844   */\n            tag_77:\n                /* \"#utility.yul\":7685:7724   */\n              tag_174\n                /* \"#utility.yul\":7716:7723   */\n              dup4\n                /* \"#utility.yul\":7685:7724   */\n              tag_75\n              jump\t// in\n            tag_174:\n                /* \"#utility.yul\":7746:7837   */\n              tag_175\n                /* \"#utility.yul\":7795:7836   */\n              tag_176\n                /* \"#utility.yul\":7819:7835   */\n              dup3\n                /* \"#utility.yul\":7795:7836   */\n              tag_76\n              jump\t// in\n            tag_176:\n                /* \"#utility.yul\":7787:7793   */\n              dup5\n                /* \"#utility.yul\":7780:7784   */\n              dup5\n                /* \"#utility.yul\":7774:7785   */\n              sload\n                /* \"#utility.yul\":7746:7837   */\n              tag_73\n              jump\t// in\n            tag_175:\n                /* \"#utility.yul\":7740:7744   */\n              dup3\n                /* \"#utility.yul\":7733:7838   */\n              sstore\n                /* \"#utility.yul\":7651:7844   */\n              pop\n                /* \"#utility.yul\":7575:7844   */\n              pop\n              pop\n              pop\n              jump\t// out\n                /* \"#utility.yul\":7850:7923   */\n            tag_78:\n                /* \"#utility.yul\":7895:7898   */\n              0x00\n                /* \"#utility.yul\":7850:7923   */\n              swap1\n              jump\t// out\n                /* \"#utility.yul\":7929:8118   */\n            tag_79:\n                /* \"#utility.yul\":8006:8038   */\n              tag_179\n              tag_78\n              jump\t// in\n            tag_179:\n                /* \"#utility.yul\":8047:8112   */\n              tag_180\n                /* \"#utility.yul\":8105:8111   */\n              dup2\n                /* \"#utility.yul\":8097:8103   */\n              dup5\n                /* \"#utility.yul\":8091:8095   */\n              dup5\n                /* \"#utility.yul\":8047:8112   */\n              tag_77\n              jump\t// in\n            tag_180:\n                /* \"#utility.yul\":7982:8118   */\n              pop\n                /* \"#utility.yul\":7929:8118   */\n              pop\n              pop\n              jump\t// out\n                /* \"#utility.yul\":8124:8310   */\n            tag_80:\n                /* \"#utility.yul\":8184:8304   */\n            tag_182:\n                /* \"#utility.yul\":8201:8204   */\n              dup2\n                /* \"#utility.yul\":8194:8199   */\n              dup2\n                /* \"#utility.yul\":8191:8205   */\n              lt\n                /* \"#utility.yul\":8184:8304   */\n              iszero\n              tag_184\n              jumpi\n                /* \"#utility.yul\":8255:8294   */\n              tag_185\n                /* \"#utility.yul\":8292:8293   */\n              0x00\n                /* \"#utility.yul\":8285:8290   */\n              dup3\n                /* \"#utility.yul\":8255:8294   */\n              tag_79\n              jump\t// in\n            tag_185:\n                /* \"#utility.yul\":8228:8229   */\n              0x01\n                /* \"#utility.yul\":8221:8226   */\n              dup2\n                /* \"#utility.yul\":8217:8230   */\n              add\n                /* \"#utility.yul\":8208:8230   */\n              swap1\n              pop\n                /* \"#utility.yul\":8184:8304   */\n              jump(tag_182)\n            tag_184:\n                /* \"#utility.yul\":8124:8310   */\n              pop\n              pop\n              jump\t// out\n                /* \"#utility.yul\":8316:8859   */\n            tag_81:\n                /* \"#utility.yul\":8417:8419   */\n              0x1f\n                /* \"#utility.yul\":8412:8415   */\n              dup3\n                /* \"#utility.yul\":8409:8420   */\n              gt\n                /* \"#utility.yul\":8406:8852   */\n              iszero\n              tag_187\n              jumpi\n                /* \"#utility.yul\":8451:8489   */\n              tag_188\n                /* \"#utility.yul\":8483:8488   */\n              dup2\n                /* \"#utility.yul\":8451:8489   */\n              tag_70\n              jump\t// in\n            tag_188:\n                /* \"#utility.yul\":8535:8564   */\n              tag_189\n                /* \"#utility.yul\":8553:8563   */\n              dup5\n                /* \"#utility.yul\":8535:8564   */\n              tag_71\n              jump\t// in\n            tag_189:\n                /* \"#utility.yul\":8525:8533   */\n              dup2\n                /* \"#utility.yul\":8521:8565   */\n              add\n                /* \"#utility.yul\":8718:8720   */\n              0x20\n                /* \"#utility.yul\":8706:8716   */\n              dup6\n                /* \"#utility.yul\":8703:8721   */\n              lt\n                /* \"#utility.yul\":8700:8749   */\n              iszero\n              tag_190\n              jumpi\n                /* \"#utility.yul\":8739:8747   */\n              dup2\n                /* \"#utility.yul\":8724:8747   */\n              swap1\n              pop\n                /* \"#utility.yul\":8700:8749   */\n            tag_190:\n                /* \"#utility.yul\":8762:8842   */\n              tag_191\n                /* \"#utility.yul\":8818:8840   */\n              tag_192\n                /* \"#utility.yul\":8836:8839   */\n              dup6\n                /* \"#utility.yul\":8818:8840   */\n              tag_71\n              jump\t// in\n            tag_192:\n                /* \"#utility.yul\":8808:8816   */\n              dup4\n                /* \"#utility.yul\":8804:8841   */\n              add\n                /* \"#utility.yul\":8791:8802   */\n              dup3\n                /* \"#utility.yul\":8762:8842   */\n              tag_80\n              jump\t// in\n            tag_191:\n                /* \"#utility.yul\":8421:8852   */\n              pop\n              pop\n                /* \"#utility.yul\":8406:8852   */\n            tag_187:\n                /* \"#utility.yul\":8316:8859   */\n              pop\n              pop\n              pop\n              jump\t// out\n                /* \"#utility.yul\":8865:8982   */\n            tag_82:\n                /* \"#utility.yul\":8919:8927   */\n              0x00\n                /* \"#utility.yul\":8969:8974   */\n              dup3\n                /* \"#utility.yul\":8963:8967   */\n              dup3\n                /* \"#utility.yul\":8959:8975   */\n              shr\n                /* \"#utility.yul\":8938:8975   */\n              swap1\n              pop\n                /* \"#utility.yul\":8865:8982   */\n              swap3\n              swap2\n              pop\n              pop\n              jump\t// out\n                /* \"#utility.yul\":8988:9157   */\n            tag_83:\n                /* \"#utility.yul\":9032:9038   */\n              0x00\n                /* \"#utility.yul\":9065:9116   */\n              tag_195\n                /* \"#utility.yul\":9113:9114   */\n              0x00\n                /* \"#utility.yul\":9109:9115   */\n              not\n                /* \"#utility.yul\":9101:9106   */\n              dup5\n                /* \"#utility.yul\":9098:9099   */\n              0x08\n                /* \"#utility.yul\":9094:9107   */\n              mul\n                /* \"#utility.yul\":9065:9116   */\n              tag_82\n              jump\t// in\n            tag_195:\n                /* \"#utility.yul\":9061:9117   */\n              not\n                /* \"#utility.yul\":9146:9150   */\n              dup1\n                /* \"#utility.yul\":9140:9144   */\n              dup4\n                /* \"#utility.yul\":9136:9151   */\n              and\n                /* \"#utility.yul\":9126:9151   */\n              swap2\n              pop\n                /* \"#utility.yul\":9039:9157   */\n              pop\n                /* \"#utility.yul\":8988:9157   */\n              swap3\n              swap2\n              pop\n              pop\n              jump\t// out\n                /* \"#utility.yul\":9162:9457   */\n            tag_84:\n                /* \"#utility.yul\":9238:9242   */\n              0x00\n                /* \"#utility.yul\":9384:9413   */\n              tag_197\n                /* \"#utility.yul\":9409:9412   */\n              dup4\n                /* \"#utility.yul\":9403:9407   */\n              dup4\n                /* \"#utility.yul\":9384:9413   */\n              tag_83\n              jump\t// in\n            tag_197:\n                /* \"#utility.yul\":9376:9413   */\n              swap2\n              pop\n                /* \"#utility.yul\":9446:9449   */\n              dup3\n                /* \"#utility.yul\":9443:9444   */\n              0x02\n                /* \"#utility.yul\":9439:9450   */\n              mul\n                /* \"#utility.yul\":9433:9437   */\n              dup3\n                /* \"#utility.yul\":9430:9451   */\n              or\n                /* \"#utility.yul\":9422:9451   */\n              swap1\n              pop\n                /* \"#utility.yul\":9162:9457   */\n              swap3\n              swap2\n              pop\n              pop\n              jump\t// out\n                /* \"#utility.yul\":9462:10857   */\n            tag_34:\n                /* \"#utility.yul\":9579:9616   */\n              tag_199\n                /* \"#utility.yul\":9612:9615   */\n              dup3\n                /* \"#utility.yul\":9579:9616   */\n              tag_65\n              jump\t// in\n            tag_199:\n                /* \"#utility.yul\":9681:9699   */\n              0xffffffffffffffff\n                /* \"#utility.yul\":9673:9679   */\n              dup2\n                /* \"#utility.yul\":9670:9700   */\n              gt\n                /* \"#utility.yul\":9667:9723   */\n              iszero\n              tag_200\n              jumpi\n                /* \"#utility.yul\":9703:9721   */\n              tag_201\n              tag_56\n              jump\t// in\n            tag_201:\n                /* \"#utility.yul\":9667:9723   */\n            tag_200:\n                /* \"#utility.yul\":9747:9785   */\n              tag_202\n                /* \"#utility.yul\":9779:9783   */\n              dup3\n                /* \"#utility.yul\":9773:9784   */\n              sload\n                /* \"#utility.yul\":9747:9785   */\n              tag_43\n              jump\t// in\n            tag_202:\n                /* \"#utility.yul\":9832:9899   */\n              tag_203\n                /* \"#utility.yul\":9892:9898   */\n              dup3\n                /* \"#utility.yul\":9884:9890   */\n              dup3\n                /* \"#utility.yul\":9878:9882   */\n              dup6\n                /* \"#utility.yul\":9832:9899   */\n              tag_81\n              jump\t// in\n            tag_203:\n                /* \"#utility.yul\":9926:9927   */\n              0x00\n                /* \"#utility.yul\":9950:9954   */\n              0x20\n                /* \"#utility.yul\":9937:9954   */\n              swap1\n              pop\n                /* \"#utility.yul\":9982:9984   */\n              0x1f\n                /* \"#utility.yul\":9974:9980   */\n              dup4\n                /* \"#utility.yul\":9971:9985   */\n              gt\n                /* \"#utility.yul\":9999:10000   */\n              0x01\n                /* \"#utility.yul\":9994:10612   */\n              dup2\n              eq\n              tag_205\n              jumpi\n                /* \"#utility.yul\":10656:10657   */\n              0x00\n                /* \"#utility.yul\":10673:10679   */\n              dup5\n                /* \"#utility.yul\":10670:10747   */\n              iszero\n              tag_206\n              jumpi\n                /* \"#utility.yul\":10722:10731   */\n              dup3\n                /* \"#utility.yul\":10717:10720   */\n              dup8\n                /* \"#utility.yul\":10713:10732   */\n              add\n                /* \"#utility.yul\":10707:10733   */\n              mload\n                /* \"#utility.yul\":10698:10733   */\n              swap1\n              pop\n                /* \"#utility.yul\":10670:10747   */\n            tag_206:\n                /* \"#utility.yul\":10773:10840   */\n              tag_207\n                /* \"#utility.yul\":10833:10839   */\n              dup6\n                /* \"#utility.yul\":10826:10831   */\n              dup3\n                /* \"#utility.yul\":10773:10840   */\n              tag_84\n              jump\t// in\n            tag_207:\n                /* \"#utility.yul\":10767:10771   */\n              dup7\n                /* \"#utility.yul\":10760:10841   */\n              sstore\n                /* \"#utility.yul\":10629:10851   */\n              pop\n                /* \"#utility.yul\":9964:10851   */\n              jump(tag_204)\n                /* \"#utility.yul\":9994:10612   */\n            tag_205:\n                /* \"#utility.yul\":10046:10050   */\n              0x1f\n                /* \"#utility.yul\":10042:10051   */\n              not\n                /* \"#utility.yul\":10034:10040   */\n              dup5\n                /* \"#utility.yul\":10030:10052   */\n              and\n                /* \"#utility.yul\":10080:10117   */\n              tag_208\n                /* \"#utility.yul\":10112:10116   */\n              dup7\n                /* \"#utility.yul\":10080:10117   */\n              tag_70\n              jump\t// in\n            tag_208:\n                /* \"#utility.yul\":10139:10140   */\n              0x00\n                /* \"#utility.yul\":10153:10361   */\n            tag_209:\n                /* \"#utility.yul\":10167:10174   */\n              dup3\n                /* \"#utility.yul\":10164:10165   */\n              dup2\n                /* \"#utility.yul\":10161:10175   */\n              lt\n                /* \"#utility.yul\":10153:10361   */\n              iszero\n              tag_211\n              jumpi\n                /* \"#utility.yul\":10246:10255   */\n              dup5\n                /* \"#utility.yul\":10241:10244   */\n              dup10\n                /* \"#utility.yul\":10237:10256   */\n              add\n                /* \"#utility.yul\":10231:10257   */\n              mload\n                /* \"#utility.yul\":10223:10229   */\n              dup3\n                /* \"#utility.yul\":10216:10258   */\n              sstore\n                /* \"#utility.yul\":10297:10298   */\n              0x01\n                /* \"#utility.yul\":10289:10295   */\n              dup3\n                /* \"#utility.yul\":10285:10299   */\n              add\n                /* \"#utility.yul\":10275:10299   */\n              swap2\n              pop\n                /* \"#utility.yul\":10344:10346   */\n              0x20\n                /* \"#utility.yul\":10333:10342   */\n              dup6\n                /* \"#utility.yul\":10329:10347   */\n              add\n                /* \"#utility.yul\":10316:10347   */\n              swap5\n              pop\n                /* \"#utility.yul\":10190:10194   */\n              0x20\n                /* \"#utility.yul\":10187:10188   */\n              dup2\n                /* \"#utility.yul\":10183:10195   */\n              add\n                /* \"#utility.yul\":10178:10195   */\n              swap1\n              pop\n                /* \"#utility.yul\":10153:10361   */\n              jump(tag_209)\n            tag_211:\n                /* \"#utility.yul\":10389:10395   */\n              dup7\n                /* \"#utility.yul\":10380:10387   */\n              dup4\n                /* \"#utility.yul\":10377:10396   */\n              lt\n                /* \"#utility.yul\":10374:10553   */\n              iszero\n              tag_212\n              jumpi\n                /* \"#utility.yul\":10447:10456   */\n              dup5\n                /* \"#utility.yul\":10442:10445   */\n              dup10\n                /* \"#utility.yul\":10438:10457   */\n              add\n                /* \"#utility.yul\":10432:10458   */\n              mload\n                /* \"#utility.yul\":10490:10538   */\n              tag_213\n                /* \"#utility.yul\":10532:10536   */\n              0x1f\n                /* \"#utility.yul\":10524:10530   */\n              dup10\n                /* \"#utility.yul\":10520:10537   */\n              and\n                /* \"#utility.yul\":10509:10518   */\n              dup3\n                /* \"#utility.yul\":10490:10538   */\n              tag_83\n              jump\t// in\n            tag_213:\n                /* \"#utility.yul\":10482:10488   */\n              dup4\n                /* \"#utility.yul\":10475:10539   */\n              sstore\n                /* \"#utility.yul\":10397:10553   */\n              pop\n                /* \"#utility.yul\":10374:10553   */\n            tag_212:\n                /* \"#utility.yul\":10599:10600   */\n              0x01\n                /* \"#utility.yul\":10595:10596   */\n              0x02\n                /* \"#utility.yul\":10587:10593   */\n              dup9\n                /* \"#utility.yul\":10583:10597   */\n              mul\n                /* \"#utility.yul\":10579:10601   */\n              add\n                /* \"#utility.yul\":10573:10577   */\n              dup9\n                /* \"#utility.yul\":10566:10602   */\n              sstore\n                /* \"#utility.yul\":10001:10612   */\n              pop\n              pop\n              pop\n                /* \"#utility.yul\":9964:10851   */\n            tag_204:\n              pop\n                /* \"#utility.yul\":9554:10857   */\n              pop\n              pop\n              pop\n                /* \"#utility.yul\":9462:10857   */\n              pop\n              pop\n              jump\t// out\n                /* \"#utility.yul\":10863:11011   */\n            tag_85:\n                /* \"#utility.yul\":10965:10976   */\n              0x00\n                /* \"#utility.yul\":11002:11005   */\n              dup2\n                /* \"#utility.yul\":10987:11005   */\n              swap1\n              pop\n                /* \"#utility.yul\":10863:11011   */\n              swap3\n              swap2\n              pop\n              pop\n              jump\t// out\n                /* \"#utility.yul\":11017:11407   */\n            tag_86:\n                /* \"#utility.yul\":11123:11126   */\n              0x00\n                /* \"#utility.yul\":11151:11190   */\n              tag_216\n                /* \"#utility.yul\":11184:11189   */\n              dup3\n                /* \"#utility.yul\":11151:11190   */\n              tag_65\n              jump\t// in\n            tag_216:\n                /* \"#utility.yul\":11206:11295   */\n              tag_217\n                /* \"#utility.yul\":11288:11294   */\n              dup2\n                /* \"#utility.yul\":11283:11286   */\n              dup6\n                /* \"#utility.yul\":11206:11295   */\n              tag_85\n              jump\t// in\n            tag_217:\n                /* \"#utility.yul\":11199:11295   */\n              swap4\n              pop\n                /* \"#utility.yul\":11304:11369   */\n              tag_218\n                /* \"#utility.yul\":11362:11368   */\n              dup2\n                /* \"#utility.yul\":11357:11360   */\n              dup6\n                /* \"#utility.yul\":11350:11354   */\n              0x20\n                /* \"#utility.yul\":11343:11348   */\n              dup7\n                /* \"#utility.yul\":11339:11355   */\n              add\n                /* \"#utility.yul\":11304:11369   */\n              tag_67\n              jump\t// in\n            tag_218:\n                /* \"#utility.yul\":11394:11400   */\n              dup1\n                /* \"#utility.yul\":11389:11392   */\n              dup5\n                /* \"#utility.yul\":11385:11401   */\n              add\n                /* \"#utility.yul\":11378:11401   */\n              swap2\n              pop\n                /* \"#utility.yul\":11127:11407   */\n              pop\n                /* \"#utility.yul\":11017:11407   */\n              swap3\n              swap2\n              pop\n              pop\n              jump\t// out\n                /* \"#utility.yul\":11413:11688   */\n            tag_36:\n                /* \"#utility.yul\":11545:11548   */\n              0x00\n                /* \"#utility.yul\":11567:11662   */\n              tag_220\n                /* \"#utility.yul\":11658:11661   */\n              dup3\n                /* \"#utility.yul\":11649:11655   */\n              dup5\n                /* \"#utility.yul\":11567:11662   */\n              tag_86\n              jump\t// in\n            tag_220:\n                /* \"#utility.yul\":11560:11662   */\n              swap2\n              pop\n                /* \"#utility.yul\":11679:11682   */\n              dup2\n                /* \"#utility.yul\":11672:11682   */\n              swap1\n              pop\n                /* \"#utility.yul\":11413:11688   */\n              swap3\n              swap2\n              pop\n              pop\n              jump\t// out\n                /* \"#utility.yul\":11694:11874   */\n            tag_87:\n                /* \"#utility.yul\":11742:11819   */\n              0x4e487b7100000000000000000000000000000000000000000000000000000000\n                /* \"#utility.yul\":11739:11740   */\n              0x00\n                /* \"#utility.yul\":11732:11820   */\n              mstore\n                /* \"#utility.yul\":11839:11843   */\n              0x11\n                /* \"#utility.yul\":11836:11837   */\n              0x04\n                /* \"#utility.yul\":11829:11844   */\n              mstore\n                /* \"#utility.yul\":11863:11867   */\n              0x24\n                /* \"#utility.yul\":11860:11861   */\n              0x00\n                /* \"#utility.yul\":11853:11868   */\n              revert\n                /* \"#utility.yul\":11880:12113   */\n            tag_39:\n                /* \"#utility.yul\":11919:11922   */\n              0x00\n                /* \"#utility.yul\":11942:11966   */\n              tag_223\n                /* \"#utility.yul\":11960:11965   */\n              dup3\n                /* \"#utility.yul\":11942:11966   */\n              tag_48\n              jump\t// in\n            tag_223:\n                /* \"#utility.yul\":11933:11966   */\n              swap2\n              pop\n                /* \"#utility.yul\":11988:12054   */\n              0xffffffffffffffffffffffffffffffffffffffffffffffffffffffffffffffff\n                /* \"#utility.yul\":11981:11986   */\n              dup3\n                /* \"#utility.yul\":11978:12055   */\n              sub\n                /* \"#utility.yul\":11975:12078   */\n              tag_224\n              jumpi\n                /* \"#utility.yul\":12058:12076   */\n              tag_225\n              tag_87\n              jump\t// in\n            tag_225:\n                /* \"#utility.yul\":11975:12078   */\n            tag_224:\n                /* \"#utility.yul\":12105:12106   */\n              0x01\n                /* \"#utility.yul\":12098:12103   */\n              dup3\n                /* \"#utility.yul\":12094:12107   */\n              add\n                /* \"#utility.yul\":12087:12107   */\n              swap1\n              pop\n                /* \"#utility.yul\":11880:12113   */\n              swap2\n              swap1\n              pop\n              jump\t// out\n\n            auxdata: 0xa26469706673582212204b1bb5b9178148f129325f6f4e286008a6ac6964d299551fff93861dba9500d164736f6c634300081a0033\n        }\n    }\n\n    auxdata: 0xa2646970667358221220bbb1ad81bc087e34688c020817999d7294f94d7f5b79d5dfc7d3f4ac8af5cfc664736f6c634300081a0033\n}\n",
				"bytecode": {
					"linkReferences": {},
					"object": "6080604052348015600e575f80fd5b506114198061001c5f395ff3fe608060405234801561000f575f80fd5b5060043610610055575f3560e01c80630e031ab1146100595780630f96cf34146100895780631dda6541146100b95780636efafab3146100c3578063ec2b45ae146100df575b5f80fd5b610073600480360381019061006e919061040b565b61010f565b60405161008091906104b0565b60405180910390f35b6100a3600480360381019061009e919061040b565b610149565b6040516100b091906104e9565b60405180910390f35b6100c1610184565b005b6100dd60048036038101906100d89190610502565b61026f565b005b6100f960048036038101906100f4919061040b565b610318565b604051610106919061054f565b60405180910390f35b5f818154811061011d575f80fd5b905f5260205f20015f915054906101000a900473ffffffffffffffffffffffffffffffffffffffff1681565b60018181548110610158575f80fd5b905f5260205f20015f915054906101000a900473ffffffffffffffffffffffffffffffffffffffff1681565b5f604051610191906103c7565b604051809103905ff0801580156101aa573d5f803e3d5ffd5b5090505f81908060018154018082558091505060019003905f5260205f20015f9091909190916101000a81548173ffffffffffffffffffffffffffffffffffffffff021916908373ffffffffffffffffffffffffffffffffffffffff160217905550600181908060018154018082558091505060019003905f5260205f20015f9091909190916101000a81548173ffffffffffffffffffffffffffffffffffffffff021916908373ffffffffffffffffffffffffffffffffffffffff16021790555050565b5f80838154811061028357610282610568565b5b905f5260205f20015f9054906101000a900473ffffffffffffffffffffffffffffffffffffffff1690508073ffffffffffffffffffffffffffffffffffffffff16639a67c8b1836040518263ffffffff1660e01b81526004016102e6919061054f565b5f604051808303815f87803b1580156102fd575f80fd5b505af115801561030f573d5f803e3d5ffd5b50505050505050565b5f80828154811061032c5761032b610568565b5b905f5260205f20015f9054906101000a900473ffffffffffffffffffffffffffffffffffffffff1673ffffffffffffffffffffffffffffffffffffffff166367e0badb6040518163ffffffff1660e01b8152600401602060405180830381865afa15801561039c573d5f803e3d5ffd5b505050506040513d601f19601f820116820180604052508101906103c091906105a9565b9050919050565b610e0f806105d583390190565b5f80fd5b5f819050919050565b6103ea816103d8565b81146103f4575f80fd5b50565b5f81359050610405816103e1565b92915050565b5f602082840312156104205761041f6103d4565b5b5f61042d848285016103f7565b91505092915050565b5f73ffffffffffffffffffffffffffffffffffffffff82169050919050565b5f819050919050565b5f61047861047361046e84610436565b610455565b610436565b9050919050565b5f6104898261045e565b9050919050565b5f61049a8261047f565b9050919050565b6104aa81610490565b82525050565b5f6020820190506104c35f8301846104a1565b92915050565b5f6104d382610436565b9050919050565b6104e3816104c9565b82525050565b5f6020820190506104fc5f8301846104da565b92915050565b5f8060408385031215610518576105176103d4565b5b5f610525858286016103f7565b9250506020610536858286016103f7565b9150509250929050565b610549816103d8565b82525050565b5f6020820190506105625f830184610540565b92915050565b7f4e487b71000000000000000000000000000000000000000000000000000000005f52603260045260245ffd5b5f815190506105a3816103e1565b92915050565b5f602082840312156105be576105bd6103d4565b5b5f6105cb84828501610595565b9150509291505056fe608060405260015f806101000a81548160ff0219169083151502179055507fffffffffffffffffffffffffffffffffffffffffffffffffffffffffffffff9c5f60016101000a81548160ff02191690835f0b60ff1602179055506040518060400160405280600381526020017f74656e00000000000000000000000000000000000000000000000000000000008152506001908161009d91906103ce565b5073d0c47728dc490a4485709ca76f12d23cf842aa8760025f6101000a81548173ffffffffffffffffffffffffffffffffffffffff021916908373ffffffffffffffffffffffffffffffffffffffff1602179055507f63617400000000000000000000000000000000000000000000000000000000006003556040518060400160405280600281526020016040518060400160405280600481526020017f6e69636b0000000000000000000000000000000000000000000000000000000081525081525060055f820151815f0155602082015181600101908161018091906103ce565b50505034801561018e575f80fd5b5061049d565b5f81519050919050565b7f4e487b71000000000000000000000000000000000000000000000000000000005f52604160045260245ffd5b7f4e487b71000000000000000000000000000000000000000000000000000000005f52602260045260245ffd5b5f600282049050600182168061020f57607f821691505b602082108103610222576102216101cb565b5b50919050565b5f819050815f5260205f209050919050565b5f6020601f8301049050919050565b5f82821b905092915050565b5f600883026102847fffffffffffffffffffffffffffffffffffffffffffffffffffffffffffffffff82610249565b61028e8683610249565b95508019841693508086168417925050509392505050565b5f819050919050565b5f819050919050565b5f6102d26102cd6102c8846102a6565b6102af565b6102a6565b9050919050565b5f819050919050565b6102eb836102b8565b6102ff6102f7826102d9565b848454610255565b825550505050565b5f90565b610313610307565b61031e8184846102e2565b505050565b5b81811015610341576103365f8261030b565b600181019050610324565b5050565b601f8211156103865761035781610228565b6103608461023a565b8101602085101561036f578190505b61038361037b8561023a565b830182610323565b50505b505050565b5f82821c905092915050565b5f6103a65f198460080261038b565b1980831691505092915050565b5f6103be8383610397565b9150826002028217905092915050565b6103d782610194565b67ffffffffffffffff8111156103f0576103ef61019e565b5b6103fa82546101f8565b610405828285610345565b5f60209050601f831160018114610436575f8415610424578287015190505b61042e85826103b3565b865550610495565b601f19841661044486610228565b5f5b8281101561046b57848901518255600182019150602085019450602081019050610446565b868310156104885784890151610484601f891682610397565b8355505b6001600288020188555050505b505050505050565b610965806104aa5f395ff3fe608060405234801561000f575f80fd5b5060043610610055575f3560e01c806367e0badb146100595780636f760f411461007757806392fa9da3146100935780639a67c8b1146100c3578063a4e1ca5a146100df575b5f80fd5b610061610110565b60405161006e91906102b8565b60405180910390f35b610091600480360381019061008c9190610448565b610119565b005b6100ad60048036038101906100a891906104a2565b61019d565b6040516100ba91906102b8565b60405180910390f35b6100dd60048036038101906100d891906104e9565b6101ca565b005b6100f960048036038101906100f491906104e9565b6101eb565b604051610107929190610574565b60405180910390f35b5f600454905090565b6008604051806040016040528083815260200184815250908060018154018082558091505060019003905f5260205f2090600202015f909190919091505f820151815f01556020820151816001019081610173919061079c565b5050508060098360405161018791906108a5565b9081526020016040518091039020819055505050565b6009818051602081018201805184825260208301602085012081835280955050505050505f915090505481565b8060048190555060045f8154809291906101e3906108e8565b919050555050565b600881815481106101fa575f80fd5b905f5260205f2090600202015f91509050805f01549080600101805461021f906105cf565b80601f016020809104026020016040519081016040528092919081815260200182805461024b906105cf565b80156102965780601f1061026d57610100808354040283529160200191610296565b820191905f5260205f20905b81548152906001019060200180831161027957829003601f168201915b5050505050905082565b5f819050919050565b6102b2816102a0565b82525050565b5f6020820190506102cb5f8301846102a9565b92915050565b5f604051905090565b5f80fd5b5f80fd5b5f80fd5b5f80fd5b5f601f19601f8301169050919050565b7f4e487b71000000000000000000000000000000000000000000000000000000005f52604160045260245ffd5b610330826102ea565b810181811067ffffffffffffffff8211171561034f5761034e6102fa565b5b80604052505050565b5f6103616102d1565b905061036d8282610327565b919050565b5f67ffffffffffffffff82111561038c5761038b6102fa565b5b610395826102ea565b9050602081019050919050565b828183375f83830152505050565b5f6103c26103bd84610372565b610358565b9050828152602081018484840111156103de576103dd6102e6565b5b6103e98482856103a2565b509392505050565b5f82601f830112610405576104046102e2565b5b81356104158482602086016103b0565b91505092915050565b610427816102a0565b8114610431575f80fd5b50565b5f813590506104428161041e565b92915050565b5f806040838503121561045e5761045d6102da565b5b5f83013567ffffffffffffffff81111561047b5761047a6102de565b5b610487858286016103f1565b925050602061049885828601610434565b9150509250929050565b5f602082840312156104b7576104b66102da565b5b5f82013567ffffffffffffffff8111156104d4576104d36102de565b5b6104e0848285016103f1565b91505092915050565b5f602082840312156104fe576104fd6102da565b5b5f61050b84828501610434565b91505092915050565b5f81519050919050565b5f82825260208201905092915050565b8281835e5f83830152505050565b5f61054682610514565b610550818561051e565b935061056081856020860161052e565b610569816102ea565b840191505092915050565b5f6040820190506105875f8301856102a9565b8181036020830152610599818461053c565b90509392505050565b7f4e487b71000000000000000000000000000000000000000000000000000000005f52602260045260245ffd5b5f60028204905060018216806105e657607f821691505b6020821081036105f9576105f86105a2565b5b50919050565b5f819050815f5260205f209050919050565b5f6020601f8301049050919050565b5f82821b905092915050565b5f6008830261065b7fffffffffffffffffffffffffffffffffffffffffffffffffffffffffffffffff82610620565b6106658683610620565b95508019841693508086168417925050509392505050565b5f819050919050565b5f6106a061069b610696846102a0565b61067d565b6102a0565b9050919050565b5f819050919050565b6106b983610686565b6106cd6106c5826106a7565b84845461062c565b825550505050565b5f90565b6106e16106d5565b6106ec8184846106b0565b505050565b5b8181101561070f576107045f826106d9565b6001810190506106f2565b5050565b601f82111561075457610725816105ff565b61072e84610611565b8101602085101561073d578190505b61075161074985610611565b8301826106f1565b50505b505050565b5f82821c905092915050565b5f6107745f1984600802610759565b1980831691505092915050565b5f61078c8383610765565b9150826002028217905092915050565b6107a582610514565b67ffffffffffffffff8111156107be576107bd6102fa565b5b6107c882546105cf565b6107d3828285610713565b5f60209050601f831160018114610804575f84156107f2578287015190505b6107fc8582610781565b865550610863565b601f198416610812866105ff565b5f5b8281101561083957848901518255600182019150602085019450602081019050610814565b868310156108565784890151610852601f891682610765565b8355505b6001600288020188555050505b505050505050565b5f81905092915050565b5f61087f82610514565b610889818561086b565b935061089981856020860161052e565b80840191505092915050565b5f6108b08284610875565b915081905092915050565b7f4e487b71000000000000000000000000000000000000000000000000000000005f52601160045260245ffd5b5f6108f2826102a0565b91507fffffffffffffffffffffffffffffffffffffffffffffffffffffffffffffffff8203610924576109236108bb565b5b60018201905091905056fea26469706673582212204b1bb5b9178148f129325f6f4e286008a6ac6964d299551fff93861dba9500d164736f6c634300081a0033a2646970667358221220bbb1ad81bc087e34688c020817999d7294f94d7f5b79d5dfc7d3f4ac8af5cfc664736f6c634300081a0033",
					"opcodes": "PUSH1 0x80 PUSH1 0x40 MSTORE CALLVALUE DUP1 ISZERO PUSH1 0xE JUMPI PUSH0 DUP1 REVERT JUMPDEST POP PUSH2 0x1419 DUP1 PUSH2 0x1C PUSH0 CODECOPY PUSH0 RETURN INVALID PUSH1 0x80 PUSH1 0x40 MSTORE CALLVALUE DUP1 ISZERO PUSH2 0xF JUMPI PUSH0 DUP1 REVERT JUMPDEST POP PUSH1 0x4 CALLDATASIZE LT PUSH2 0x55 JUMPI PUSH0 CALLDATALOAD PUSH1 0xE0 SHR DUP1 PUSH4 0xE031AB1 EQ PUSH2 0x59 JUMPI DUP1 PUSH4 0xF96CF34 EQ PUSH2 0x89 JUMPI DUP1 PUSH4 0x1DDA6541 EQ PUSH2 0xB9 JUMPI DUP1 PUSH4 0x6EFAFAB3 EQ PUSH2 0xC3 JUMPI DUP1 PUSH4 0xEC2B45AE EQ PUSH2 0xDF JUMPI JUMPDEST PUSH0 DUP1 REVERT JUMPDEST PUSH2 0x73 PUSH1 0x4 DUP1 CALLDATASIZE SUB DUP2 ADD SWAP1 PUSH2 0x6E SWAP2 SWAP1 PUSH2 0x40B JUMP JUMPDEST PUSH2 0x10F JUMP JUMPDEST PUSH1 0x40 MLOAD PUSH2 0x80 SWAP2 SWAP1 PUSH2 0x4B0 JUMP JUMPDEST PUSH1 0x40 MLOAD DUP1 SWAP2 SUB SWAP1 RETURN JUMPDEST PUSH2 0xA3 PUSH1 0x4 DUP1 CALLDATASIZE SUB DUP2 ADD SWAP1 PUSH2 0x9E SWAP2 SWAP1 PUSH2 0x40B JUMP JUMPDEST PUSH2 0x149 JUMP JUMPDEST PUSH1 0x40 MLOAD PUSH2 0xB0 SWAP2 SWAP1 PUSH2 0x4E9 JUMP JUMPDEST PUSH1 0x40 MLOAD DUP1 SWAP2 SUB SWAP1 RETURN JUMPDEST PUSH2 0xC1 PUSH2 0x184 JUMP JUMPDEST STOP JUMPDEST PUSH2 0xDD PUSH1 0x4 DUP1 CALLDATASIZE SUB DUP2 ADD SWAP1 PUSH2 0xD8 SWAP2 SWAP1 PUSH2 0x502 JUMP JUMPDEST PUSH2 0x26F JUMP JUMPDEST STOP JUMPDEST PUSH2 0xF9 PUSH1 0x4 DUP1 CALLDATASIZE SUB DUP2 ADD SWAP1 PUSH2 0xF4 SWAP2 SWAP1 PUSH2 0x40B JUMP JUMPDEST PUSH2 0x318 JUMP JUMPDEST PUSH1 0x40 MLOAD PUSH2 0x106 SWAP2 SWAP1 PUSH2 0x54F JUMP JUMPDEST PUSH1 0x40 MLOAD DUP1 SWAP2 SUB SWAP1 RETURN JUMPDEST PUSH0 DUP2 DUP2 SLOAD DUP2 LT PUSH2 0x11D JUMPI PUSH0 DUP1 REVERT JUMPDEST SWAP1 PUSH0 MSTORE PUSH1 0x20 PUSH0 KECCAK256 ADD PUSH0 SWAP2 POP SLOAD SWAP1 PUSH2 0x100 EXP SWAP1 DIV PUSH20 0xFFFFFFFFFFFFFFFFFFFFFFFFFFFFFFFFFFFFFFFF AND DUP2 JUMP JUMPDEST PUSH1 0x1 DUP2 DUP2 SLOAD DUP2 LT PUSH2 0x158 JUMPI PUSH0 DUP1 REVERT JUMPDEST SWAP1 PUSH0 MSTORE PUSH1 0x20 PUSH0 KECCAK256 ADD PUSH0 SWAP2 POP SLOAD SWAP1 PUSH2 0x100 EXP SWAP1 DIV PUSH20 0xFFFFFFFFFFFFFFFFFFFFFFFFFFFFFFFFFFFFFFFF AND DUP2 JUMP JUMPDEST PUSH0 PUSH1 0x40 MLOAD PUSH2 0x191 SWAP1 PUSH2 0x3C7 JUMP JUMPDEST PUSH1 0x40 MLOAD DUP1 SWAP2 SUB SWAP1 PUSH0 CREATE DUP1 ISZERO DUP1 ISZERO PUSH2 0x1AA JUMPI RETURNDATASIZE PUSH0 DUP1 RETURNDATACOPY RETURNDATASIZE PUSH0 REVERT JUMPDEST POP SWAP1 POP PUSH0 DUP2 SWAP1 DUP1 PUSH1 0x1 DUP2 SLOAD ADD DUP1 DUP3 SSTORE DUP1 SWAP2 POP POP PUSH1 0x1 SWAP1 SUB SWAP1 PUSH0 MSTORE PUSH1 0x20 PUSH0 KECCAK256 ADD PUSH0 SWAP1 SWAP2 SWAP1 SWAP2 SWAP1 SWAP2 PUSH2 0x100 EXP DUP2 SLOAD DUP2 PUSH20 0xFFFFFFFFFFFFFFFFFFFFFFFFFFFFFFFFFFFFFFFF MUL NOT AND SWAP1 DUP4 PUSH20 0xFFFFFFFFFFFFFFFFFFFFFFFFFFFFFFFFFFFFFFFF AND MUL OR SWAP1 SSTORE POP PUSH1 0x1 DUP2 SWAP1 DUP1 PUSH1 0x1 DUP2 SLOAD ADD DUP1 DUP3 SSTORE DUP1 SWAP2 POP POP PUSH1 0x1 SWAP1 SUB SWAP1 PUSH0 MSTORE PUSH1 0x20 PUSH0 KECCAK256 ADD PUSH0 SWAP1 SWAP2 SWAP1 SWAP2 SWAP1 SWAP2 PUSH2 0x100 EXP DUP2 SLOAD DUP2 PUSH20 0xFFFFFFFFFFFFFFFFFFFFFFFFFFFFFFFFFFFFFFFF MUL NOT AND SWAP1 DUP4 PUSH20 0xFFFFFFFFFFFFFFFFFFFFFFFFFFFFFFFFFFFFFFFF AND MUL OR SWAP1 SSTORE POP POP JUMP JUMPDEST PUSH0 DUP1 DUP4 DUP2 SLOAD DUP2 LT PUSH2 0x283 JUMPI PUSH2 0x282 PUSH2 0x568 JUMP JUMPDEST JUMPDEST SWAP1 PUSH0 MSTORE PUSH1 0x20 PUSH0 KECCAK256 ADD PUSH0 SWAP1 SLOAD SWAP1 PUSH2 0x100 EXP SWAP1 DIV PUSH20 0xFFFFFFFFFFFFFFFFFFFFFFFFFFFFFFFFFFFFFFFF AND SWAP1 POP DUP1 PUSH20 0xFFFFFFFFFFFFFFFFFFFFFFFFFFFFFFFFFFFFFFFF AND PUSH4 0x9A67C8B1 DUP4 PUSH1 0x40 MLOAD DUP3 PUSH4 0xFFFFFFFF AND PUSH1 0xE0 SHL DUP2 MSTORE PUSH1 0x4 ADD PUSH2 0x2E6 SWAP2 SWAP1 PUSH2 0x54F JUMP JUMPDEST PUSH0 PUSH1 0x40 MLOAD DUP1 DUP4 SUB DUP2 PUSH0 DUP8 DUP1 EXTCODESIZE ISZERO DUP1 ISZERO PUSH2 0x2FD JUMPI PUSH0 DUP1 REVERT JUMPDEST POP GAS CALL ISZERO DUP1 ISZERO PUSH2 0x30F JUMPI RETURNDATASIZE PUSH0 DUP1 RETURNDATACOPY RETURNDATASIZE PUSH0 REVERT JUMPDEST POP POP POP POP POP POP POP JUMP JUMPDEST PUSH0 DUP1 DUP3 DUP2 SLOAD DUP2 LT PUSH2 0x32C JUMPI PUSH2 0x32B PUSH2 0x568 JUMP JUMPDEST JUMPDEST SWAP1 PUSH0 MSTORE PUSH1 0x20 PUSH0 KECCAK256 ADD PUSH0 SWAP1 SLOAD SWAP1 PUSH2 0x100 EXP SWAP1 DIV PUSH20 0xFFFFFFFFFFFFFFFFFFFFFFFFFFFFFFFFFFFFFFFF AND PUSH20 0xFFFFFFFFFFFFFFFFFFFFFFFFFFFFFFFFFFFFFFFF AND PUSH4 0x67E0BADB PUSH1 0x40 MLOAD DUP2 PUSH4 0xFFFFFFFF AND PUSH1 0xE0 SHL DUP2 MSTORE PUSH1 0x4 ADD PUSH1 0x20 PUSH1 0x40 MLOAD DUP1 DUP4 SUB DUP2 DUP7 GAS STATICCALL ISZERO DUP1 ISZERO PUSH2 0x39C JUMPI RETURNDATASIZE PUSH0 DUP1 RETURNDATACOPY RETURNDATASIZE PUSH0 REVERT JUMPDEST POP POP POP POP PUSH1 0x40 MLOAD RETURNDATASIZE PUSH1 0x1F NOT PUSH1 0x1F DUP3 ADD AND DUP3 ADD DUP1 PUSH1 0x40 MSTORE POP DUP2 ADD SWAP1 PUSH2 0x3C0 SWAP2 SWAP1 PUSH2 0x5A9 JUMP JUMPDEST SWAP1 POP SWAP2 SWAP1 POP JUMP JUMPDEST PUSH2 0xE0F DUP1 PUSH2 0x5D5 DUP4 CODECOPY ADD SWAP1 JUMP JUMPDEST PUSH0 DUP1 REVERT JUMPDEST PUSH0 DUP2 SWAP1 POP SWAP2 SWAP1 POP JUMP JUMPDEST PUSH2 0x3EA DUP2 PUSH2 0x3D8 JUMP JUMPDEST DUP2 EQ PUSH2 0x3F4 JUMPI PUSH0 DUP1 REVERT JUMPDEST POP JUMP JUMPDEST PUSH0 DUP2 CALLDATALOAD SWAP1 POP PUSH2 0x405 DUP2 PUSH2 0x3E1 JUMP JUMPDEST SWAP3 SWAP2 POP POP JUMP JUMPDEST PUSH0 PUSH1 0x20 DUP3 DUP5 SUB SLT ISZERO PUSH2 0x420 JUMPI PUSH2 0x41F PUSH2 0x3D4 JUMP JUMPDEST JUMPDEST PUSH0 PUSH2 0x42D DUP5 DUP3 DUP6 ADD PUSH2 0x3F7 JUMP JUMPDEST SWAP2 POP POP SWAP3 SWAP2 POP POP JUMP JUMPDEST PUSH0 PUSH20 0xFFFFFFFFFFFFFFFFFFFFFFFFFFFFFFFFFFFFFFFF DUP3 AND SWAP1 POP SWAP2 SWAP1 POP JUMP JUMPDEST PUSH0 DUP2 SWAP1 POP SWAP2 SWAP1 POP JUMP JUMPDEST PUSH0 PUSH2 0x478 PUSH2 0x473 PUSH2 0x46E DUP5 PUSH2 0x436 JUMP JUMPDEST PUSH2 0x455 JUMP JUMPDEST PUSH2 0x436 JUMP JUMPDEST SWAP1 POP SWAP2 SWAP1 POP JUMP JUMPDEST PUSH0 PUSH2 0x489 DUP3 PUSH2 0x45E JUMP JUMPDEST SWAP1 POP SWAP2 SWAP1 POP JUMP JUMPDEST PUSH0 PUSH2 0x49A DUP3 PUSH2 0x47F JUMP JUMPDEST SWAP1 POP SWAP2 SWAP1 POP JUMP JUMPDEST PUSH2 0x4AA DUP2 PUSH2 0x490 JUMP JUMPDEST DUP3 MSTORE POP POP JUMP JUMPDEST PUSH0 PUSH1 0x20 DUP3 ADD SWAP1 POP PUSH2 0x4C3 PUSH0 DUP4 ADD DUP5 PUSH2 0x4A1 JUMP JUMPDEST SWAP3 SWAP2 POP POP JUMP JUMPDEST PUSH0 PUSH2 0x4D3 DUP3 PUSH2 0x436 JUMP JUMPDEST SWAP1 POP SWAP2 SWAP1 POP JUMP JUMPDEST PUSH2 0x4E3 DUP2 PUSH2 0x4C9 JUMP JUMPDEST DUP3 MSTORE POP POP JUMP JUMPDEST PUSH0 PUSH1 0x20 DUP3 ADD SWAP1 POP PUSH2 0x4FC PUSH0 DUP4 ADD DUP5 PUSH2 0x4DA JUMP JUMPDEST SWAP3 SWAP2 POP POP JUMP JUMPDEST PUSH0 DUP1 PUSH1 0x40 DUP4 DUP6 SUB SLT ISZERO PUSH2 0x518 JUMPI PUSH2 0x517 PUSH2 0x3D4 JUMP JUMPDEST JUMPDEST PUSH0 PUSH2 0x525 DUP6 DUP3 DUP7 ADD PUSH2 0x3F7 JUMP JUMPDEST SWAP3 POP POP PUSH1 0x20 PUSH2 0x536 DUP6 DUP3 DUP7 ADD PUSH2 0x3F7 JUMP JUMPDEST SWAP2 POP POP SWAP3 POP SWAP3 SWAP1 POP JUMP JUMPDEST PUSH2 0x549 DUP2 PUSH2 0x3D8 JUMP JUMPDEST DUP3 MSTORE POP POP JUMP JUMPDEST PUSH0 PUSH1 0x20 DUP3 ADD SWAP1 POP PUSH2 0x562 PUSH0 DUP4 ADD DUP5 PUSH2 0x540 JUMP JUMPDEST SWAP3 SWAP2 POP POP JUMP JUMPDEST PUSH32 0x4E487B7100000000000000000000000000000000000000000000000000000000 PUSH0 MSTORE PUSH1 0x32 PUSH1 0x4 MSTORE PUSH1 0x24 PUSH0 REVERT JUMPDEST PUSH0 DUP2 MLOAD SWAP1 POP PUSH2 0x5A3 DUP2 PUSH2 0x3E1 JUMP JUMPDEST SWAP3 SWAP2 POP POP JUMP JUMPDEST PUSH0 PUSH1 0x20 DUP3 DUP5 SUB SLT ISZERO PUSH2 0x5BE JUMPI PUSH2 0x5BD PUSH2 0x3D4 JUMP JUMPDEST JUMPDEST PUSH0 PUSH2 0x5CB DUP5 DUP3 DUP6 ADD PUSH2 0x595 JUMP JUMPDEST SWAP2 POP POP SWAP3 SWAP2 POP POP JUMP INVALID PUSH1 0x80 PUSH1 0x40 MSTORE PUSH1 0x1 PUSH0 DUP1 PUSH2 0x100 EXP DUP2 SLOAD DUP2 PUSH1 0xFF MUL NOT AND SWAP1 DUP4 ISZERO ISZERO MUL OR SWAP1 SSTORE POP PUSH32 0xFFFFFFFFFFFFFFFFFFFFFFFFFFFFFFFFFFFFFFFFFFFFFFFFFFFFFFFFFFFFFF9C PUSH0 PUSH1 0x1 PUSH2 0x100 EXP DUP2 SLOAD DUP2 PUSH1 0xFF MUL NOT AND SWAP1 DUP4 PUSH0 SIGNEXTEND PUSH1 0xFF AND MUL OR SWAP1 SSTORE POP PUSH1 0x40 MLOAD DUP1 PUSH1 0x40 ADD PUSH1 0x40 MSTORE DUP1 PUSH1 0x3 DUP2 MSTORE PUSH1 0x20 ADD PUSH32 0x74656E0000000000000000000000000000000000000000000000000000000000 DUP2 MSTORE POP PUSH1 0x1 SWAP1 DUP2 PUSH2 0x9D SWAP2 SWAP1 PUSH2 0x3CE JUMP JUMPDEST POP PUSH20 0xD0C47728DC490A4485709CA76F12D23CF842AA87 PUSH1 0x2 PUSH0 PUSH2 0x100 EXP DUP2 SLOAD DUP2 PUSH20 0xFFFFFFFFFFFFFFFFFFFFFFFFFFFFFFFFFFFFFFFF MUL NOT AND SWAP1 DUP4 PUSH20 0xFFFFFFFFFFFFFFFFFFFFFFFFFFFFFFFFFFFFFFFF AND MUL OR SWAP1 SSTORE POP PUSH32 0x6361740000000000000000000000000000000000000000000000000000000000 PUSH1 0x3 SSTORE PUSH1 0x40 MLOAD DUP1 PUSH1 0x40 ADD PUSH1 0x40 MSTORE DUP1 PUSH1 0x2 DUP2 MSTORE PUSH1 0x20 ADD PUSH1 0x40 MLOAD DUP1 PUSH1 0x40 ADD PUSH1 0x40 MSTORE DUP1 PUSH1 0x4 DUP2 MSTORE PUSH1 0x20 ADD PUSH32 0x6E69636B00000000000000000000000000000000000000000000000000000000 DUP2 MSTORE POP DUP2 MSTORE POP PUSH1 0x5 PUSH0 DUP3 ADD MLOAD DUP2 PUSH0 ADD SSTORE PUSH1 0x20 DUP3 ADD MLOAD DUP2 PUSH1 0x1 ADD SWAP1 DUP2 PUSH2 0x180 SWAP2 SWAP1 PUSH2 0x3CE JUMP JUMPDEST POP POP POP CALLVALUE DUP1 ISZERO PUSH2 0x18E JUMPI PUSH0 DUP1 REVERT JUMPDEST POP PUSH2 0x49D JUMP JUMPDEST PUSH0 DUP2 MLOAD SWAP1 POP SWAP2 SWAP1 POP JUMP JUMPDEST PUSH32 0x4E487B7100000000000000000000000000000000000000000000000000000000 PUSH0 MSTORE PUSH1 0x41 PUSH1 0x4 MSTORE PUSH1 0x24 PUSH0 REVERT JUMPDEST PUSH32 0x4E487B7100000000000000000000000000000000000000000000000000000000 PUSH0 MSTORE PUSH1 0x22 PUSH1 0x4 MSTORE PUSH1 0x24 PUSH0 REVERT JUMPDEST PUSH0 PUSH1 0x2 DUP3 DIV SWAP1 POP PUSH1 0x1 DUP3 AND DUP1 PUSH2 0x20F JUMPI PUSH1 0x7F DUP3 AND SWAP2 POP JUMPDEST PUSH1 0x20 DUP3 LT DUP2 SUB PUSH2 0x222 JUMPI PUSH2 0x221 PUSH2 0x1CB JUMP JUMPDEST JUMPDEST POP SWAP2 SWAP1 POP JUMP JUMPDEST PUSH0 DUP2 SWAP1 POP DUP2 PUSH0 MSTORE PUSH1 0x20 PUSH0 KECCAK256 SWAP1 POP SWAP2 SWAP1 POP JUMP JUMPDEST PUSH0 PUSH1 0x20 PUSH1 0x1F DUP4 ADD DIV SWAP1 POP SWAP2 SWAP1 POP JUMP JUMPDEST PUSH0 DUP3 DUP3 SHL SWAP1 POP SWAP3 SWAP2 POP POP JUMP JUMPDEST PUSH0 PUSH1 0x8 DUP4 MUL PUSH2 0x284 PUSH32 0xFFFFFFFFFFFFFFFFFFFFFFFFFFFFFFFFFFFFFFFFFFFFFFFFFFFFFFFFFFFFFFFF DUP3 PUSH2 0x249 JUMP JUMPDEST PUSH2 0x28E DUP7 DUP4 PUSH2 0x249 JUMP JUMPDEST SWAP6 POP DUP1 NOT DUP5 AND SWAP4 POP DUP1 DUP7 AND DUP5 OR SWAP3 POP POP POP SWAP4 SWAP3 POP POP POP JUMP JUMPDEST PUSH0 DUP2 SWAP1 POP SWAP2 SWAP1 POP JUMP JUMPDEST PUSH0 DUP2 SWAP1 POP SWAP2 SWAP1 POP JUMP JUMPDEST PUSH0 PUSH2 0x2D2 PUSH2 0x2CD PUSH2 0x2C8 DUP5 PUSH2 0x2A6 JUMP JUMPDEST PUSH2 0x2AF JUMP JUMPDEST PUSH2 0x2A6 JUMP JUMPDEST SWAP1 POP SWAP2 SWAP1 POP JUMP JUMPDEST PUSH0 DUP2 SWAP1 POP SWAP2 SWAP1 POP JUMP JUMPDEST PUSH2 0x2EB DUP4 PUSH2 0x2B8 JUMP JUMPDEST PUSH2 0x2FF PUSH2 0x2F7 DUP3 PUSH2 0x2D9 JUMP JUMPDEST DUP5 DUP5 SLOAD PUSH2 0x255 JUMP JUMPDEST DUP3 SSTORE POP POP POP POP JUMP JUMPDEST PUSH0 SWAP1 JUMP JUMPDEST PUSH2 0x313 PUSH2 0x307 JUMP JUMPDEST PUSH2 0x31E DUP2 DUP5 DUP5 PUSH2 0x2E2 JUMP JUMPDEST POP POP POP JUMP JUMPDEST JUMPDEST DUP2 DUP2 LT ISZERO PUSH2 0x341 JUMPI PUSH2 0x336 PUSH0 DUP3 PUSH2 0x30B JUMP JUMPDEST PUSH1 0x1 DUP2 ADD SWAP1 POP PUSH2 0x324 JUMP JUMPDEST POP POP JUMP JUMPDEST PUSH1 0x1F DUP3 GT ISZERO PUSH2 0x386 JUMPI PUSH2 0x357 DUP2 PUSH2 0x228 JUMP JUMPDEST PUSH2 0x360 DUP5 PUSH2 0x23A JUMP JUMPDEST DUP2 ADD PUSH1 0x20 DUP6 LT ISZERO PUSH2 0x36F JUMPI DUP2 SWAP1 POP JUMPDEST PUSH2 0x383 PUSH2 0x37B DUP6 PUSH2 0x23A JUMP JUMPDEST DUP4 ADD DUP3 PUSH2 0x323 JUMP JUMPDEST POP POP JUMPDEST POP POP POP JUMP JUMPDEST PUSH0 DUP3 DUP3 SHR SWAP1 POP SWAP3 SWAP2 POP POP JUMP JUMPDEST PUSH0 PUSH2 0x3A6 PUSH0 NOT DUP5 PUSH1 0x8 MUL PUSH2 0x38B JUMP JUMPDEST NOT DUP1 DUP4 AND SWAP2 POP POP SWAP3 SWAP2 POP POP JUMP JUMPDEST PUSH0 PUSH2 0x3BE DUP4 DUP4 PUSH2 0x397 JUMP JUMPDEST SWAP2 POP DUP3 PUSH1 0x2 MUL DUP3 OR SWAP1 POP SWAP3 SWAP2 POP POP JUMP JUMPDEST PUSH2 0x3D7 DUP3 PUSH2 0x194 JUMP JUMPDEST PUSH8 0xFFFFFFFFFFFFFFFF DUP2 GT ISZERO PUSH2 0x3F0 JUMPI PUSH2 0x3EF PUSH2 0x19E JUMP JUMPDEST JUMPDEST PUSH2 0x3FA DUP3 SLOAD PUSH2 0x1F8 JUMP JUMPDEST PUSH2 0x405 DUP3 DUP3 DUP6 PUSH2 0x345 JUMP JUMPDEST PUSH0 PUSH1 0x20 SWAP1 POP PUSH1 0x1F DUP4 GT PUSH1 0x1 DUP2 EQ PUSH2 0x436 JUMPI PUSH0 DUP5 ISZERO PUSH2 0x424 JUMPI DUP3 DUP8 ADD MLOAD SWAP1 POP JUMPDEST PUSH2 0x42E DUP6 DUP3 PUSH2 0x3B3 JUMP JUMPDEST DUP7 SSTORE POP PUSH2 0x495 JUMP JUMPDEST PUSH1 0x1F NOT DUP5 AND PUSH2 0x444 DUP7 PUSH2 0x228 JUMP JUMPDEST PUSH0 JUMPDEST DUP3 DUP2 LT ISZERO PUSH2 0x46B JUMPI DUP5 DUP10 ADD MLOAD DUP3 SSTORE PUSH1 0x1 DUP3 ADD SWAP2 POP PUSH1 0x20 DUP6 ADD SWAP5 POP PUSH1 0x20 DUP2 ADD SWAP1 POP PUSH2 0x446 JUMP JUMPDEST DUP7 DUP4 LT ISZERO PUSH2 0x488 JUMPI DUP5 DUP10 ADD MLOAD PUSH2 0x484 PUSH1 0x1F DUP10 AND DUP3 PUSH2 0x397 JUMP JUMPDEST DUP4 SSTORE POP JUMPDEST PUSH1 0x1 PUSH1 0x2 DUP9 MUL ADD DUP9 SSTORE POP POP POP JUMPDEST POP POP POP POP POP POP JUMP JUMPDEST PUSH2 0x965 DUP1 PUSH2 0x4AA PUSH0 CODECOPY PUSH0 RETURN INVALID PUSH1 0x80 PUSH1 0x40 MSTORE CALLVALUE DUP1 ISZERO PUSH2 0xF JUMPI PUSH0 DUP1 REVERT JUMPDEST POP PUSH1 0x4 CALLDATASIZE LT PUSH2 0x55 JUMPI PUSH0 CALLDATALOAD PUSH1 0xE0 SHR DUP1 PUSH4 0x67E0BADB EQ PUSH2 0x59 JUMPI DUP1 PUSH4 0x6F760F41 EQ PUSH2 0x77 JUMPI DUP1 PUSH4 0x92FA9DA3 EQ PUSH2 0x93 JUMPI DUP1 PUSH4 0x9A67C8B1 EQ PUSH2 0xC3 JUMPI DUP1 PUSH4 0xA4E1CA5A EQ PUSH2 0xDF JUMPI JUMPDEST PUSH0 DUP1 REVERT JUMPDEST PUSH2 0x61 PUSH2 0x110 JUMP JUMPDEST PUSH1 0x40 MLOAD PUSH2 0x6E SWAP2 SWAP1 PUSH2 0x2B8 JUMP JUMPDEST PUSH1 0x40 MLOAD DUP1 SWAP2 SUB SWAP1 RETURN JUMPDEST PUSH2 0x91 PUSH1 0x4 DUP1 CALLDATASIZE SUB DUP2 ADD SWAP1 PUSH2 0x8C SWAP2 SWAP1 PUSH2 0x448 JUMP JUMPDEST PUSH2 0x119 JUMP JUMPDEST STOP JUMPDEST PUSH2 0xAD PUSH1 0x4 DUP1 CALLDATASIZE SUB DUP2 ADD SWAP1 PUSH2 0xA8 SWAP2 SWAP1 PUSH2 0x4A2 JUMP JUMPDEST PUSH2 0x19D JUMP JUMPDEST PUSH1 0x40 MLOAD PUSH2 0xBA SWAP2 SWAP1 PUSH2 0x2B8 JUMP JUMPDEST PUSH1 0x40 MLOAD DUP1 SWAP2 SUB SWAP1 RETURN JUMPDEST PUSH2 0xDD PUSH1 0x4 DUP1 CALLDATASIZE SUB DUP2 ADD SWAP1 PUSH2 0xD8 SWAP2 SWAP1 PUSH2 0x4E9 JUMP JUMPDEST PUSH2 0x1CA JUMP JUMPDEST STOP JUMPDEST PUSH2 0xF9 PUSH1 0x4 DUP1 CALLDATASIZE SUB DUP2 ADD SWAP1 PUSH2 0xF4 SWAP2 SWAP1 PUSH2 0x4E9 JUMP JUMPDEST PUSH2 0x1EB JUMP JUMPDEST PUSH1 0x40 MLOAD PUSH2 0x107 SWAP3 SWAP2 SWAP1 PUSH2 0x574 JUMP JUMPDEST PUSH1 0x40 MLOAD DUP1 SWAP2 SUB SWAP1 RETURN JUMPDEST PUSH0 PUSH1 0x4 SLOAD SWAP1 POP SWAP1 JUMP JUMPDEST PUSH1 0x8 PUSH1 0x40 MLOAD DUP1 PUSH1 0x40 ADD PUSH1 0x40 MSTORE DUP1 DUP4 DUP2 MSTORE PUSH1 0x20 ADD DUP5 DUP2 MSTORE POP SWAP1 DUP1 PUSH1 0x1 DUP2 SLOAD ADD DUP1 DUP3 SSTORE DUP1 SWAP2 POP POP PUSH1 0x1 SWAP1 SUB SWAP1 PUSH0 MSTORE PUSH1 0x20 PUSH0 KECCAK256 SWAP1 PUSH1 0x2 MUL ADD PUSH0 SWAP1 SWAP2 SWAP1 SWAP2 SWAP1 SWAP2 POP PUSH0 DUP3 ADD MLOAD DUP2 PUSH0 ADD SSTORE PUSH1 0x20 DUP3 ADD MLOAD DUP2 PUSH1 0x1 ADD SWAP1 DUP2 PUSH2 0x173 SWAP2 SWAP1 PUSH2 0x79C JUMP JUMPDEST POP POP POP DUP1 PUSH1 0x9 DUP4 PUSH1 0x40 MLOAD PUSH2 0x187 SWAP2 SWAP1 PUSH2 0x8A5 JUMP JUMPDEST SWAP1 DUP2 MSTORE PUSH1 0x20 ADD PUSH1 0x40 MLOAD DUP1 SWAP2 SUB SWAP1 KECCAK256 DUP2 SWAP1 SSTORE POP POP POP JUMP JUMPDEST PUSH1 0x9 DUP2 DUP1 MLOAD PUSH1 0x20 DUP2 ADD DUP3 ADD DUP1 MLOAD DUP5 DUP3 MSTORE PUSH1 0x20 DUP4 ADD PUSH1 0x20 DUP6 ADD KECCAK256 DUP2 DUP4 MSTORE DUP1 SWAP6 POP POP POP POP POP POP PUSH0 SWAP2 POP SWAP1 POP SLOAD DUP2 JUMP JUMPDEST DUP1 PUSH1 0x4 DUP2 SWAP1 SSTORE POP PUSH1 0x4 PUSH0 DUP2 SLOAD DUP1 SWAP3 SWAP2 SWAP1 PUSH2 0x1E3 SWAP1 PUSH2 0x8E8 JUMP JUMPDEST SWAP2 SWAP1 POP SSTORE POP POP JUMP JUMPDEST PUSH1 0x8 DUP2 DUP2 SLOAD DUP2 LT PUSH2 0x1FA JUMPI PUSH0 DUP1 REVERT JUMPDEST SWAP1 PUSH0 MSTORE PUSH1 0x20 PUSH0 KECCAK256 SWAP1 PUSH1 0x2 MUL ADD PUSH0 SWAP2 POP SWAP1 POP DUP1 PUSH0 ADD SLOAD SWAP1 DUP1 PUSH1 0x1 ADD DUP1 SLOAD PUSH2 0x21F SWAP1 PUSH2 0x5CF JUMP JUMPDEST DUP1 PUSH1 0x1F ADD PUSH1 0x20 DUP1 SWAP2 DIV MUL PUSH1 0x20 ADD PUSH1 0x40 MLOAD SWAP1 DUP2 ADD PUSH1 0x40 MSTORE DUP1 SWAP3 SWAP2 SWAP1 DUP2 DUP2 MSTORE PUSH1 0x20 ADD DUP3 DUP1 SLOAD PUSH2 0x24B SWAP1 PUSH2 0x5CF JUMP JUMPDEST DUP1 ISZERO PUSH2 0x296 JUMPI DUP1 PUSH1 0x1F LT PUSH2 0x26D JUMPI PUSH2 0x100 DUP1 DUP4 SLOAD DIV MUL DUP4 MSTORE SWAP2 PUSH1 0x20 ADD SWAP2 PUSH2 0x296 JUMP JUMPDEST DUP3 ADD SWAP2 SWAP1 PUSH0 MSTORE PUSH1 0x20 PUSH0 KECCAK256 SWAP1 JUMPDEST DUP2 SLOAD DUP2 MSTORE SWAP1 PUSH1 0x1 ADD SWAP1 PUSH1 0x20 ADD DUP1 DUP4 GT PUSH2 0x279 JUMPI DUP3 SWAP1 SUB PUSH1 0x1F AND DUP3 ADD SWAP2 JUMPDEST POP POP POP POP POP SWAP1 POP DUP3 JUMP JUMPDEST PUSH0 DUP2 SWAP1 POP SWAP2 SWAP1 POP JUMP JUMPDEST PUSH2 0x2B2 DUP2 PUSH2 0x2A0 JUMP JUMPDEST DUP3 MSTORE POP POP JUMP JUMPDEST PUSH0 PUSH1 0x20 DUP3 ADD SWAP1 POP PUSH2 0x2CB PUSH0 DUP4 ADD DUP5 PUSH2 0x2A9 JUMP JUMPDEST SWAP3 SWAP2 POP POP JUMP JUMPDEST PUSH0 PUSH1 0x40 MLOAD SWAP1 POP SWAP1 JUMP JUMPDEST PUSH0 DUP1 REVERT JUMPDEST PUSH0 DUP1 REVERT JUMPDEST PUSH0 DUP1 REVERT JUMPDEST PUSH0 DUP1 REVERT JUMPDEST PUSH0 PUSH1 0x1F NOT PUSH1 0x1F DUP4 ADD AND SWAP1 POP SWAP2 SWAP1 POP JUMP JUMPDEST PUSH32 0x4E487B7100000000000000000000000000000000000000000000000000000000 PUSH0 MSTORE PUSH1 0x41 PUSH1 0x4 MSTORE PUSH1 0x24 PUSH0 REVERT JUMPDEST PUSH2 0x330 DUP3 PUSH2 0x2EA JUMP JUMPDEST DUP2 ADD DUP2 DUP2 LT PUSH8 0xFFFFFFFFFFFFFFFF DUP3 GT OR ISZERO PUSH2 0x34F JUMPI PUSH2 0x34E PUSH2 0x2FA JUMP JUMPDEST JUMPDEST DUP1 PUSH1 0x40 MSTORE POP POP POP JUMP JUMPDEST PUSH0 PUSH2 0x361 PUSH2 0x2D1 JUMP JUMPDEST SWAP1 POP PUSH2 0x36D DUP3 DUP3 PUSH2 0x327 JUMP JUMPDEST SWAP2 SWAP1 POP JUMP JUMPDEST PUSH0 PUSH8 0xFFFFFFFFFFFFFFFF DUP3 GT ISZERO PUSH2 0x38C JUMPI PUSH2 0x38B PUSH2 0x2FA JUMP JUMPDEST JUMPDEST PUSH2 0x395 DUP3 PUSH2 0x2EA JUMP JUMPDEST SWAP1 POP PUSH1 0x20 DUP2 ADD SWAP1 POP SWAP2 SWAP1 POP JUMP JUMPDEST DUP3 DUP2 DUP4 CALLDATACOPY PUSH0 DUP4 DUP4 ADD MSTORE POP POP POP JUMP JUMPDEST PUSH0 PUSH2 0x3C2 PUSH2 0x3BD DUP5 PUSH2 0x372 JUMP JUMPDEST PUSH2 0x358 JUMP JUMPDEST SWAP1 POP DUP3 DUP2 MSTORE PUSH1 0x20 DUP2 ADD DUP5 DUP5 DUP5 ADD GT ISZERO PUSH2 0x3DE JUMPI PUSH2 0x3DD PUSH2 0x2E6 JUMP JUMPDEST JUMPDEST PUSH2 0x3E9 DUP5 DUP3 DUP6 PUSH2 0x3A2 JUMP JUMPDEST POP SWAP4 SWAP3 POP POP POP JUMP JUMPDEST PUSH0 DUP3 PUSH1 0x1F DUP4 ADD SLT PUSH2 0x405 JUMPI PUSH2 0x404 PUSH2 0x2E2 JUMP JUMPDEST JUMPDEST DUP2 CALLDATALOAD PUSH2 0x415 DUP5 DUP3 PUSH1 0x20 DUP7 ADD PUSH2 0x3B0 JUMP JUMPDEST SWAP2 POP POP SWAP3 SWAP2 POP POP JUMP JUMPDEST PUSH2 0x427 DUP2 PUSH2 0x2A0 JUMP JUMPDEST DUP2 EQ PUSH2 0x431 JUMPI PUSH0 DUP1 REVERT JUMPDEST POP JUMP JUMPDEST PUSH0 DUP2 CALLDATALOAD SWAP1 POP PUSH2 0x442 DUP2 PUSH2 0x41E JUMP JUMPDEST SWAP3 SWAP2 POP POP JUMP JUMPDEST PUSH0 DUP1 PUSH1 0x40 DUP4 DUP6 SUB SLT ISZERO PUSH2 0x45E JUMPI PUSH2 0x45D PUSH2 0x2DA JUMP JUMPDEST JUMPDEST PUSH0 DUP4 ADD CALLDATALOAD PUSH8 0xFFFFFFFFFFFFFFFF DUP2 GT ISZERO PUSH2 0x47B JUMPI PUSH2 0x47A PUSH2 0x2DE JUMP JUMPDEST JUMPDEST PUSH2 0x487 DUP6 DUP3 DUP7 ADD PUSH2 0x3F1 JUMP JUMPDEST SWAP3 POP POP PUSH1 0x20 PUSH2 0x498 DUP6 DUP3 DUP7 ADD PUSH2 0x434 JUMP JUMPDEST SWAP2 POP POP SWAP3 POP SWAP3 SWAP1 POP JUMP JUMPDEST PUSH0 PUSH1 0x20 DUP3 DUP5 SUB SLT ISZERO PUSH2 0x4B7 JUMPI PUSH2 0x4B6 PUSH2 0x2DA JUMP JUMPDEST JUMPDEST PUSH0 DUP3 ADD CALLDATALOAD PUSH8 0xFFFFFFFFFFFFFFFF DUP2 GT ISZERO PUSH2 0x4D4 JUMPI PUSH2 0x4D3 PUSH2 0x2DE JUMP JUMPDEST JUMPDEST PUSH2 0x4E0 DUP5 DUP3 DUP6 ADD PUSH2 0x3F1 JUMP JUMPDEST SWAP2 POP POP SWAP3 SWAP2 POP POP JUMP JUMPDEST PUSH0 PUSH1 0x20 DUP3 DUP5 SUB SLT ISZERO PUSH2 0x4FE JUMPI PUSH2 0x4FD PUSH2 0x2DA JUMP JUMPDEST JUMPDEST PUSH0 PUSH2 0x50B DUP5 DUP3 DUP6 ADD PUSH2 0x434 JUMP JUMPDEST SWAP2 POP POP SWAP3 SWAP2 POP POP JUMP JUMPDEST PUSH0 DUP2 MLOAD SWAP1 POP SWAP2 SWAP1 POP JUMP JUMPDEST PUSH0 DUP3 DUP3 MSTORE PUSH1 0x20 DUP3 ADD SWAP1 POP SWAP3 SWAP2 POP POP JUMP JUMPDEST DUP3 DUP2 DUP4 MCOPY PUSH0 DUP4 DUP4 ADD MSTORE POP POP POP JUMP JUMPDEST PUSH0 PUSH2 0x546 DUP3 PUSH2 0x514 JUMP JUMPDEST PUSH2 0x550 DUP2 DUP6 PUSH2 0x51E JUMP JUMPDEST SWAP4 POP PUSH2 0x560 DUP2 DUP6 PUSH1 0x20 DUP7 ADD PUSH2 0x52E JUMP JUMPDEST PUSH2 0x569 DUP2 PUSH2 0x2EA JUMP JUMPDEST DUP5 ADD SWAP2 POP POP SWAP3 SWAP2 POP POP JUMP JUMPDEST PUSH0 PUSH1 0x40 DUP3 ADD SWAP1 POP PUSH2 0x587 PUSH0 DUP4 ADD DUP6 PUSH2 0x2A9 JUMP JUMPDEST DUP2 DUP2 SUB PUSH1 0x20 DUP4 ADD MSTORE PUSH2 0x599 DUP2 DUP5 PUSH2 0x53C JUMP JUMPDEST SWAP1 POP SWAP4 SWAP3 POP POP POP JUMP JUMPDEST PUSH32 0x4E487B7100000000000000000000000000000000000000000000000000000000 PUSH0 MSTORE PUSH1 0x22 PUSH1 0x4 MSTORE PUSH1 0x24 PUSH0 REVERT JUMPDEST PUSH0 PUSH1 0x2 DUP3 DIV SWAP1 POP PUSH1 0x1 DUP3 AND DUP1 PUSH2 0x5E6 JUMPI PUSH1 0x7F DUP3 AND SWAP2 POP JUMPDEST PUSH1 0x20 DUP3 LT DUP2 SUB PUSH2 0x5F9 JUMPI PUSH2 0x5F8 PUSH2 0x5A2 JUMP JUMPDEST JUMPDEST POP SWAP2 SWAP1 POP JUMP JUMPDEST PUSH0 DUP2 SWAP1 POP DUP2 PUSH0 MSTORE PUSH1 0x20 PUSH0 KECCAK256 SWAP1 POP SWAP2 SWAP1 POP JUMP JUMPDEST PUSH0 PUSH1 0x20 PUSH1 0x1F DUP4 ADD DIV SWAP1 POP SWAP2 SWAP1 POP JUMP JUMPDEST PUSH0 DUP3 DUP3 SHL SWAP1 POP SWAP3 SWAP2 POP POP JUMP JUMPDEST PUSH0 PUSH1 0x8 DUP4 MUL PUSH2 0x65B PUSH32 0xFFFFFFFFFFFFFFFFFFFFFFFFFFFFFFFFFFFFFFFFFFFFFFFFFFFFFFFFFFFFFFFF DUP3 PUSH2 0x620 JUMP JUMPDEST PUSH2 0x665 DUP7 DUP4 PUSH2 0x620 JUMP JUMPDEST SWAP6 POP DUP1 NOT DUP5 AND SWAP4 POP DUP1 DUP7 AND DUP5 OR SWAP3 POP POP POP SWAP4 SWAP3 POP POP POP JUMP JUMPDEST PUSH0 DUP2 SWAP1 POP SWAP2 SWAP1 POP JUMP JUMPDEST PUSH0 PUSH2 0x6A0 PUSH2 0x69B PUSH2 0x696 DUP5 PUSH2 0x2A0 JUMP JUMPDEST PUSH2 0x67D JUMP JUMPDEST PUSH2 0x2A0 JUMP JUMPDEST SWAP1 POP SWAP2 SWAP1 POP JUMP JUMPDEST PUSH0 DUP2 SWAP1 POP SWAP2 SWAP1 POP JUMP JUMPDEST PUSH2 0x6B9 DUP4 PUSH2 0x686 JUMP JUMPDEST PUSH2 0x6CD PUSH2 0x6C5 DUP3 PUSH2 0x6A7 JUMP JUMPDEST DUP5 DUP5 SLOAD PUSH2 0x62C JUMP JUMPDEST DUP3 SSTORE POP POP POP POP JUMP JUMPDEST PUSH0 SWAP1 JUMP JUMPDEST PUSH2 0x6E1 PUSH2 0x6D5 JUMP JUMPDEST PUSH2 0x6EC DUP2 DUP5 DUP5 PUSH2 0x6B0 JUMP JUMPDEST POP POP POP JUMP JUMPDEST JUMPDEST DUP2 DUP2 LT ISZERO PUSH2 0x70F JUMPI PUSH2 0x704 PUSH0 DUP3 PUSH2 0x6D9 JUMP JUMPDEST PUSH1 0x1 DUP2 ADD SWAP1 POP PUSH2 0x6F2 JUMP JUMPDEST POP POP JUMP JUMPDEST PUSH1 0x1F DUP3 GT ISZERO PUSH2 0x754 JUMPI PUSH2 0x725 DUP2 PUSH2 0x5FF JUMP JUMPDEST PUSH2 0x72E DUP5 PUSH2 0x611 JUMP JUMPDEST DUP2 ADD PUSH1 0x20 DUP6 LT ISZERO PUSH2 0x73D JUMPI DUP2 SWAP1 POP JUMPDEST PUSH2 0x751 PUSH2 0x749 DUP6 PUSH2 0x611 JUMP JUMPDEST DUP4 ADD DUP3 PUSH2 0x6F1 JUMP JUMPDEST POP POP JUMPDEST POP POP POP JUMP JUMPDEST PUSH0 DUP3 DUP3 SHR SWAP1 POP SWAP3 SWAP2 POP POP JUMP JUMPDEST PUSH0 PUSH2 0x774 PUSH0 NOT DUP5 PUSH1 0x8 MUL PUSH2 0x759 JUMP JUMPDEST NOT DUP1 DUP4 AND SWAP2 POP POP SWAP3 SWAP2 POP POP JUMP JUMPDEST PUSH0 PUSH2 0x78C DUP4 DUP4 PUSH2 0x765 JUMP JUMPDEST SWAP2 POP DUP3 PUSH1 0x2 MUL DUP3 OR SWAP1 POP SWAP3 SWAP2 POP POP JUMP JUMPDEST PUSH2 0x7A5 DUP3 PUSH2 0x514 JUMP JUMPDEST PUSH8 0xFFFFFFFFFFFFFFFF DUP2 GT ISZERO PUSH2 0x7BE JUMPI PUSH2 0x7BD PUSH2 0x2FA JUMP JUMPDEST JUMPDEST PUSH2 0x7C8 DUP3 SLOAD PUSH2 0x5CF JUMP JUMPDEST PUSH2 0x7D3 DUP3 DUP3 DUP6 PUSH2 0x713 JUMP JUMPDEST PUSH0 PUSH1 0x20 SWAP1 POP PUSH1 0x1F DUP4 GT PUSH1 0x1 DUP2 EQ PUSH2 0x804 JUMPI PUSH0 DUP5 ISZERO PUSH2 0x7F2 JUMPI DUP3 DUP8 ADD MLOAD SWAP1 POP JUMPDEST PUSH2 0x7FC DUP6 DUP3 PUSH2 0x781 JUMP JUMPDEST DUP7 SSTORE POP PUSH2 0x863 JUMP JUMPDEST PUSH1 0x1F NOT DUP5 AND PUSH2 0x812 DUP7 PUSH2 0x5FF JUMP JUMPDEST PUSH0 JUMPDEST DUP3 DUP2 LT ISZERO PUSH2 0x839 JUMPI DUP5 DUP10 ADD MLOAD DUP3 SSTORE PUSH1 0x1 DUP3 ADD SWAP2 POP PUSH1 0x20 DUP6 ADD SWAP5 POP PUSH1 0x20 DUP2 ADD SWAP1 POP PUSH2 0x814 JUMP JUMPDEST DUP7 DUP4 LT ISZERO PUSH2 0x856 JUMPI DUP5 DUP10 ADD MLOAD PUSH2 0x852 PUSH1 0x1F DUP10 AND DUP3 PUSH2 0x765 JUMP JUMPDEST DUP4 SSTORE POP JUMPDEST PUSH1 0x1 PUSH1 0x2 DUP9 MUL ADD DUP9 SSTORE POP POP POP JUMPDEST POP POP POP POP POP POP JUMP JUMPDEST PUSH0 DUP2 SWAP1 POP SWAP3 SWAP2 POP POP JUMP JUMPDEST PUSH0 PUSH2 0x87F DUP3 PUSH2 0x514 JUMP JUMPDEST PUSH2 0x889 DUP2 DUP6 PUSH2 0x86B JUMP JUMPDEST SWAP4 POP PUSH2 0x899 DUP2 DUP6 PUSH1 0x20 DUP7 ADD PUSH2 0x52E JUMP JUMPDEST DUP1 DUP5 ADD SWAP2 POP POP SWAP3 SWAP2 POP POP JUMP JUMPDEST PUSH0 PUSH2 0x8B0 DUP3 DUP5 PUSH2 0x875 JUMP JUMPDEST SWAP2 POP DUP2 SWAP1 POP SWAP3 SWAP2 POP POP JUMP JUMPDEST PUSH32 0x4E487B7100000000000000000000000000000000000000000000000000000000 PUSH0 MSTORE PUSH1 0x11 PUSH1 0x4 MSTORE PUSH1 0x24 PUSH0 REVERT JUMPDEST PUSH0 PUSH2 0x8F2 DUP3 PUSH2 0x2A0 JUMP JUMPDEST SWAP2 POP PUSH32 0xFFFFFFFFFFFFFFFFFFFFFFFFFFFFFFFFFFFFFFFFFFFFFFFFFFFFFFFFFFFFFFFF DUP3 SUB PUSH2 0x924 JUMPI PUSH2 0x923 PUSH2 0x8BB JUMP JUMPDEST JUMPDEST PUSH1 0x1 DUP3 ADD SWAP1 POP SWAP2 SWAP1 POP JUMP INVALID LOG2 PUSH5 0x6970667358 0x22 SLT KECCAK256 0x4B SHL 0xB5 0xB9 OR DUP2 BASEFEE CALL 0x29 ORIGIN PUSH0 PUSH16 0x4E286008A6AC6964D299551FFF93861D 0xBA SWAP6 STOP 0xD1 PUSH5 0x736F6C6343 STOP ADDMOD BYTE STOP CALLER LOG2 PUSH5 0x6970667358 0x22 SLT KECCAK256 0xBB 0xB1 0xAD DUP2 0xBC ADDMOD PUSH31 0x34688C020817999D7294F94D7F5B79D5DFC7D3F4AC8AF5CFC664736F6C6343 STOP ADDMOD BYTE STOP CALLER "
				},
				"gasEstimates": {
					"creation": {
						"codeDepositCost": "1029000",
						"executionCost": "1065",
						"totalCost": "1030065"
					},
					"external": {
						"addressArray(uint256)": "4944",
						"createSimpleStorageContract()": "infinite",
						"getNumByIndex(uint256)": "infinite",
						"storageArray(uint256)": "infinite",
						"storeNumByIndex(uint256,uint256)": "infinite"
					}
				},
				"methodIdentifiers": {
					"addressArray(uint256)": "0f96cf34",
					"createSimpleStorageContract()": "1dda6541",
					"getNumByIndex(uint256)": "ec2b45ae",
					"storageArray(uint256)": "0e031ab1",
					"storeNumByIndex(uint256,uint256)": "6efafab3"
				}
			},
			"storageLayout": {
				"storage": [
					{
						"astId": 94,
						"contract": "MyWorkspace/StorageFactory.sol:StorageFactory",
						"label": "storageArray",
						"offset": 0,
						"slot": "0",
						"type": "t_array(t_contract(SimpleStorage)87)dyn_storage"
					},
					{
						"astId": 97,
						"contract": "MyWorkspace/StorageFactory.sol:StorageFactory",
						"label": "addressArray",
						"offset": 0,
						"slot": "1",
						"type": "t_array(t_address)dyn_storage"
					}
				],
				"types": {
					"t_address": {
						"encoding": "inplace",
						"label": "address",
						"numberOfBytes": "20"
					},
					"t_array(t_address)dyn_storage": {
						"base": "t_address",
						"encoding": "dynamic_array",
						"label": "address[]",
						"numberOfBytes": "32"
					},
					"t_array(t_contract(SimpleStorage)87)dyn_storage": {
						"base": "t_contract(SimpleStorage)87",
						"encoding": "dynamic_array",
						"label": "contract SimpleStorage[]",
						"numberOfBytes": "32"
					},
					"t_contract(SimpleStorage)87": {
						"encoding": "inplace",
						"label": "contract SimpleStorage",
						"numberOfBytes": "20"
					}
				}
			},
			"userdoc": {
				"kind": "user",
				"methods": {},
				"version": 1
			}
		}
	}
}